:100000000C945E4C0C948F4C0C948F4C0C948F4C35
:100010000C948F4C0C948F4C0C948F4C0C948F4CF4
:100020000C948F4C0C94DEDD0C94DEDD0C94DEDD44
:100030000C948F4C0C948F4C0C948F4C0C948F4CD4
:100040000C948F4C0C948F4C0C948F4C0C948F4CC4
:100050000C948F4C0C948F4C0C948F4C0C9449A1A5
:100060000C948F4C0C94EC9F0C94C39F0C948F4C6D
:100070000C948F4C0C948F4C0C948F4C0C948F4C94
:100080000C948F4C0C948F4C0C948F4C0C948F4C84
:100090000C949A9F0C94719F0C948F4C0C94E8DDF7
:1000A0000C948F4C0C948F4C0C948F4C0C948F4C64
:1000B0000C948F4C0C948F4C0C948F4C0C948F4C54
:1000C0000C948F4C0C948F4C0C948F4C0C94489F38
:1000D0000C941F9F0C948F4C0C948F4C0C948F4C51
:1000E0000C948F4CB34D8B4FEC5009527453745396
:1000F00094552D57295E7558DE5A635B1060186160
:100100005D635D63EC50476E476EEC501A62876426
:10011000EC547F656A66EB68E067D169646B116DCA
:100120002A6D3159BA9EBD9EAC9EB09EB69EF49E7D
:10013000C19EC59ECB9ECF9ED39ED99EDD9EE19E45
:10014000F49EE79EEB9EEF9E35CA59CA8ACAA4CA9E
:10015000A4CAA4CAC0CA68CB35CA68CBEACA68CBED
:10016000FCCAFCCA22CB22CB8ACA9ECB9ECB8ACAAF
:10017000FCCA68CBA4CA32CB68CB68CB68CB68CB4F
:1001800068CB52CB68CB68CBEED301D426D498D6BB
:100190005FD483D4A3D4D9D40CD571D738D576D530
:1001A000B0D5EAD527D65FD671D771D783D483D49B
:1001B00098D698D6B8D6D9D6E2D6EBD6F4D6FDD610
:1001C00006D70FD718D721D72AD733D73CD745D74B
:1001D0004ED757D760D769D705A84CCDB2D44EB902
:1001E0003836A9020C50B9918688083CA6AAAA2ADA
:1001F000BE000000803F2C305800534420657272CE
:100200006F72436F64653A203058004E6F2063610F
:1002100072642C2077726F6E672063686970207338
:10022000656C6563742070696E2C206F722053506A
:10023000492070726F626C656D3F0043616E277478
:100240002061636365737320534420636172642E7D
:1002500020446F206E6F74207265666F726D6174DA
:100260002E004E6F206572726F7220666F756E641D
:100270002E0043616E2774206F70656E20726F6F61
:1002800074206469726563746F72792E00496E76AA
:10029000616C696420666F726D61742C2072656692
:1002A0006F726D61742053442E00667265655261F1
:1002B0006D3A2000696E697469616C697A6174696C
:1002C0006F6E20646F6E652E00FFEFFFFFFFEFFF84
:1002D000EFFFEFFFEFFFEFFFEFFFEFFFEFFFEFFFAE
:1002E000EFFFEFFFEFFFEFFFEFFFEFFFEFFFEFFF9E
:1002F000EFFFEFFFEFFFEFFFEFFFEFFFEFFFEFFF8E
:10030000EFFFEFFFEFFFEFFFEFFFEFFFEFFFEFFF7D
:10031000EFFFEFFFEFFFEFFFEFFFEFFFEFFFEFFF6D
:10032000EFFFEFFFEFFFF7FFEFFFF7FFEFFFF7FF45
:10033000F7FFEFFFEFFFEFFFEFFFEFFFEFFFEFFF45
:10034000EFFFEFFFEFFFEFFFEFFFEFFFEFFFEFFF3D
:10035000EFFFEFFFEFFFEFFFEFFFEFFFEFFFEFFF2D
:10036000EFFFEFFFEFFFEFFFEFFFEFFFEFFFEFFF1D
:10037000EFFFEFFFEFFFEFFFEFFFEFFFEFFFEFFF0D
:10038000EFFFEFFFEFFFEFFFEFFFEFFFEFFFEFFFFD
:10039000FFFFEFFFFFFFFFFFFFFFFFFFFFFFFFFF7D
:1003A000FFFFFFFFFFFFFFFFFFFFFFFFFFFFFFFF5D
:1003B000FFFFFFFFFFFFFFFFFFFFFFFFFFFFFFFF4D
:1003C000FFFFFFFFFFFFFFFFFFFFFFFFFFFFFFFF3D
:1003D000FFFFFFFFFFFFFFFFFFFFFFFFFFFFFFFF2D
:1003E000FFFFFFFFFFFFFFFFFFFFFFFFFFFFFFFF1D
:1003F000FFFFFFFFFFFFFFFFFFFFFFFFFFFFFFFF0D
:10040000FFFFFFFFFFFFFFFFFFFFFFFFFFFFFFFFFC
:10041000FFDEF7FFFFFFFFFFFFFFFFFFFFFFFFFF15
:10042000FFFFFFFFFFFFFFFFFFFFFFFFFFFFFFFFDC
:10043000FFFFFFFFFFFFFFFFFFFFFFFFFFFFFFFFCC
:10044000FFFFFFFFFFFFFFFFFFFFFFFFFFFFFFFFBC
:10045000FFFFFFFFFFFFFFFFFFFFEFFFFFFFEFFFCC
:10046000EFFFEFFFEFFFEFFFEFFFEFFFEFFFEFFF1C
:10047000EFFFEFFFEFFFEFFFEFFFEFFFEFFFEFFF0C
:10048000EFFFEFFFEFFFEFFFEFFFEFFFEFFFEFFFFC
:10049000EFFFEFFFEFFFEFFFEFFFEFFFEFFFEFFFEC
:1004A000EFFFEFFFEFFFEFFFEFFFEFFFEFFFEFFFDC
:1004B000EFFFEFFFF7FFEFFFF7FBF7B7F7FEFFFFE9
:1004C000F7FFEFFFF7FFEFFFEFFFEFFFEFFFEFFFAC
:1004D000EFFFEFFFEFFFEFFFEFFFEFFFEFFFEFFFAC
:1004E000EFFFEFFFEFFFEFFFEFFFEFFFEFFFEFFF9C
:1004F000EFFFEFFFEFFFEFFFEFFFEFFFEFFFEFFF8C
:10050000EFFFEFFFEFFFEFFFEFFFEFFFEFFFEFFF7B
:10051000EFFFEFFFEFFFEFFFEFFFEFFFEFFFEFFF6B
:10052000FFFFEFFFFFFFEFFFEFFFEFFFEFFFEFFF3B
:10053000EFFFEFFFEFFFEFFFEFFFEFFFEFFFEFFF4B
:10054000EFFFEFFFEFFFEFFFEFFFEFFFEFFFEFFF3B
:10055000EFFFEFFFEFFFEFFFEFFFEFFFEFFFEFFF2B
:10056000EFFFEFFFEFFFEFFFEFFFEFFFEFFFEFFF1B
:10057000EFFFEFFFEFFFEFFFEFFFF7FCF7D8FFB65E
:10058000F7D6F772F7D7FFB5F7F9F7FFF7FFEFFFE9
:10059000EFFFEFFFEFFFEFFFEFFFEFFFEFFFEFFFEB
:1005A000EFFFEFFFEFFFEFFFEFFFEFFFEFFFEFFFDB
:1005B000EFFFEFFFEFFFEFFFEFFFEFFFEFFFEFFFCB
:1005C000EFFFEFFFEFFFEFFFEFFFEFFFEFFFEFFFBB
:1005D000EFFFEFFFEFFFEFFFEFFFEFFFEFFFEFFFAB
:1005E000EFFFEFFFEFFFEFFFFFFFEFFFFFFFEFFF7B
:1005F000EFFFEFFFEFFFEFFFEFFFEFFFEFFFEFFF8B
:10060000EFFFEFFFEFFFEFFFEFFFEFFFEFFFEFFF7A
:10061000EFFFEFFFEFFFEFFFEFFFEFFFEFFFEFFF6A
:10062000EFFFEFFFEFFFEFFFEFFFEFFFEFFFEFFF5A
:10063000EFFFEFFFEFFFEFFFEFFFEFFFEFFFEFFF4A
:10064000EFFFF7F7FFEBFF08F70BF7CAFEEAF6A993
:10065000FFF3FFFEF7FFEFFFEFFFEFFFEFFFEFFF0F
:10066000EFFFEFFFEFFFEFFFEFFFEFFFEFFFEFFF1A
:10067000EFFFEFFFEFFFEFFFEFFFEFFFEFFFEFFF0A
:10068000EFFFEFFFEFFFEFFFEFFFEFFFEFFFEFFFFA
:10069000EFFFEFFFEFFFEFFFEFFFEFFFEFFFEFFFEA
:1006A000EFFFEFFFEFFFEFFFEFFFEFFFEFFFEFFFDA
:1006B000FFFFEFFFFFFFEFFFEFFFEFFFEFFFEFFFAA
:1006C000EFFFEFFFEFFFEFFFEFFFEFFFEFFFEFFFBA
:1006D000EFFFEFFFEFFFEFFFEFFFEFFFEFFFEFFFAA
:1006E000EFFFEFFFEFFFEFFFEFFFEFFFEFFFEFFF9A
:1006F000EFFFEFFFEFFFEFFFEFFFEFFFEFFFEFFF8A
:10070000EFFFEFFFEFFFEFFFEFFFF796FF88FFE54B
:10071000F6E4ED07F6E5ED25FF6EF7DDF7FFF7FFF1
:10072000EFFFEFFFEFFFEFFFEFFFEFFFEFFFEFFF59
:10073000EFFFEFFFEFFFEFFFEFFFEFFFEFFFEFFF49
:10074000EFFFEFFFEFFFEFFFEFFFEFFFEFFFEFFF39
:10075000EFFFEFFFEFFFEFFFEFFFEFFFEFFFEFFF29
:10076000EFFFEFFFEFFFEFFFEFFFEFFFEFFFEFFF19
:10077000EFFFEFFFEFFFEFFFFFFFEFFFFFFFEFFFE9
:10078000EFFFEFFFEFFFEFFFEFFFEFFFEFFFEFFFF9
:10079000EFFFEFFFEFFFEFFFEFFFEFFFEFFFEFFFE9
:1007A000EFFFEFFFEFFFEFFFEFFFEFFFEFFFEFFFD9
:1007B000EFFFEFFFEFFFEFFFEFFFEFFFEFFFEFFFC9
:1007C000EFFFEFFFEFFFEFFFEFFFEFFFEFFFEFFFB9
:1007D000EFFFEFB8F727E647F6E6E5E6E527EE2672
:1007E000EE6DEEFEF7FFEFFFEFFFEFFFEFFFEFFF26
:1007F000EFFFEFFFEFFFEFFFEFFFEFFFEFFFEFFF89
:10080000EFFFEFFFEFFFEFFFEFFFEFFFEFFFEFFF78
:10081000EFFFEFFFEFFFEFFFEFFFEFFFEFFFEFFF68
:10082000EFFFEFFFEFFFEFFFEFFFEFFFEFFFEFFF58
:10083000EFFFEFFFEFFFEFFFEFFFEFFFEFFFEFFF48
:10084000FFFFEFFFFFFFEFFFEFFFEFFFEFFFEFFF18
:10085000EFFFEFFFEFFFEFFFEFFFEFFFEFFFEFFF28
:10086000EFFFEFFFEFFFEFFFEFFFEFFFEFFFEFFF18
:10087000EFFFEFFFEFFFEFFFEFFFEFFFEFFFEFFF08
:10088000EFFFEFFFEFFFEFFFEFFFEFFFEFFFEFFFF8
:10089000EFFFEFFFEFFFEFFFEFFFEFFDF7EEF6C922
:1008A000FEEAFE47F62AFFCBF654F7FFF7FFEFFF0D
:1008B000EFFFEFFFEFFFEFFFEFFFEFFFEFFFEFFFC8
:1008C000EFFFEFFFEFFFEFFFEFFFEFFFEFFFEFFFB8
:1008D000EFFFEFFFEFFFEFFFEFFFEFFFEFFFEFFFA8
:1008E000EFFFEFFFEFFFEFFFEFFFEFFFEFFFEFFF98
:1008F000EFFFEFFFEFFFEFFFEFFFEFFFEFFFEFFF88
:10090000EFFFEFFFEFFFEFFFFFFFEFFFFFFFEFFF57
:10091000EFFFEFFFEFFFEFFFEFFFEFFFEFFFEFFF67
:10092000EFFFEFFFEFFFEFFFEFFFEFFFEFFFEFFF57
:10093000EFFFEFFFEFFFEFFFEFFFEFFFEFFFEFFF47
:10094000EFFFEFFFEFFFEFFFEFFFEFFFEFFFEFFF37
:10095000EFFFEFFFF7FFEFFFEFFFEFFEF7FBFFFC0F
:10096000F7FFFFFFFFB6F74FF728F543E34BF633EA
:10097000EFFBF7FFF7FDF7D8FFD9F7FEEFFFEFFF2B
:10098000EFFFEFFFEFFFF7FFEFFFEFFFEFFFEFFFEF
:10099000EFFFEFFFEFFFEFFFEFFFEFFFEFFFEFFFE7
:1009A000EFFFEFFFEFFFEFFFEFFFEFFFEFFFEFFFD7
:1009B000EFFFEFFFEFFFEFFFEFFFEFFFEFFFEFFFC7
:1009C000EFFFEFFFEFFFEFFFEFFFEFFFEFFFEFFFB7
:1009D000FFFFEFFFFFFFEFFFEFFFEFFFEFFFEFFF87
:1009E000EFFFEFFFEFFFEFFFEFFFEFFFEFFFEFFF97
:1009F000EFFFEFFFEFFFEFFFEFFFEFFFEFFFEFFF87
:100A0000EFFFEFFFEFFFEFFFEFFFEFFFEFFFEFFF76
:100A1000EFFFEFFFEFFFEFFFEFFFEFFFEFFFEFFF66
:100A2000EFFEF7B5FF89E60BF7EFE616E7FFFFFFEE
:100A3000FF2AF4C0D8F3FDFFFFDBF76FDE6AE6A5FF
:100A4000EEAAE6BAFFFFEFFFEFFFEFFFEFFFEFFFCA
:100A5000EFFFEFFFEFFFEFFFEFFFEFFFEFFFEFFF26
:100A6000EFFFEFFFEFFFEFFFEFFFEFFFEFFFEFFF16
:100A7000EFFFEFFFEFFFEFFFEFFFEFFFEFFFEFFF06
:100A8000EFFFEFFFEFFFEFFFEFFFEFFFEFFFEFFFF6
:100A9000EFFFEFFFEFFFEFFFFFFFEFFFFFFFEFFFC6
:100AA000EFFFEFFFEFFFEFFFEFFFEFFFEFFFEFFFD6
:100AB000EFFFEFFFEFFFEFFFEFFFEFFFEFFFEFFFC6
:100AC000EFFFEFFFEFFFEFFFEFFFEFFFEFFFEFFFB6
:100AD000EFFFEFFFEFFFEFFFEFFFEFFFEFFFEFFFA6
:100AE000EFFFEFFFEFFFEFFFF7DDF792F748EFE3E0
:100AF000EE61E646DEB0E6FDFFCAFBC0E090F5B869
:100B0000FF29E623EEA3F624F76EF77AE7FFEFFF5F
:100B1000EFFFEFFFEFFFEFFFEFFFF7FFF7FFEFFF55
:100B2000EFFFEFFFEFFFEFFFEFFFEFFFEFFFEFFF55
:100B3000EFFFEFFFEFFFEFFFEFFFEFFFEFFFEFFF45
:100B4000EFFFEFFFEFFFEFFFEFFFEFFFEFFFEFFF35
:100B5000EFFFEFFFEFFFEFFFEFFFEFFFEFFFEFFF25
:100B6000FFFFEFFFFFFFEFFFEFFFEFFFEFFFEFFFF5
:100B7000EFFFEFFFEFFFEFFFEFFFEFFFEFFFEFFF05
:100B8000EFFFEFFFEFFFEFFFEFFFEFFFEFFFEFFFF5
:100B9000EFFFEFFFEFFFEFFFEFFFEFFFEFFFEFFFE5
:100BA000EFFFEFFFEFFFEFFFEFFFEFFFEFFFEFFFD5
:100BB000EFFFEFDCEF94EF6FF749FFE6F683D5CA5E
:100BC000D584F2A0F0A6EBA6DDE3E526FF8DFF516C
:100BD000EFD8F7FFF7FFEFFFEFFFEFFFF7FFEFFFB4
:100BE000EFFFF7FFF7FFF7FFEFFFEFFFEFFFEFFF7D
:100BF000EFFFEFFFEFFFEFFFEFFFEFFFEFFFEFFF85
:100C0000EFFFEFFFEFFFEFFFEFFFEFFFEFFFEFFF74
:100C1000EFFFEFFFEFFFEFFFEFFFEFFFEFFFEFFF64
:100C2000EFFFEFFFEFFFEFFFFFFFEFFFFFFFEFFF34
:100C3000EFFFEFFFEFFFEFFFEFFFEFFFEFFFEFFF44
:100C4000EFFFEFFFEFFFEFFFEFFFEFFFEFFFEFFF34
:100C5000EFFFEFFFEFFFEFFFEFFFEFFFEFFFEFFF24
:100C6000EFFFEFFFEFFFEFFFEFFFEFFFEFFFF79E6D
:100C7000E75DDFFFF7FFEFFBF7F8FFFBF7FFEFFFA5
:100C8000F7B6F7C7F665EE04ED41E982F8C1F1A5C4
:100C9000F5A5EE2CEFFCF7FFF7FBF7F5FFF5FFF9F5
:100CA000F7FEF7FFFFFFF7FFF7FFEFFFEFFFEFFFA5
:100CB000F7FFEFFFEFFFEFFFEFFFEFFFEFFFEFFFBC
:100CC000EFFFEFFFEFFFEFFFEFFFEFFFEFFFEFFFB4
:100CD000EFFFEFFFEFFFEFFFEFFFEFFFEFFFEFFFA4
:100CE000EFFFEFFFEFFFEFFFEFFFEFFFEFFFEFFF94
:100CF000FFFFEFFFFFFFEFFFEFFFEFFFEFFFEFFF64
:100D0000EFFFEFFFEFFFEFFFEFFFEFFFEFFFEFFF73
:100D1000EFFFEFFFEFFFEFFFEFFFEFFFEFFFEFFF63
:100D2000EFFFEFFFEFFFEFFFEFFFEFFFEFFFEFFF53
:100D3000EFFFEFFFEFFFEFFFF75DE77BEFF5FFF171
:100D4000FFCFFF8BFFD6F7FFEFFFF7F2FF86F6C16D
:100D5000E2E2F0E3F0E1F062EB2AF7F8FFFFEFFEEA
:100D6000F74FF707EFCEFFF0FFF4FF38EFB5DE14D3
:100D7000BE3CDF9EDFFFF7FFF7FFEFFFEFFFEFFF68
:100D8000EFFFEFFFEFFFEFFFEFFFEFFFEFFFEFFFF3
:100D9000EFFFEFFFEFFFEFFFEFFFEFFFEFFFEFFFE3
:100DA000EFFFEFFFEFFFEFFFEFFFEFFFEFFFEFFFD3
:100DB000EFFFEFFFEFFFEFFFFFFFEFFFFFFFEFFFA3
:100DC000EFFFEFFFEFFFEFFFEFFFEFFFEFFFEFFFB3
:100DD000EFFFEFFFEFFFEFFFEFFFEFFFEFFFEFFFA3
:100DE000EFFFEFFFEFFFEFFFEFFFEFFFEFFFEFFF93
:100DF000EFFFEFFFEFFFEFFFEFFFEFFFEFFFFFBEB4
:100E0000F7DBD6F2C5E8EE0BEFE7DDC2DDB3FFFF9F
:100E1000EFFFEFD2FEE4EBABE3E7E1E5E981E800C9
:100E2000F185F394FEFFF7FFEF70F783D5E7D52642
:100E3000E626E688C58BDEEBCD6DB5EA7B1BDFFFD2
:100E4000FFFFEFFFEFFFEFFFEFFFEFFFEFFFEFFF22
:100E5000EFFFEFFFEFFFEFFFEFFFEFFFEFFFEFFF22
:100E6000EFFFEFFFEFFFEFFFEFFFEFFFEFFFEFFF12
:100E7000EFFFEFFFEFFFEFFFEFFFEFFFEFFFEFFF02
:100E8000FFFFEFFFFFFFEFFFEFFFEFFFEFFFEFFFD2
:100E9000EFFFEFFFEFFFEFFFEFFFEFFFEFFFEFFFE2
:100EA000EFFFEFFFEFFFEFFFEFFFEFFFEFFFEFFFD2
:100EB000EFFFEFFFEFFFEFFFEFFFF7FFEFFFEFFFBA
:100EC000F7FFEFFFEFB9D64FB5B2DE50B5E6D54725
:100ED000EE69EEC9EEF6FFFAFFB5FF45E3C3E94B55
:100EE000E32CC36CD3D1F4CAF240E865EB93F7F777
:100EF000FFD2FFA8EE0BF7A8EEA8F607F7ECFFF07D
:100F0000EE2CF786DEA97B59C6FFF7FFEFFFEFFF58
:100F1000EFFFF7FFEFFFEFFFEFFFEFFFEFFFEFFF59
:100F2000EFFFEFFFEFFFEFFFEFFFEFFFEFFFEFFF51
:100F3000EFFFEFFFEFFFEFFFEFFFEFFFEFFFEFFF41
:100F4000EFFFEFFFEFFFEFFFFFFFEFFFFFFFEFFF11
:100F5000EFFFEFFFEFFFEFFFEFFFEFFFEFFFEFFF21
:100F6000EFFFEFFFEFFFEFFFEFFFEFFFEFFFEFFF11
:100F7000EFFFEFFFEFFFEFFFEFFFEFFFEFFFEFFF01
:100F8000EFFFEFFFEFFFEFFFF7FFF772CEAAC54AC3
:100F9000EFEEFF12C64ABDEAF66AF7E6CDE9D5A73D
:100FA000D5C6D503F3E1F002C18D93919C7CF74F38
:100FB000EC80E8A4FBA5D544C526CDC6DD6BF7685B
:100FC000DEC6D586F748EFE8CDE9EE84E6C6DE4416
:100FD0009478C6FFFFFFEFFFEFFFF7FFEFFFEFFF94
:100FE000EFFFEFFFEFFFEFFFEFFFEFFFEFFFEFFF91
:100FF000EFFFEFFFEFFFEFFFEFFFEFFFEFFFEFFF81
:10100000EFFFEFFFEFFFEFFFEFFFEFFFEFFFEFFF70
:10101000FFFFEFFFFFFFEFFFEFFFEFFFEFFFEFFF40
:10102000EFFFEFFFEFFFEFFFEFFFEFFFEFFFEFFF50
:10103000EFFFEFFFEFFFEFFFEFFFEFFFEFFFEFFF40
:10104000EFFFEFFFF7FFEFFFEFFFF7FFF7FFE7FF20
:10105000F72FCE85DE46FF03EE05E6D3E60B8CA622
:10106000D545DE44C5E2C4C2C406DEE4F32AE3D3B8
:10107000D48D83B19474CDCCE345EA85FCE6DDE202
:10108000C4E3C425BD85CDE8DD66CD65E6E4BCC31B
:10109000D504F725F7C4FF64E6098C99CEBEEFDFCF
:1010A000F7FFEFFFEFFFF7FFEFFFEFFFEFFFEFFFC0
:1010B000EFFFEFFFEFFFEFFFEFFFEFFFEFFFEFFFC0
:1010C000EFFFEFFFEFFFEFFFEFFFEFFFEFFFEFFFB0
:1010D000EFFFEFFFEFFFEFFFFFFFEFFFFFFFEFFF80
:1010E000EFFFEFFFEFFFEFFFEFFFEFFFEFFFEFFF90
:1010F000EFFFEFFFEFFFEFFFEFFFEFFFEFFFEFFF80
:10110000EFFFEFFFEFFFEFFFEFFFEFFFEFFFEFFF6F
:10111000F71BDF78CEFFF733CEA9DEE7FF83FFA50D
:10112000FE64EE4FF70FADA6CD84D502CD43D54278
:10113000D5A3DD63E4AAC39BE6D3B48D8353CDB0BE
:10114000E468E383DC63D541D542D523CD64CD0883
:10115000E6CAD509DE46DE8AFF46FFC9FF8BF7A740
:10116000EEE7E6E5A44ACEB0D65BE7FFF7FFEFFF78
:10117000EFFFEFFFEFFFEFFFEFFFEFFFEFFFEFFFFF
:10118000EFFFEFFFEFFFEFFFEFFFEFFFEFFFEFFFEF
:10119000EFFFEFFFEFFFEFFFEFFFEFFFEFFFEFFFDF
:1011A000FFFFEFFFFFFFEFFFEFFFEFFFEFFFEFFFAF
:1011B000EFFFEFFFEFFFEFFFEFFFEFFFEFFFEFFFBF
:1011C000EFFFEFFFEFFFEFFFEFFFEFFFEFFFEFFFAF
:1011D000EFFFF7FFEFFFF717E76AD66DB53AE74C79
:1011E000CEEAFF86FF67FFA8FF67F7ECEEB2C527E0
:1011F000A443D543D563DD82DD04E6E4ED82C2CEAF
:10120000C311DD8872696A279A44E3E4ED24EEC3D2
:10121000E5A4DD03D5E2C4E4BCE6BC66CDEAEE8914
:10122000FF68FF47F78AFFCDFFECFF84E606EFC5B6
:10123000E649D690AD9EE7FFF7FFEFFFEFFFEFFF28
:10124000EFFFEFFFEFFFEFFFEFFFEFFFEFFFEFFF2E
:10125000EFFFEFFFEFFFEFFFEFFFEFFFEFFFEFFF1E
:10126000EFFFEFFFEFFFEFFFFFFFEFFFFFFFEFFFEE
:10127000EFFFEFFFEFFFEFFFEFFFEFFFEFFFEFFFFE
:10128000EFFFEFFFEFFFEFFFEFFFEFFFEFFFEFFFEE
:10129000EFFFEFFFEFFFEFFFEFFFEFFFF7D4D6EA2F
:1012A000DE87FF09CE90F7C8FF23FF25FF47F7E64B
:1012B000F6E5EEA8E6D4E64C9C06DE85CD88E6A7EA
:1012C000FF87FFA7FF42EC87B2EB8A2C736872623C
:1012D000A9C5FCA7FF46FFA8FFE8F645EE88FF4931
:1012E000DECAD5E6D5E8EEC6EE26F726F7E5EE45EA
:1012F000F7A8FFE7EEE5EEE5EE86E6C6833DDFFF05
:10130000F7FFEFFFEFFFEFFFEFFFEFFFEFFFEFFF65
:10131000EFFFEFFFEFFFEFFFEFFFEFFFEFFFEFFF5D
:10132000EFFFEFFFEFFFEFFFEFFFEFFFEFFFEFFF4D
:10133000FFFFEFFFFFFFEFFFEFFFEFFFEFFFEFFF1D
:10134000EFFFEFFFEFFFEFFFEFFFEFFFEFFFEFFF2D
:10135000EFFFEFFFEFFFEFFFEFFFEFFFEFFFEFFF1D
:10136000EFFFF7B6DECBDE66FF83EEC6FF43FF235B
:10137000FF04F7E4F625F7A6EE86EE05E612FF7306
:10138000BD469C27B56AF7CAFFE6F6E6EE87F6A2E9
:10139000D2E6B90C9326AAA2DA66EE06EFC4EE886E
:1013A000F724D624EF87F7A8CD67C527E606E665BC
:1013B000E605F7C6F625F744F7C4EE66FF65FF8439
:1013C000EE63CDC6ACD5B5FFF7FFEFFFEFFFEFFF44
:1013D000EFFFEFFFEFFFEFFFEFFFEFFFEFFFEFFF9D
:1013E000EFFFEFFFEFFFEFFFEFFFEFFFEFFFEFFF8D
:1013F000EFFFEFFFEFFFEFFFFFFFEFFFFFFFEFFF5D
:10140000EFFFEFFFEFFFEFFFEFFFEFFFEFFFEFFF6C
:10141000EFFFEFFFEFFFEFFFEFFFEFFFEFFFEFFF5C
:10142000EFFFEFFFEFFFEFFFEF9DE72FCE4BF763EF
:10143000EEC2D544DE83EE84E6A4E645FFE5FEE594
:10144000DD02CD64DDC69B55CE29AD49F727DE020E
:10145000D586EE4AEF6BF7E7F5E2D9659143BAC757
:10146000F54BF74AF708D607CE68EF87EFC9E6696C
:10147000BDC7EE63B4E39B06EFC5E604DEA3EE85CD
:10148000FF43AC64A443DE05EF45DEC6EE4694D9C7
:10149000D6FFFFFFF7FFEFFFEFFFEFFFEFFFEFFFDD
:1014A000EFFFEFFFEFFFEFFFEFFFEFFFEFFFEFFFCC
:1014B000EFFFEFFFEFFFEFFFEFFFEFFFEFFFEFFFBC
:1014C000FFFFEFFFFFFFEFFFEFFFEFFFEFFFEFFF8C
:1014D000EFFFEFFFEFFFEFFFEFFFEFFFEFFFEFFF9C
:1014E000EFFFEFFFEFFFEFFFEFFFEFFFEFFFEFFF8C
:1014F000F715BE2DCEADFF44D504D52383228B0333
:10150000BD49EF6AEF04CDC5E5C7EE449CA7ACF634
:10151000DE6B94829B24BC84C4A6CD07F7A6EE2480
:10152000E643EC02C223DCE4DD65E664E671F79491
:10153000CE0FBE0CE7ABD652C66FF705D686A40613
:10154000CE27EFA7FF23D666F725D6A28BA8E6867F
:10155000F746DE63C509ADB2D6EFE639E7FFF7FF20
:10156000F7FFEFFFEFFFEFFFEFFFEFFFEFFFEFFF03
:10157000EFFFEFFFEFFFEFFFEFFFEFFFEFFFEFFFFB
:10158000EFFFEFFFEFFFEFFFFFFFEFFFFFFFEFFFCB
:10159000EFFFEFFFEFFFEFFFEFFFEFFFEFFFEFFFDB
:1015A000EFFFEFFFEFFFEFFFEFFFEFFFEFFFEFFFCB
:1015B000EFFFEFFFFF35C6F5BD94AD8ABDEBFF230E
:1015C000CD65EDA27A45A487FF46DE23A464CDC88D
:1015D000FE0494C5938AEE69AC89A487CD45C5AF56
:1015E0009CB6DE89E647E625EE06FF83F5E6FE6556
:1015F000F6A7EE49E677EFFFFFB5F72AEFA9C57A20
:10160000F7BBF76AD625D6C5CDE4BC24BDC8E6062F
:10161000CE07C6215AC36A08E705D625BDA38BC6E7
:10162000C5A4FF4ACE52C6BDE7FFEFFFEFFFEFFFB5
:10163000EFFFEFFFEFFFEFFFEFFFEFFFEFFFEFFF3A
:10164000EFFFEFFFEFFFEFFFEFFFEFFFEFFFEFFF2A
:10165000FFFFEFFFFFFFEFFFEFFFEFFFEFFFEFFFFA
:10166000EFFFEFFFEFFFEFFFEFFFEFFFEFFFEFFF0A
:10167000EFFFEFFFEFFFEFFFEFFFF718DF2BD6AD28
:10168000BD73AD86A4E7FF44CD65C4049CC7D5C334
:10169000C4E2D445D587C5E372648B66CD85B4E4D6
:1016A000A348E606CEEAE6B2DEB4DE89EEC7FE2542
:1016B000FE04FF63FF44FF85FE86F689F62FD6ED14
:1016C000C54BF789DE88D5EAD54DEFE7FFA3DE6687
:1016D000D645E642BC226AA251677B7094A85206A6
:1016E000A566FF03C5C59B44BD44F7A6FF46BDD90B
:1016F000CEFFF7FFF7FFEFFFEFFFEFFFEFFFEFFF8B
:10170000EFFFEFFFEFFFEFFFEFFFEFFFEFFFEFFF69
:10171000EFFFEFFFEFFFEFFFFFFFEFFFFFFFEFFF39
:10172000EFFFEFFFEFFFEFFFEFFFEFFFEFFFEFFF49
:10173000EFFFEFFFEFFFEFFFEFFFEFFFEFFFF7FF31
:10174000EFDEEF4ECE68FF47C553AD06A566FF63DB
:10175000BCE6AB63B4A4C424AC22B4A4C4438B429F
:101760008B41BC23D544D5A5D506C5288CB4F7CD6F
:10177000E6A6ACE4CCE5E503D5E3E5E6FFC4F62256
:10178000CDA5DD46D5E6BCCFE6B6FF53CE94E64FF9
:10179000D6C5C5E3D525DE029C24BD82BCE39B698A
:1017A000BD6ADEB3DEF3C5877B67CD22AC659CC81E
:1017B000DEC5DEA4E606B537C6FFFFFFF7FFEFFF85
:1017C000EFFFEFFFEFFFEFFFEFFFEFFFEFFFEFFFA9
:1017D000EFFFEFFFEFFFEFFFEFFFEFFFEFFFEFFF99
:1017E000FFFFEFFFFFFFEFFFEFFFEFFFEFFFEFFF69
:1017F000EFFFEFFFEFFFEFFFEFFFEFFFEFFFEFFF79
:10180000EFFFEFFFF7FFF7FFF738E70CE725E68676
:10181000CD72AD69ADC5DD63CC639BEBB42FA5EB99
:1018200083435AEAACEAD5E8DD44D524D545CDC694
:10183000AC697BCA5238BEFEFFD9F7F5EE92F72AA3
:10184000F726E6C3DDA4E589EE8FF737E7DAFFFF79
:10185000FF9BD636A59FEFFFEF55C691B5078CAE1F
:10186000BDF2C5479CE8E647EF46FF86E609D62C61
:101870008C31B5099473D6CDF7E3C5E4E6A6E62826
:101880008C6EBDB8D6FFF7FFEFFFEFFFEFFFEFFF66
:10189000EFFFEFFFEFFFEFFFEFFFEFFFEFFFEFFFD8
:1018A000EFFFEFFFEFFFEFFFFFFFEFFFFFFFEFFFA8
:1018B000EFFFEFFFEFFFEFFFEFFFEFFFEFFFEFFFB8
:1018C000EFFFEFFFEFFFEFFFEFFFEFFFEFFFEFFFA8
:1018D000F7D2D6AEFF89F6A5BC10AD09AD22B4246F
:1018E0009B277B51CE50E7ECE6AAACCE9C699CF1DD
:1018F000C5D1B56EAD109DD6B59FEFDACE58BEFFFF
:10190000F7FFEFFFF7BBF78BF706F7E3E566EEE9C6
:10191000F695EFFFEFFFF73CDF36A5B8B5BFEFFF59
:10192000F7FFF7FFF7BDE7FFEFFFFF56CE44940741
:10193000EF44DE28F7C6EEE8AC9194F6B5D4B54A8C
:10194000CE27F7C3CDE5D5C5A325CD6C94FFF7FF12
:10195000EFFFEFFFEFFFEFFFEFFFEFFFEFFFEFFF17
:10196000EFFFEFFFEFFFEFFFEFFFEFFFEFFFEFFF07
:10197000FFFFEFFFFFFFEFFFEFFFEFFFEFFFEFFFD7
:10198000EFFFEFFFEFFFEFFFEFFFEFFFEFFFEFFFE7
:10199000EFFFEFFFFF76CEECAC0DC6CFFF68EE0495
:1019A000B4ADAC4CBDE4A3805128AD8AF783CDE43F
:1019B000E507A42B8CCFC5FFEFFFF7FFEFFFF7FF85
:1019C000FFFFEFFFF7FFF7FFEFFFEFFFEFFFF7512D
:1019D000F706F764FF45F70DE7FCEFFFF79EEFF41E
:1019E00094739456ADFFF7FFF7FFEFFFEFFFF7FF9C
:1019F000F7FFEFFFFFEFA405ADABFF47D627D60AF1
:101A0000EF09B54C940A8CA8C546F7A6DEA5B441EB
:101A100049E38272ADFFF7FFF7FFEFFFEFFFEFFF44
:101A2000EFFFEFFFEFFFEFFFEFFFEFFFEFFFEFFF46
:101A3000EFFFEFFFEFFFEFFFFFFFEFFFFFFFEFFF16
:101A4000EFFFEFFFEFFFEFFFEFFFEFFFEFFFEFFF26
:101A5000EFFFEFFFEFFFEFFFEFFFF7B3BDF0A4499C
:101A60009C0AADEFFFA6DD85CC8CAC8C94E59B4544
:101A7000BDE9FFE6EE02AC65B40B849DEFBEF7FF57
:101A8000EFFFEFFFEFFFF7FFF7FFF7FFFFFFFFFFAE
:101A9000FFFFFFFFFFFFEFDDEFAEE605F7A9E699D9
:101AA000E7FFEFFFFFFFFF1CDF55AD18BEFFFFFF95
:101AB000FFFFEFFFEFFFEFFFEFFFEFFFF75AE76AE0
:101AC0008428ADEBE6CADE4AF768E64A8C0E84E766
:101AD00083C6C543DEE5BCC12843314BCE4FE7BDCD
:101AE000EFFFF7FFEFFFEFFFEFFFEFFFEFFFEFFF7E
:101AF000EFFFEFFFEFFFEFFFEFFFEFFFEFFFEFFF76
:101B0000FFFFEFFFFFFFEFFFEFFFEFFFEFFFEFFF45
:101B1000EFFFEFFFEFFFEFFFEFFFEFFFEFFFEFFF55
:101B2000F737EFA8C54FADEFC508B50AEF45CD456E
:101B3000B42C94496B05B5E7FFC6E6039C84D5E653
:101B40008B3CDFFFF7FFF7FFEFFFF7FFFFFFFFDE45
:101B5000EF9BC67A9D797C58743A8D7BBEDFEFFF90
:101B6000FFDDF7F4DE59E7FFFFFFEF7BBEB884B877
:101B700063395B785B787C1BB69EE7FFFFFFF7FF5E
:101B8000EFFFEFFFEFFFF7FFFFCEA445A42BEF47DA
:101B9000D6E5CDCAEE54CE095B249483BC619BED9F
:101BA00083D6DE65F705E7CAA412C6DFEFFFF7FFAD
:101BB000EFFFEFFFEFFFEFFFEFFFEFFFEFFFEFFFB5
:101BC000EFFFEFFFEFFFEFFFFFFFEFFFFFFFEFFF85
:101BD000EFFFEFFFEFFFEFFFEFFFEFFFEFFFEFFF95
:101BE000EFFFEFFFEFFFEFBEEFEAD568FF068C884F
:101BF0009C86A407DE23AC26A4ED7B268CE8FF257B
:101C0000DEC1AB45DDC6B472A5FFFFFFF7FFEFFFF6
:101C1000F7FFFF9EEF599DF74AB72979199919B82F
:101C200019B819D721174BDAADFFFFFFF7FFFFDC1B
:101C3000CE575BB71978199A19BB199A199919B81F
:101C400019B742B9841DD7FFFFFFF7FFEFFFEFFF82
:101C5000F71ADF4E94288CC6C5E7F622D58EBD8DC7
:101C60009444BD25D56693EFA4CEDE65EF46EF869E
:101C7000DEC6A43CD7FFF7FFEFFFEFFFF7FFF7FF4C
:101C8000EFFFEFFFEFFFEFFFEFFFEFFFEFFFEFFFE4
:101C9000FFFFEFFFFFFFEFFFEFFFEFFFEFFFEFFFB4
:101CA000EFFFEFFFEFFFEFFFF7FFEFFFEFFFF79320
:101CB000DEE5D585CD4AB56D8466A4A5D5C4A38BD4
:101CC000A4CD7B07CE65E6C39B45D585B4D09CFFEC
:101CD000EFFFF7FFF7FFFF7EE7389576429719DBB6
:101CE00019DD21FD21FB21FB21FC21DC21DA1997E3
:101CF000193874FFF71BB6F4297811DC19DC21DBE5
:101D000021DB21DB21FC21DD19BB197811163238CA
:101D10007CBCCEFFF7FFFFFFEFFFF7FFFFBDF7082B
:101D20009C86C444BCC79349734BCEC5C44783103B
:101D3000A589BD67F784DE65FF26ADD9D6FFF7FF1D
:101D4000EFFFEFFFEFFFEFFFEFFFEFFFEFFFEFFF23
:101D5000EFFFEFFFEFFFEFFFFFFFEFFFFFFFEFFFF3
:101D6000EFFFEFFFEFFFEFFFEFFFEFFFEFFFEFFF03
:101D7000F7FFEFFFEF9DEF4AD6A7FFC4C4E4A3B17E
:101D800094CAB4A4DD448BAE9CC78BE4CCC1B3E54C
:101D9000C46A9CF5B5FFF7FFFFFFFF7EE7F8949656
:101DA0003A97199A21FC21FD21FC21FB21FB21FC02
:101DB00021FC21DC21DC21DC21B811B65B36329A12
:101DC00021BB21DB21DB21DB21DB21DC21BB21DB72
:101DD00021DC21DC21BB217911F621D7631BB6FF61
:101DE000F7FFFFFFF7FFF79DEFB4CE34DFABA4A4FE
:101DF000AC73EF099C897BB4AD6BBD66DEC4C54492
:101E0000F724DE6CBDDFEFFFEFFFEFFFEFFFEFFF2B
:101E1000EFFFEFFFEFFFEFFFEFFFEFFFEFFFEFFF52
:101E2000FFFFEFFFFFFFEFFFEFFFEFFFEFFFEFFF22
:101E3000EFFFEFFFEFFFEFFFF7FFEFFFF7B7D687FB
:101E4000D687F784C485AC908CA99363A3AAA48990
:101E5000DEA2C4E29AA99BF5CDDEEFFFFFFFFF3DB6
:101E6000DFD88C553A5719BA19FC21DB21FB21FC2C
:101E700021FC21FC211C22FC21FC21FC21DC21DB9A
:101E800029DB21B919DB19FC21BB21BA21BB21DCDB
:101E900021DC21DC21DC21DB21DB21BB21DB21DC7E
:101EA00021DB219A199719164B398DDDC67EDFBECD
:101EB000EF0EA5B0B54EA5E9FF8BADCD7BF5BD739B
:101EC000A569C5A5EE06EF83CD05CEB1BDFFFFFF29
:101ED000EFFFEFFFEFFFEFFFEFFFEFFFEFFFEFFF92
:101EE000EFFFEFFFEFFFEFFFFFFFEFFFFFFFEFFF62
:101EF000EFFFEFFFEFFFEFFFEFFFF7FFEFFFEFFF6A
:101F0000F7FFEFFFF732CEE8EE46DEA4C485B4B0AB
:101F10009CEAAB298BE983E5E645BD6618D373DE01
:101F2000CE3CBE199DD76B36329819BB21DC21FC03
:101F300021DC29DC29FC21FC21FC21FC21FC21FCE9
:101F400029FB21DA21FB21DB21DB21DC219919D9B5
:101F500021DB21DB21DB21DB21DC21DB21DB21FB80
:101F600021DB21DC21DC29DC29DC21FC21DB21999E
:101F7000117811D7215732B742F4299619CA4AE786
:101F8000FFC89C694A95B595A517E7C3BCE3D5A6DC
:101F9000E665D6D1BDFFF7FFEFFFEFFFEFFFEFFFE5
:101FA000EFFFEFFFEFFFEFFFEFFFEFFFEFFFEFFFC1
:101FB000FFFFEFFFFFFFEFFFEFFFEFFFEFFFEFFF91
:101FC000EFFFF7FFEFFFEFFFEFFFEFFFFFF1C5C8F8
:101FD000EE03EEC3DD28C572BDE692A351C56AC506
:101FE000EE49CEB429B919D721D8199919BB21DCEA
:101FF00021FC21FC21DB21DB21DB21FB21FC29FC55
:10200000211C221C2AFB21FB21DB21DA21DB29DB1D
:10201000299921113AAF7B113ABA21DC21DC21DC6C
:1020200021FC29DB21DB21FC21FC21DC21DB21FC43
:1020300029FC21FC21FD29FD21DD29DD21BC21DB3D
:10204000191D229C110D74E6FF689C274AEC7B90B9
:102050008439E746C524DEE4BCE4C4CCA4FFF7FF22
:10206000EFFFEFFFEFFFEFFFEFFFEFFFEFFFEFFF00
:10207000EFFFEFFFEFFFEFFFFFFFEFFFFFFFEFFFD0
:10208000EFFFEFFFEFFFEFFFEFFFEFFFEFFFEFFFE0
:10209000EFFFF7FFFFF2BDA8DE84D527F708BD0CE0
:1020A000C5449B2CAC4B9C64DE09EF3142DC211D06
:1020B0002A3C22FD21FC21FC21FC21FC21FC21FCED
:1020C00021FB21FC29FC291B221C22FC29FB211BB2
:1020D00022DB21DB29DC21BB21AF52A7DEC8FF4F69
:1020E0006B7921DB21FB21FC21FB21FB21FC21FC65
:1020F00021FC21DC21FB21FC21FC21FC21FC29FC11
:1021000021FC21FD21FD211D221D2299190C9DC4B8
:10211000FF50CE3DDF2E7C4C634D8C43CDE2DD4243
:10212000BC87B4B6D6B6D6DFEFFFF7FFEFFFEFFF01
:10213000EFFFEFFFEFFFEFFFEFFFEFFFEFFFEFFF2F
:10214000FFFFEFFFFFFFEFFFEFFFEFFFEFFFEFFFFF
:10215000EFFFEFFFEFFFEFFFF7FDEF9CEF75CE888E
:10216000D6649C66BD499CE6D4C6C48A834E9C490D
:10217000D6C7FFED5ABB211C2A1C22FC21FC21FCE6
:1021800021FC21FC21FC21FC21DB21FC21FC29FB81
:10219000211C22FC29FC291B2A1C22D6219342AF98
:1021A0003187B5E4FF85FF8B9CD129343A7721FC38
:1021B00029FC21DC21DC29FC21BC21DA211B2AFCA1
:1021C00029DB21FC211C22FC21FC211C2A1D2A1DAB
:1021D000221D22B521AAB5C5FFE7AC9BF7349D9619
:1021E0009DCDC506EF06DE64A38ECDB3FF449CFAF9
:1021F000D6FFEFFFEFFFEFFFEFFFEFFFEFFFEFFF88
:10220000EFFFEFFFEFFFEFFFFFFFEFFFFFFFEFFF3E
:10221000EFFFEFFFEFFFEFFFEFFFEFFFEFFFEFFF4E
:10222000F793D60DCE75CECADE65CDC2728E9406FA
:10223000D5A07A6F9C98DEA7C5E5FFAA739B19FC11
:1022400029FC29FC21FC21FC21FC21DC21DB21FCD7
:1022500021FC21D821D531DB213C221C2A1C2A1B40
:102260002A1B22B421699C06D623EFE3FFA4EE06C5
:10227000B5AA9C4F42BA21DC29FD291C22FB29DB8F
:1022800021F439343ADB21DC29FB29DB29FC21FC50
:1022900029FC21FC291D2A1D2A1D22122AA9D62526
:1022A000E785BD4ADE51A5AD8C2BE7C7F7E5E6868D
:1022B0008B34CE08B5679C3CDFFFF7FFEFFFEFFFE5
:1022C000EFFFEFFFEFFFEFFFEFFFEFFFEFFFEFFF9E
:1022D000FFFFEFFFFFFFEFFFEFFFEFFFEFFFEFFF6E
:1022E000EFFFEFFFEFFFEFFFF738DFCDBD96CE4CEE
:1022F000CE25DE48EF2594849B2BBDF8DE4AB5241D
:10230000D6E3FFC99C7919FC29FB29FB29FC21FC98
:1023100021FC21FC21FC21FB21FC21B5211184F4AD
:1023200052DB191D2A1C2A1C2AFC299921C98B63FE
:10233000FFE4FF63F7A2E6E8FFE8B47521FC21FCA7
:1023400029FC29FC29DC29B4210DA5335B9C21DC67
:1023500029FC29FC29DC21DC21DC21FC291C221D93
:102360002AFE21904289F704EFC3C507F7C5934AB7
:10237000DEA8F746EF05EF87BD90BD2131A852DFFB
:10238000EFFFF7FFEFFFEFFFEFFFEFFFEFFFEFFFD5
:10239000EFFFEFFFEFFFEFFFFFFFEFFFFFFFEFFFAD
:1023A000EFFFEFFFEFFFEFFFEFFFF7FFEFFFF79D0F
:1023B000E7F09475CEB7CE2CC6A6C589FF05F7C247
:1023C0007A51B5CFBD26EFA4EEE2FFC9BD9529FC39
:1023D00029FB29FB29FB21DB21DB21FC21DB21DB84
:1023E00021FC21B9192F7CCDE65342DC211C2A1D8A
:1023F0002A1D2A9821E9A4C3F6E6FFE3EEA2FFE333
:10240000FF08C5F729FC19FC21FC29DD299621ECE0
:1024100094EDEE123ADD21DB29FE291D221C22FC5F
:1024200021FC21FC291C221D2ABD210E53C6FF645C
:10243000FF48F785C5A2AB46C5A9F7A5E627F7C7AC
:10244000C56FB548B54DC6BDDFFFF7FFEFFFEFFF26
:10245000EFFFEFFFEFFFEFFFEFFFEFFFEFFFEFFF0C
:10246000FFFFEFFFFFFFEFFFEFFFEFFFEFFFEFFFDC
:10247000EFFFEFFFEFFFF7BCE72BC6C9C56B9C4B27
:10248000BDC9CDEBEE22EEA5D5C88B48D666FF823E
:10249000B463FFA8DE123AFC29FC29FC29FC21FBCD
:1024A00021DB21FC29DB21DB21FB21DC21703AC867
:1024B000FF6DD674421B22FC211C2AB8192AAD25B7
:1024C000FFC7FFA3EEE2FF82FF09CDD629DC211B67
:1024D00022FD29D821CE6BEAFF6BB575211D2A1C80
:1024E0002A1D221D221D2AFC29DC21FC211C221D63
:1024F00022BC21ED73E5FF64E6C7CD24ACA3A3EABB
:10250000E667EF85DEC9FFA6CDC38B86FFE6C5561D
:10251000BEFFF7FFEFFFEFFFEFFFEFFFEFFFEFFF74
:10252000EFFFEFFFEFFFEFFFFFFFEFFFFFFFEFFF1B
:10253000EFFFEFFFEFFFEFFFEFFFEFFFF7FFF79C7E
:10254000E769D664FFE6BCE161E6A4EEFF23D5E6C9
:10255000FE85ACC7E624D561A324F7A7FFAE52FCE5
:10256000211C2ADB21FB21FB21FB21FC299B219A39
:1025700019FB21FC21B321ABBD2ADE2E4AD9211C37
:1025800022FC21DA192E63CBEEA8FF24F784FF2565
:10259000E64B739819DC21FC21FC297619286BA7DE
:1025A000CD306B9921FC29D9291532D929FD29DC97
:1025B00029DC21FC21FD211D22BA19CC8CE4FFAAC3
:1025C000DE34CE047BE6ACCBFF87F7E5EE06EFC446
:1025D000B483ACC5EE46DE46945BDFFFF7FFEFFF4A
:1025E000EFFFEFFFEFFFEFFFEFFFEFFFEFFFEFFF7B
:1025F000FFFFEFFFFFFFEFFFEFFFEFFFEFFFEFFF4B
:10260000EFFFEFFFF7FFEF9DE7CBDEE3F645F603C5
:10261000A4C59C6CF7E6E5E6F6C5DEE5B463C4C484
:10262000E5C5EEE5FF4B6BDB191B2AFB21FB21FB0C
:1026300021FB29B821B1521063B821FC21F8298F60
:1026400031AD7B2F639A191C2AFC211C229521A8ED
:102650005A05B544B503BD84938F29DB21DC21DC09
:1026600021DC21B52971942B4A76211C2ADA29AF65
:10267000520DCE8D94B629DC29DC29FC29FC211EC3
:1026800022D7216AA5E3FFECDEBDEF73ADA8734A44
:10269000EF85E645F7E6EEE08268E664DE64DE8C10
:1026A000B5BEE7FFF7FFEFFFEFFFEFFFEFFFEFFF35
:1026B000EFFFEFFFEFFFEFFFFFFFEFFFFFFFEFFF8A
:1026C000EFFFEFFFEFFFEFFFEFFFF7FFEFFFEFFF92
:1026D000EFCED6A3E583ED06DE46B5CDFFA5CDC38F
:1026E000D586EEA4BCE6E5C7B4E9E6E3FF4A9479F3
:1026F00021DB29FB21FB29FC21BA21CE52EAEE8AFB
:10270000EE10639919FC297A191132D29C1532DC2A
:1027100021FB21FC21BC212E4A86B484CD05E6A8EC
:10272000B4D431DB21DB21FB21BA19716311845749
:1027300019DB29FB29133A6CD683E647FFED839911
:1027400029DC29FD291C221E22132A6AC6E4FF2443
:10275000DE6CCEFCF738DF08E725D666F785EE831A
:10276000BC23C505D6E5D591BDFFFFFFEFFFEFFF09
:10277000EFFFEFFFEFFFEFFFEFFFEFFFEFFFEFFFE9
:10278000FFFFEFFFFFFFEFFFEFFFEFFFEFFFEFFFB9
:10279000EFFFEFFFEFFFEFFFF7D2D605DE03DD859A
:1027A000CC037BECFFA6DE43B585EEA3CC48C58FFA
:1027B000BDA7E6E3FF49B57629BC29FB291B22FC0E
:1027C0002114322AD6E1E563E62DE7714A79191D15
:1027D00022BA19906BF2739A19FB21FA19FB21F1B5
:1027E0004146B4A2DD44F667A4F529DC21DB21DCF7
:1027F00021142AB1943242FD21FA21D2314BA5E8AD
:10280000FF62E660CD2ADEF539DC211D2A1D2A1E75
:1028100022913A49E7E4FFA3F667DE57DF10E7C9E4
:10282000F726EFA5E6A5C5A5ACE2B3A2B444C5283A
:10283000B595E7FFEFFFEFFFEFFFEFFFEFFFEFFFD4
:10284000EFFFEFFFEFFFEFFFFFFFEFFFFFFFEFFFF8
:10285000EFFFEFFFEFFFEFFFEFFFEFFFF75CE71397
:102860009596CE08D621C4A4CBE27128D647F704AA
:10287000E686F645B4ECAC2BCE85DEE3FF29CED25E
:1028800031FC29FB291C22FB19904AA7DDC2E5A2D5
:10289000FFE5FF8ADEEE5A7719DD21D32992949560
:1028A00042DC21FB21FB21D33106A483D5E5E508D9
:1028B0009CD721FC19DC219B19926BD07B7A21DA01
:1028C0001951426ABD45F7E3FFE6FF06DE4973B7DB
:1028D00029FD291C2A3D2AFE21F04AA7F7E3FF83A0
:1028E000EEE6CD51C60DDF07F706F784C5076B345A
:1028F000CE65BC47DE27EFE8FFABCE3BDFFFF7FF3F
:10290000EFFFEFFFEFFFEFFFEFFFEFFFEFFFEFFF57
:10291000FFFFEFFFFFFFEFFFEFFFEFFFEFFFEFFF27
:10292000EFFFEFFFF7BCF7CBBDA69CA5A4E5CC223B
:10293000B3A5B3C36A2AF7A3DDA5EEA78B6CB528B0
:10294000FF44DEE3FF26EF4F4ADC211C2AFC291C52
:102950002AD6292C4248B5C6FF43FF03E6C9EE2F0D
:102960008496219A21115B7384D821FD29FB21F4DF
:10297000296683E4BCE4C44883B821FC21FB21130D
:10298000329194143A9919D052ACDE45FF80D5E5C6
:10299000F6A9A40F427621DC29FD29FC291D2ADC99
:1029A00021AF6BE5FFA4FF23C5C5E6E7E6CBBD85F8
:1029B000D5A4E5E5BC2C94D1A4648B29EFE9FF47AD
:1029C000F707AD5CE7FFF7FFEFFFEFFFEFFFEFFF6C
:1029D000EFFFEFFFEFFFEFFFFFFFEFFFFFFFEFFF67
:1029E000EFFFEFFFEFFFEFFFEFFFEFFFF79CEF6A67
:1029F000D6C6FFA5BD04AC04D405BC444AA9BDC4D9
:102A0000D585DDC69367DEA5F624DEE4FFC5FFEDC0
:102A100062BC211C2AFB29FC293C22D9195319AB81
:102A200052A5CD22EEE3FFE8FF2EA5F531951992D0
:102A30008C135BBC29FB29D229C69302BD44C54730
:102A400083B721DC299819D1738F733411CF734A5E
:102A5000EFE4FFE3FF86EE887B3219DC211C2ADCE1
:102A600029FC29FC291D2ABA216E8CE5FF64FF038D
:102A7000BD23D6E5EE71CE2CBDC09A0AA4CFA446E4
:102A80007B0CEFCCFFC6E6A5EE06BDB7D6FFF7FF81
:102A9000EFFFEFFFEFFFEFFFEFFFEFFFEFFFEFFFC6
:102AA000FFFFEFFFFFFFEFFFEFFFEFFFEFFFEFFF96
:102AB000EFFFEFFFEF9DE74BD6E6FFE7FF65C5E1D0
:102AC0006985AC0A842A84E5DDA3C3E693A7FFA544
:102AD000EE23BDA5FFE3FF0C8C9B211C2AFB211BD1
:102AE00022FB211C221C229719EB3908CEE4FFE1BE
:102AF000FFE6FF8DCE914A2E3A9394B731FC29B46C
:102B00002109CEE4FFE6FF09AD7619DC21534270BE
:102B10009C8D316E8CE9FFE3FFE3FF46EF2B63757D
:102B2000191C2AFC21FC29FC29FC29FC291E2AB895
:102B3000210B9DE5FF45F704D6E3D5A5C599E775BB
:102B4000CEEAA394BD8C6B0FBE8BF7CCFFE4CD25F2
:102B5000E6269CF9D6FFF7FFEFFFEFFFEFFFEFFF51
:102B6000EFFFEFFFEFFFEFFFFFFFEFFFFFFFEFFFD5
:102B7000EFFFEFFFEFFFEFFFEFFFF7FFEFBEE72DF8
:102B8000CE67F7C6F646FF66A410AD0894A3494683
:102B9000C5E3B3A6A4A9FF84CD23E665F7E2FF0B46
:102BA000A59721FB29FB29FC21FD291C2AFB21DCFF
:102BB000299919B02908ADE4FFE1FFE4FF4AEF4B82
:102BC0006BAA7B736B9A21B72187B5E2FFE4FFCA3A
:102BD000A49819B9211184C8832AADE8FFE2FFE364
:102BE000FFE8E66D4A99191D32FC29FC21FC291DDC
:102BF0002A1D321C2A1E2AF5292AC6E4FF85DEE298
:102C0000B485FF82ACD6D6B3BDEC8B0B5B99CE50AE
:102C1000D629E749F707F7A4CDB1BDFFF7FFEFFFCE
:102C2000EFFFEFFFEFFFEFFFEFFFEFFFEFFFEFFF34
:102C3000FFFFEFFFFFFFEFFFEFFFEFFFEFFFEFFF04
:102C4000F7FFEFFFEFDFEFB2D6CBFF25E6A3E5C539
:102C5000E5B0B54DD6E3720794C7AC05B544C504DD
:102C6000DE03E626EFE3FFE9C5B3311C22FB21FCBE
:102C700029FD291C2AFB29FB211C22DC2151194892
:102C80008CE6FFE2FFE3FFC9FF66BDCBA4163A78EE
:102C90002107A5E3FFE4FFCA9C7921544269C526B8
:102CA000DEC6FFE2FFE4FF69D60E4299191D2A1D18
:102CB000321C2AFC291C2AFC291D32FD29FD29323F
:102CC0003A09DFE4FF07EFA7AC24C564D52AD60E86
:102CD000A5EA623CE7B8F7CAE6ECFF65E604EEA3B6
:102CE000BC4FB5FFF7FFEFFFEFFFEFFFEFFFEFFF89
:102CF000EFFFEFFFEFFFEFFFFFFFEFFFFFFFEFFF44
:102D0000EFFFEFFFEFFFEFFFEFFFEFFFEFFFF776D4
:102D1000CE0CE789FF04CD64E5EEC5AFBD46BD2608
:102D2000A4E47A44C5A4DDC7EEC69C09DFE4FF082D
:102D3000EF3042DC291B2A1C2AFB29FB21FC21FC49
:102D400021FC21FC291C2275116A6B67EFE3FF62ED
:102D5000EEA6EE09EF2F6B3511E99CE4FFE5FFAB22
:102D6000943219ED7BA9FFA4EEA1DDA5FFC9C5AF83
:102D7000319B213D2A1C2A1D2A1D2A1C2A1D2AFCA2
:102D8000291D2AFD29DC21904A67F7E3FFA6E6AF5B
:102D9000D6B2BD469366CD6FA5359DFFFFD0D6CA8E
:102DA000FF48F7A6EEE4DD69A4FAD6FFF7FFF7FFC8
:102DB000EFFFEFFFEFFFEFFFEFFFEFFFEFFFEFFFA3
:102DC000FFFFEFFFFFFFEFFFEFFFEFFFEFFFEFFF73
:102DD000EFFFEFFFEFFFEF7DEFCCB569F725E6A240
:102DE000D48AD5ABC5A6EE05DE018B44E6C6E6ADBA
:102DF000B519DFCDF7E3FFA5FFCE5ABC211B2A1C76
:102E00002AFC29FB21FC21DC21FC21FB291C22FDC1
:102E1000215719CB5267DE43EE43F7E6FFCBDECDF9
:102E20005A478CE4FFE4FF47948B6BABF7E4FF83D6
:102E3000FF85EEC9B47031BB213C2A1C2A1C2A1B19
:102E40002AFC291D2A1C22FC291C2AFC29DB216FB3
:102E50006BE7FFE4FF42BD25BD6CAD919CE7934B52
:102E60009437BE37C68A9C27DEC3B4A1ABC49B7A15
:102E7000E7FFF7FFEFFFEFFFEFFFEFFFEFFFEFFFE2
:102E8000EFFFEFFFEFFFEFFFFFFFEFFFFFFFEFFFB2
:102E9000EFFFEFFFEFFFEFFFEFFFEFFFEFFFEFFFC2
:102EA000F7F9D68BCE27FFE3CC63C4C6B428F74529
:102EB000FFE4C487E6AAB590B517E74EE7E4FFE460
:102EC000FFCD73BB211C2AFC29FC291B2A1C22FBD9
:102ED00021FB29FB21FC21FC211C22B7212D42884A
:102EE000B5E5FFE1FFE5FF8AFFE6CDA5FF85FF67BA
:102EF000DEC9FFE4FFE2FFE8FF6A947029DA29FDEA
:102F000029DC21DC29FC291C2AFB31FB29FB31FCB3
:102F100031FC311C2AB9212E84E6FFE2FFABDE0B27
:102F200094A018EF7390BD03628D7B10A5CCBDE318
:102F3000B4C8E6249C8F9CFFEFFFF7FFEFFFEFFF85
:102F4000EFFFEFFFEFFFEFFFEFFFEFFFEFFFEFFF11
:102F5000FFFFEFFFFFFFEFFFEFFFEFFFEFFFEFFFE1
:102F6000EFFFEFFFEFFFEFFFEFFFFFF3BDE493E7AE
:102F7000D526EEA5B4E7F663F6A4D5638B4EAD2B4C
:102F8000AD32CE50E7E4FFE3FFAC94B829FB29FB58
:102F9000291B2A1C2A1C2ADC29FC299921D4311539
:102FA00032D9211D2ABA21AF29A49CA4FF82FFA4F3
:102FB000FFC8FFA5E606F7E7FF83FF83FF65F7E796
:102FC000933129FB291B2AF629F152D05AF631DC1C
:102FD00029FC31FB31FB31FB311C321C2AD729CEB5
:102FE0009CE6FFE2FFD1EFBEEF0E9D0F950B8C0923
:102FF0007B1DE777EF2AEF69F7E7FF07CEFBD6FFE8
:10300000FFFFF7FFEFFFEFFFEFFFEFFFEFFFEFFF38
:10301000EFFFEFFFEFFFEFFFFFFFEFFFFFFFEFFF20
:10302000EFFFEFFFEFFFEFFFEFFFEFFFEFFFEFFF30
:10303000EFFFF798D607AD24B583A404A485E62353
:10304000E6A5E6689C91CE5ADFDEEF92EFE4FFE35F
:10305000FF8ABDB431FC291B2A3B2AFB29FB29FB33
:103060002997312E73ABC52BCE506BBA211D22721E
:1030700042E7ACA3EEA2F6A2EEE3EE84E6C5F6E3E9
:10308000EEA2EEC3F684EE89D5F162DC29B929EE11
:103090008347F767F78CBD554ADC29FB21FA29FBEA
:1030A000291C2AFD29D4310CC6E5FFE3FF2AC62FCF
:1030B000C6ABFF74EF8E946E8C36DFAEDEEBFF870F
:1030C000F784E647B53ADF56CEDDEFFFEFFFEFFFBF
:1030D000EFFFEFFFEFFFEFFFEFFFEFFFEFFFEFFF80
:1030E000FFFFEFFFFFFFEFFFEFFFEFFFEFFFEFFF50
:1030F000EFFFEFFFEFFFEFFFF7FFFF3ADFC8DEA6BE
:10310000FF08E7049425B5C7EEE3B48FB534C67362
:10311000ADFFF7B5E7C5FFE4FFC8E6103AFC291C90
:103120002AFC29FC311B2AB921EF6228FFE5FFE4C4
:10313000FF68DE324276196A9CE5FFE5FFC4FFE4D2
:10314000FFC5FFC5F6A4EEC6FFC5FFC5FFE5FFE559
:10315000FF69C5D339504AA8E6E3FF03F745FF8C62
:10316000A49829DB29DB29FB291C32DE313232E924
:10317000D6E4FFE3FF22A4A5C5E7FF8EF7D1BD2B60
:103180007C8DEFABFFCCFF65E6C6EE46C54ABDE5DC
:10319000AC93B5FFF7FFEFFFEFFFEFFFEFFFEFFFA0
:1031A000EFFFEFFFEFFFEFFFFFFFEFFFFFFFEFFF8F
:1031B000EFFFEFFFEFFFEFFFEFFFEFFFEFFFF71284
:1031C000CE95D67DE72AD6A5E6C6E6A8EE26BDA50D
:1031D000ACE6B494CE2FD626AD78C6B7EF85F7E32C
:1031E000FF65F78F4ABC21DC29FB29FB29FC21D68E
:1031F00021CBAC44E6A0B4C3E6C6FF69BD499C0739
:10320000F7E4FFE2FFE2FFE3FFC3EE44C544BD8401
:10321000DEA4FFE3FFE3FFE2FF65FFA8CD08D6E4ED
:10322000FF23F700A4A2CD08DEF439DC29FB29FB3B
:10323000291C32DD29914248E7E4FFA3FFE2BC8765
:10324000E646F768F70FBE0F95CFF7ABFF8BF76336
:10325000CD05E68182E27206BDB3B5FFF7FFEFFF51
:10326000EFFFEFFFEFFFEFFFEFFFEFFFEFFFEFFFEE
:10327000FFFFEFFFFFFFEFFFEFFFEFFFEFFFEFFFBE
:10328000EFFFEFFFEFBEEF2DBD289C1CE7CEC5A8DA
:10329000E626DEC4D586DE027325BD4DB587E6473A
:1032A000FF2984F5D6A8FFE3FFE3FF4E739A21FCC4
:1032B00029FB29FB29DC21D531A9C5E4F6A0AC24E2
:1032C000EFE3FFC4FFC4FFE3FFE3FFE3FFE3FFE43B
:1032D000EE24DEE29BA28BA5CDA3EEE3FFE3FFE2AB
:1032E000FFE3FFE4FFE3FFE4FF84FF23DE04EF27B7
:1032F000E61442DC21DC29FB31DB29DB214F63E7CB
:10330000FFE3FF64F783CD07EF23C629E78EBDF007
:103310009CEFE6CDFF49EF26F7C3C40FB52339C4B0
:10332000397DE7FFF7FFEFFFEFFFEFFFEFFFEFFF65
:10333000EFFFEFFFEFFFEFFFFFFFEFFFFFFFEFFFFD
:10334000EFFFEFFFEFFFEFFFEFFFEFFFEFFFF7FE06
:10335000FF56CE70ADF1BDACD6ACFF26E688FFC6F9
:10336000ACA8ACA7AC86E685F6C48B0E95ECFFE363
:10337000FFE3FF4C8C77291C2A1B2AFB29DD2996A9
:103380002947B5E4FFE5FFE3FFE2FFE3FFE3FFE2E8
:10339000FFE3FFE3FFE3FF84F741AC61936193C078
:1033A0009B03F7E4FFE3FFE3FFE3FFE3FFE3FFE457
:1033B000FF84FFA4FFE5FFA8D5D431DC21DC29DCA4
:1033C00031DB29BA21EE7BE7FFE4FF45F761AC056D
:1033D000D667F76AF7C37229B58EF70BEFC5D5A389
:1033E000E503BCEFCD8B9C36BEFFEFFFEFFFEFFF99
:1033F000EFFFEFFFEFFFEFFFEFFFEFFFEFFFEFFF5D
:10340000FFFFEFFFFFFFEFFFEFFFEFFFEFFFEFFF2C
:10341000EFFFEFFFF71BD758C695CE07AD8FB5ADC1
:10342000B5EBE688E646DEA8EE069425A4A4DD8288
:10343000DDC8D5A77B4BF7E3FFE3FF4AB59531FD28
:10344000291B2A1B2AFB217621EA83C5FF63DE2282
:10345000C563F7E3FFE3FFE3FFE3FFE2FFE3FF659D
:10346000F762A4A3BC85D562AC25F7E4FFE3FFE3D4
:10347000FFE4FFE4FFE3FFA4FFC1B4E1B4A6FFABA8
:10348000AC9629FC29FC291C2A1C2AB721AD94E6FC
:10349000FFE3FF26F7E2A365CDC7E6E7AC2B8CCBB5
:1034A000EEECFF69E661CCA1CC48DE86D648EF2E73
:1034B000E79CE7FFF7FFEFFFEFFFEFFFEFFFEFFF07
:1034C000EFFFEFFFEFFFEFFFFFFFEFFFFFFFEFFF6C
:1034D000EFFFEFFFEFFFEFFFEFFFF7FFF71BDF69F6
:1034E0009C47B5068C289C48948CDE4BF724DEA6BE
:1034F000F6C6C5015287F600ACA9E6E49309D6E406
:10350000FFE2FF68D6F239FC291B2ADB29FB29D907
:10351000198F4A26F7C2D5009C44F7E4FFE3FFE386
:10352000FFE3FFE3FF84DE41A463C564CD24CD64E3
:10353000C5219C23CEE4FFE3FFE4FFE5FFE4FFE5C4
:10354000FFE3CDE3CD28FFD062BA21FB29FB29FCA4
:10355000291D2AD429CBBDE6FFE3FFA6EE629BC658
:10356000DDA8E6E983FBD6EBE669F7E4BC86CD0689
:10357000D667EF86F7A7FFEABD7DE7FFF7FFEFFF0E
:10358000EFFFEFFFEFFFEFFFEFFFEFFFEFFFEFFFCB
:10359000FFFFEFFFFFFFEFFFEFFFEFFFEFFFEFFF9B
:1035A000EFFFEFFFE7FFEF50D625E6EBFF0BE74518
:1035B0009C447BABFF26F7E3E567F7826285D52560
:1035C000DE08EF87BD2ACEE5FFE3FF06EF5042DCC1
:1035D000211B2AFB31DB29FB21D42108B5A4FFA440
:1035E000FFC4FFC4FFE3FFE3FFE3FFC3FFC4C5A6BF
:1035F000E6E5D584C5C4B446DEA6DEE4CDE4E6E463
:10360000FFE3FFE3FFC3FF24F7C5FFE5FF29C594F0
:1036100029DC29FC31DB29FC291D2AF23189D6E578
:10362000FFE3FFA6EE228B23A46BB52E7CD4D6C677
:10363000DE44D522B4AAFFEAFF47F7A6EEE4CD1395
:10364000C6FFFFFFEFFFEFFFEFFFEFFFEFFFEFFF23
:10365000EFFFEFFFEFFFEFFFFFFFEFFFFFFFEFFFDA
:10366000EFFFEFFFEFFFEFFFEFFFE7FFE7FFF7B43D
:10367000DE85D5C3DD68F7EBFFA6A4839C86DE4517
:10368000D5C8FE457BE182E7FEA5F6C9BDEECEE4D6
:10369000FFE2FFA4FF0E63BA19FB29FA29FA29FBFE
:1036A00021DB214D52E4EEA4FF22BDE3CDC3FFE3B5
:1036B000FFE3FFC4FF83C543C564DE62BD84CD451F
:1036C000DE26D622BD44EFE3FFE2FFE3FF82E6E021
:1036D000A383E605F78B5A9A21FD29FB29FB31FCD0
:1036E00029FD29724228E7E5FFE3FFA7E66AA4E87F
:1036F0008B71ADD5A5CCDE86FF62C404CDA8FFE7F3
:10370000E6E2BCC3F685EEEDAC9EEFFFF7FFEFFF00
:10371000EFFFEFFFEFFFEFFFEFFFEFFFEFFFEFFF39
:10372000FFFFEFFFFFFFEFFFEFFFEFFFEFFFEFFF09
:10373000F7FFF7FFEFFFF75AE789CD63C4C3C4C5AE
:10374000FFE8FFE5ACE5BC84DD05CDE693A46A2285
:10375000B465EE4EC6B3E7C5FFE4FFE3FFEC7B992B
:1037600019FC29FA211B22DB21B6198C4A06D60541
:10377000FFA2B4C2CDE4FFE4FFE4FFE4FF85FF2332
:10378000F7E5FF04D623BDA5FFA4FF44F7E4FFE25D
:10379000FFE2FFE3FF03EF62CD22E6A6F6CBAC73B8
:1037A00042D829FB291C2AFC29DC293063E7FFE3E6
:1037B000FFE3FF44F74EEF8D944B73D09C48BD451B
:1037C000D5A4B4A9DEA8DE63BD85E644E624C52DF4
:1037D000ADBFE7FFEFFFEFFFEFFFEFFFEFFFEFFF03
:1037E000EFFFEFFFEFFFEFFFFFFFEFFFFFFFEFFF49
:1037F000EFFFEFFFEFFFEFFFEFFFEFFFF7FFEFDE72
:10380000EF4DD624E604CD65E645F707EF85A4869F
:10381000EEC2A349A4AEA4419368E6D5D674EF8660
:10382000FFE4FFE4FFCA9C9521FD291C22D8215208
:103830003AED838BDE24E622EE24FFE4FFE3FFE48F
:10384000FFE4FFE5FFA4E603D6E6FF43DE21BDE685
:10385000FF83DEA3C5C4FFE3FFE3FFE3FFE3FF84D1
:10386000FF23F6A3E529FFEACD8F9C343ADA21FD48
:1038700029BA29CE73E7FFE3FFE3FFC4E627B5EFDC
:1038800094C962AC8351CEC5C449F7EDFF66BD054E
:10389000EF26F7069CD5BDDEEFFFF7FFEFFFEFFF4A
:1038A000EFFFEFFFEFFFEFFFEFFFEFFFEFFFEFFFA8
:1038B000FFFFEFFFFFFFEFFFEFFFEFFFEFFFEFFF78
:1038C000EFFFEFFFEFFFEFFFF7F7DEA6C5C5F6242A
:1038D000E6A4E6E8FF26B524C5E7F5A482A46A8637
:1038E000B4A6B4F7D676E7A7F7E3FFE3FFE9CDB3D5
:1038F00031FC29F72150634DD60AF724E683DD21F8
:10390000D583F683FFE3FFE3FFE3FF45F7E2B4214E
:10391000A4C5EE03D6E2D5C5EE44C562AC44DEE3F1
:10392000FFE3FFE3FF85FF85F6A3DD62D582D5C502
:10393000EEEBFF0CCE3063D929D7298D8CE7FFE35E
:10394000FFE4FFA4A40008939495B5FBDE37EF06CF
:10395000CD89FF28EF84E6C4E5E2D48AACFFF7FF07
:10396000EFFFEFFFEFFFEFFFEFFFEFFFEFFFEFFFE7
:10397000EFFFEFFFEFFFEFFFFFFFEFFFFFFFEFFFB7
:10398000EFFFEFFFEFFFEFFFEFFFEFFFEFFFEFFFC7
:10399000F7FFF752C6E7E6E6FF25F724DE66D622F4
:1039A0005A25CC64A3A68386AC67B453CEB8EFA9DE
:1039B000F7E4FFE3FFC7E6113ABA210F7C6CF7E9A1
:1039C000FFE6FFC1CD82CD47E6C68BC8AC46FFC33C
:1039D000FFE4FF44F782C525E6A1D503EFA4FFC1AC
:1039E000D504E683CD63E6E4FFE3FF24F708BD4793
:1039F0005A08B525E661CDA4FFE5FFE8FF0CEF15F9
:103A00005B9421ABBDE6FFE3FFA4FF4AD62C8452B2
:103A1000A555A536CE47A4C7D527DEE6FE45EE85DB
:103A200093099CD1C5DEEFFFF7FFEFFFEFFFEFFF3C
:103A3000EFFFEFFFEFFFEFFFEFFFEFFFEFFFEFFF16
:103A4000FFFFEFFFFFFFEFFFEFFFEFFFEFFFEFFFE6
:103A5000EFFFEFFFEFFFEFFFF7FFEFFFEF50CEE6D7
:103A6000CD25FF24DEC5D5855A09A44ADD74CEA72D
:103A7000AC4BA49EEFFBF78AF7E4FFE3FF85FFB0B2
:103A800052D6316CDEE6FFE4FFC3FFC4FF65E6C833
:103A90008B32198F21A5A4A4EE44F7E4FF04EF02B2
:103AA000D624F7E3FFE3FFC4FF82E6A4EEE5FF447C
:103AB000FF43EE85D5EB415819CD3147BDC6FFE335
:103AC000FFC2FFE4FF69FF926BB22949CEE5FFE236
:103AD000FF64F7A5DE2BE74A840A5B096BA7ACC835
:103AE000F683C4A2A3238B2EADBBE7FFF7FFEFFF46
:103AF000EFFFEFFFEFFFF7FFEFFFEFFFEFFFEFFF4E
:103B0000EFFFEFFFEFFFEFFFFFFFEFFFFFFFEFFF25
:103B1000EFFFEFFFEFFFEFFFEFFFEFFFEFFFEFFF35
:103B2000F7FFEFFFEFDFF775CE8AC5E6E604EE8418
:103B30007AB0940BBD4DB528BDC36AEC9CD8D68D28
:103B4000F7E4FFE2FFE4FF8E6B742186A483FFC3DA
:103B5000FFE3FFE7FFEAB49029DB1933328AC5C4DB
:103B6000DDA3DD04DEC5EE65FF64FF24FF04F76519
:103B7000FF45FF87EEC4CDC3DD44D547EE0F94BAB1
:103B800029DA216D5247D6E4FFE3FF84FFA5DD8EDD
:103B900052513AE9E6E4FFE2FFA4FF66F7C6C5D654
:103BA000D66C6BCC7BCAAC09CDEFD5EA8B858BABE1
:103BB000EECDC5DEEFFFEFFFEFFFEFFFF7FFEFFF0B
:103BC000EFFFEFFFEFFFEFFFEFFFEFFFEFFFEFFF85
:103BD000FFFFEFFFFFFFEFFFEFFFEFFFEFFFEFFF55
:103BE000EFFFEFFFEFFFEFFFF7FFEFFFEFFFEFFF5D
:103BF000F79EEFD0BD47BDE4ABC88BAA7B098C4ACA
:103C0000AD89BD28EF078C09C6E5FFE2FFE3FF6C35
:103C100094D031E7B461D584FFE5FF0ABD70299ADD
:103C200019B8210E84C9FE25EEC7F62994A9418B47
:103C30005AE86AC5BC26EE287B4C62CE410942098F
:103C4000DE66EE65EE4CE6734AFE2199212D42E7D1
:103C5000C545FF04CDA7B4717BD052C8FFE3FFE296
:103C6000FF84F785DE69E6ACA4C872445214CEF135
:103C7000A4D194E541015A85ACF2CDFFF7FFEFFFE7
:103C8000E7FFEFFFEFFFEFFFEFFFEFFFEFFFEFFFCC
:103C9000EFFFEFFFEFFFEFFFFFFFEFFFFFFFEFFF94
:103CA000EFFFEFFFEFFFEFFFEFFFF7FFEFFFEFFF9C
:103CB000EFFFEFFFEFDDEF71D6F6DEDFF71BDFF092
:103CC000CD66A4225A6FBD31D64DCE24F7A9E66544
:103CD000BDE6FFE3FFE4FFAABDB0290F6329520947
:103CE000940B8C70299A19DC2171422BDE25EE454C
:103CF000EE6AE630429A199A19151149946BF7B297
:103D0000297B19DC217719CC83C7F6E5DD26EE6F18
:103D1000A4D829FD21D921F131EE62ED39D02994C1
:103D2000298F6BE8FFE4FFE3FFA5E6E4ACC6D5000E
:103D300041909C11A54A6B73B552CE85946573D89A
:103D4000D6FFF7FFEFFFEFFFEFFFF7FFEFFFEFFF0C
:103D5000EFFFEFFFEFFFEFFFEFFFEFFFEFFFEFFFF3
:103D6000FFFFEFFFFFFFEFFFEFFFEFFFEFFFEFFFC3
:103D7000EFFFEFFFEFFFEFFFEFFFEFFFF73CDF4B52
:103D8000C52DADCFBD33CEF9D611BE2BD6A7B42EDF
:103D9000BD6ED6A3EEE8EE89F7C4FFE3FFE3FF674D
:103DA000DEF3299B19981975197619DB19DB19BBF4
:103DB000215242079CC6DDC7F6EB837621FC29DC45
:103DC0002199194B8C0BEF3532FC191C22DD21B2E5
:103DD00031ABCD47E668AC2D4AD8211D221C2A1DE7
:103DE00022BC19FC191F22B9214D8CE7FFE3FFE328
:103DF000FF44D685C564C5655AFFFFF1A4857B0ED7
:103E0000E72BE7E8FF8CF79DE7FFF7FFEFFFEFFFFA
:103E1000F7FFF7FFEFFFEFFFEFFFEFFFEFFFEFFF22
:103E2000EFFFEFFFEFFFEFFFFFFFEFFFFFFFEFFF02
:103E3000EFFFEFFFEFFFEFFFEFFFEFFFEFFFEFFF12
:103E4000EFFFEFFFEFFFF737CEB7CE2ECE2CADACA6
:103E5000BD4DA56573A3B48D9CEDBDC4DD27E6887B
:103E6000F7A5FFE3FFE2FF44F79142DC19FB21FCD9
:103E700021FC21FB19FB21FC2177192F6BA8832C36
:103E800094F041BC21DC29DC21B9190D84CBEE353D
:103E900032FD21FC21FD21D919EF5AEA6A917354B0
:103EA0003AFC191D221C223D221D22FD211D22D774
:103EB000216BADE6FFE2FFE3FF43D624C565A4EC2A
:103EC0008332B5EA8328CEC6FF04EF04EFADDEDD12
:103ED000EFFFEFFFEFFFEFFFEFFFEFFFEFFFEFFF72
:103EE000EFFFEFFFEFFFEFFFEFFFEFFFEFFFEFFF62
:103EF000FFFFEFFFFFFFEFFFEFFFEFFFEFFFEFFF32
:103F0000EFFFEFFFEFFFEFFFEFFFEFFFEFFFF779BF
:103F1000BEEC9CE8ACEAB4A68B70ADF4BD4AD60EFC
:103F2000C651C6A3CC64D586FFA6FFE3FFE1FFE43C
:103F3000FF2F639A19FB21DC21BB21DB19FC21FC3B
:103F400021FB213632D4297521B929DC21FC21FC41
:103F500021B919CE7BABE63532FE29FC29FC211CA8
:103F60002A98199821B729D829FD211C223C225DC5
:103F70002A1D2A1C2A3E2AF52129BEE5FFE1FFE37E
:103F8000FFE4EE47D5CDAC8C8BA493A6C507E745DF
:103F9000D6A4E6A6FF0AD67CE7FFEFFFEFFFEFFF10
:103FA000EFFFEFFFEFFFEFFFEFFFEFFFEFFFEFFFA1
:103FB000EFFFEFFFEFFFEFFFFFFFEFFFFFFFEFFF71
:103FC000EFFFEFFFEFFFEFFFEFFFEFFFEFFFEFFF81
:103FD000EFFFEFFFEFFFEFFFF774D6E8EE68F76A49
:103FE000D62AC610BEEAA4EBBD94CEC9D582C4635E
:103FF000D585F7E2FFE2FFE4FF0B8C9821FC19DB8B
:1040000021DA21DB21DC21FC211C22FC21FC21FC0A
:1040100021FC29FC291C2A1C1ADB193163CCBD1692
:104020002A1E221C2A1C2A1C221E2A1E2A1D2AFE87
:10403000291D2A1D2A3D2A3D2A1C2A3D2AFE2934F3
:104040003AE8E6E5FFE4FFE4FFE2DD239B0B94930F
:10405000B56ADEA5E6A8FFC4C505D664D5ABD53BD9
:10406000DFFFF7FFEFFFEFFFEFFFEFFFEFFFEFFFE8
:10407000EFFFEFFFEFFFEFFFEFFFEFFFEFFFEFFFD0
:10408000FFFFEFFFFFFFEFFFEFFFEFFFEFFFEFFFA0
:10409000EFFFEFFFEFFFEFFFEFFFEFFFEFFFEFFFB0
:1040A000F7BEF72DC626F7C6FF67F749EF87BD05B0
:1040B0008CD2B5CBAC82BBA4D405FFE4FFC4DEE652
:1040C000E62BB59521FD21DB21FB19FB21FB291DE9
:1040D0002A1C22FC29FC29FC21FC291C2AFD29FC84
:1040E00029FD29F931F3311A223C2A1D2A1D2A1BE8
:1040F00022FC21DC29FB211C2A3C221D221D2A1C1A
:104100002A1C2A1E2AFD215342AAACAB7BCA7BE79C
:10411000C5439CD19C52AD8CB506C686E623C5A589
:10412000F646E653CE7CE7FFF7FFEFFFEFFFEFFF2A
:10413000EFFFEFFFEFFFEFFFEFFFEFFFEFFFEFFF0F
:10414000EFFFEFFFEFFFEFFFFFFFEFFFFFFFEFFFDF
:10415000EFFFEFFFEFFFEFFFEFFFEFFFEFFFEFFFEF
:10416000EFFFEFFFEFFFEFFFEFFFEF5CE7AAC545C3
:10417000EF24F744FFE8FFE5D5EB9CEDA4219B82FB
:10418000CC86B4086B0E425142CD5AD629FC21DBB5
:1041900021DA21DB21FC21DB21B919F829573A97D3
:1041A0003A783AF9299921DC291C2AFD29FD293E72
:1041B0002A3D2AFB21F82177421753585B17539663
:1041C0003AF829BA211C225D2A5C2A3C2A1B2A14AF
:1041D00032D231D829D529EE31CC52B4B5C983C9F0
:1041E000E688F765E6E4E503E623CD76C6FFF7FF4C
:1041F000EFFFEFFFEFFFEFFFEFFFEFFFEFFFEFFF4F
:10420000EFFFEFFFEFFFEFFFEFFFEFFFEFFFEFFF3E
:10421000FFFFEFFFFFFFEFFFEFFFEFFFEFFFEFFF0E
:10422000EFFFEFFFEFFFEFFFEFFFEFFFEFFFEFFF1E
:10423000EFFFEFFFF71ADF2894A3CDA6FF43EE842C
:10424000E545CDA5B4239363A38B41B329D631D9DA
:1042500029D129F829FC21DB21DB29B921F72957AC
:104260005339957CBE7ED79EDF7ED75CBE7884575F
:104270003AB9213C2A3D2A1D32F821975BFAAD7EDE
:10428000DFBFF7FFF7DFEF7EDF5BB698849742B8BA
:10429000211C2A3C2A1C2AF729F331F6311732F760
:1042A00029D15209634BBD66D582BC84F60AD6B3C8
:1042B000D633C63BD7FFF7FFEFFFEFFFEFFFEFFF70
:1042C000EFFFEFFFEFFFEFFFEFFFEFFFEFFFEFFF7E
:1042D000EFFFEFFFEFFFEFFFFFFFEFFFFFFFEFFF4E
:1042E000EFFFEFFFEFFFEFFFEFFFEFFFEFFFEFFF5E
:1042F000EFFFEFFFEFFFEFFFEFFFEFFFEFFFF75CE9
:10430000E76FBD65A422B4A1AB4293426A4241A8C3
:1043100062145BF831143AF231D531FA291C22F9D2
:1043200021F4296F423595FFF7FFFFFFF7FFEFFFFD
:10433000FFFFF7FFFFFFFF1DD7B763D9211C2A1727
:10434000323995FFF7FFFFFFF7FEF7FFF7FFEFFFAB
:10435000F7FFFFFFFF96CEED7B914A9621DB291CEC
:104360002A1A2AF931192AF3318A4AEDAC659BA140
:104370008203D585D594D6FFF7FFF7FFF7FFEFFF50
:10438000EFFFEFFFEFFFEFFFEFFFEFFFEFFFEFFFBD
:10439000EFFFEFFFEFFFEFFFEFFFEFFFEFFFEFFFAD
:1043A000FFFFEFFFFFFFEFFFEFFFEFFFEFFFEFFF7D
:1043B000EFFFEFFFEFFFEFFFEFFFEFFFEFFFEFFF8D
:1043C000EFFFEFFFEFFFEFFFF7FFF737C60E7C8C35
:1043D00073508495AD58C630AD0F8C7021B721D87D
:1043E00021DA29B829F3298B294DADD2FF8FD65474
:1043F000C69DE7FFF7FFEFDAD69DEFFFFFFFF7FF60
:10440000F7FFF79884D421DBA5FFFFFEEF3BDF1514
:10441000D730E778E7FFEFFFF7FEF7F6DEEDDEAA2D
:10442000FF86BDEA7B3063F431B629D331AD31511B
:104430008C2FB5A159C39B08F7CABD3ADFFFEFFF28
:10444000F7FFEFFFEFFFEFFFEFFFEFFFEFFFEFFFF4
:10445000EFFFEFFFEFFFEFFFEFFFEFFFEFFFEFFFEC
:10446000EFFFEFFFEFFFEFFFFFFFEFFFFFFFEFFFBC
:10447000EFFFEFFFEFFFEFFFEFFFEFFFEFFFEFFFCC
:10448000EFFFEFFFEFFFEFFFEFFFEFFFEFFFEFFFBC
:10449000EFFFEFFFF7FFFF7CEFD0C50EADF0C54B90
:1044A000B5435AAE7BB88C90522D4AE9492AB529BA
:1044B000CEC7A44BFF0AF72EE792C65CE7FFF77062
:1044C000AD2BAD54CEBEEFFFF7FFEFFFEF9BBEFF6E
:1044D000FFFFF7B5CE8BD60AE7E6EE8FCEFFF79C4F
:1044E000EF70C649E7A7FFC5E664DEE9FFE8EE83A3
:1044F00072659326AC8683EBAC29B56239A149C9B4
:10450000ACB6CEFFEFFFEFFFF7FFEFFFEFFFEFFFE0
:10451000EFFFEFFFEFFFEFFFEFFFEFFFEFFFEFFF2B
:10452000EFFFEFFFEFFFEFFFEFFFEFFFEFFFEFFF1B
:10453000FFFFEFFFFFFFEFFFEFFFEFFFEFFFEFFFEB
:10454000EFFFEFFFEFFFEFFFEFFFEFFFEFFFEFFFFB
:10455000EFFFEFFFEFFFEFFFEFFFEFFFEFFFF71AC8
:10456000DF2BB58FB511C6EEC595CE4B8C286306F3
:104570009426CDA4BC03C588FF449CC4B444EE6B10
:10458000F7CFFFB1DEBEEF98EFC8EEE6CDCDB5F8C0
:10459000D6FFF7FFEFFFF7DEF795CE6BC6E9FFC456
:1045A000EEE7EE0FC67CE7AED605CEE8FFE3EEE41D
:1045B000CDC4E6E3DD02C5C5DDE4E584E649DE867B
:1045C000DE47EF86B5488C3AE7FFFFFFEFFFEFFFCE
:1045D000EFFFEFFFEFFFEFFFEFFFEFFFEFFFEFFF6B
:1045E000EFFFEFFFEFFFEFFFEFFFEFFFEFFFEFFF5B
:1045F000EFFFEFFFEFFFEFFFFFFFEFFFFFFFEFFF2B
:10460000EFFFEFFFEFFFEFFFEFFFEFFFEFFFEFFF3A
:10461000EFFFEFFFEFFFEFFFEFFFEFFFEFFFEFFF2A
:10462000EFFFEFFFEFFFEFFFF79DEFFDF7B5CE2FA9
:10463000BECCD60AE769D6A8DE05B522B424DDC112
:10464000CC66F6A393E8D569F769FFE6C56DAD9B27
:10465000EFEAD564E646EF28CEF6DEFFF7FFEF7C03
:10466000E78CCEA8F765F784F783BDD1BD4EAD06C4
:10467000B568DEA3CD42E6E3DDA5DD23BC63D5A3AB
:10468000E683E6E4FFC6FF83E6E2EEE5FF4AF7F7DE
:10469000D6FFF7FFF7FFEFFFEFFFEFFFEFFFEFFFB3
:1046A000EFFFEFFFEFFFEFFFEFFFEFFFEFFFEFFF9A
:1046B000EFFFEFFFEFFFEFFFEFFFEFFFEFFFEFFF8A
:1046C000FFFFEFFFFFFFEFFFEFFFEFFFEFFFEFFF5A
:1046D000EFFFEFFFEFFFEFFFEFFFEFFFEFFFEFFF6A
:1046E000EFFFEFFFEFFFEFFFEFFFEFFFEFFFEFFF5A
:1046F000EF9EE790ADAADEC5E605FF47F7E8FFC6E7
:10470000FF05EFA4ACC3ABA4CCE5ED45D5A38B2549
:10471000C505EEA1B484A436C6B0BDA3D523E66614
:10472000F7C9DE7AE7FFF739DFCBDEC8FFA4FFC5A4
:10473000FF8BBD1AE767AC43AC66C585DEE6EE01CC
:10474000CD82D462BC05D6A6E6E2CD63DEA2A4216A
:10475000C583F624D6EDB57BDFFFF7FFF7FFF7FF44
:10476000EFFFEFFFEFFFEFFFEFFFEFFFEFFFEFFFD9
:10477000EFFFEFFFEFFFEFFFEFFFEFFFEFFFEFFFC9
:10478000EFFFEFFFEFFFEFFFFFFFEFFFFFFFEFFF99
:10479000EFFFEFFFEFFFEFFFEFFFEFFFEFFFEFFFA9
:1047A000EFFFEFFFEFFFEFFFEFFFEFFFEFFFEFFF99
:1047B000EFFFEFFFEFFFEFFFEFBFEF3ADF31E7C7AC
:1047C000EEA3F6A2DD61CD01DE43E626E6C4CC63AE
:1047D000B4839B44AC848B4141A49307DE26C5C9B6
:1047E000A454BE09AD06E6E4F624F772CEDEEF2D42
:1047F000C68AF786FF04F768CE95D64EC524CDA5A8
:10480000F6A5CD04DE428B02BD86EEA3B404FF8282
:10481000B4A1A3C3CCE5DD85CD89BD4FA55EDFFF87
:10482000F7FFEFFFF7FFF7FFEFFFEFFFEFFFEFFF00
:10483000EFFFEFFFEFFFEFFFEFFFEFFFEFFFEFFF08
:10484000EFFFEFFFEFFFEFFFEFFFEFFFEFFFEFFFF8
:10485000FFFFEFFFFFFFEFFFEFFFEFFFEFFFEFFFC8
:10486000EFFFEFFFEFFFEFFFEFFFEFFFEFFFEFFFD8
:10487000EFFFEFFFEFFFEFFFEFFFEFFFEFFFEFFFC8
:10488000EFFFEFFFEFDFF756E7ABD6E5D566E6A51E
:10489000F6A1D400CCC5E528F769CDA693E48A013A
:1048A00062A128626AA3A345B48DBDF2B565A46375
:1048B000EDA3ED0AB519D7ECDEC7FF64F7E6D586A0
:1048C0008BE9B424D524AC809384CD65ACA26AE591
:1048D000CD03BD64AC24BDA5AC09BD48A4D0CD308A
:1048E000AD3CDFDFEFFFF7FFEFFFEFFFEFFFEFFF85
:1048F000EFFFEFFFEFFFEFFFEFFFEFFFEFFFEFFF48
:10490000EFFFEFFFEFFFEFFFEFFFEFFFEFFFEFFF37
:10491000EFFFEFFFEFFFEFFFFFFFEFFFFFFFEFFF07
:10492000EFFFEFFFEFFFEFFFEFFFEFFFEFFFEFFF17
:10493000EFFFEFFFEFFFEFFFEFFFEFFFEFFFEFFF07
:10494000EFFFEFFFEFFFEFFFEFFFEFFFEFFFEFFFF7
:10495000F7BDEF36DF71CEAEC56FC5F0CD469CEA30
:10496000A42894279C31CE0EB5A66AC028E16183A5
:10497000A344ACADC50573E269828A85AB15BEEC74
:10498000DEA6FF62C502AC038B85ACC4ACE19365C7
:10499000BD63BD05CE65BDC4ACA29B43ACC4ACF346
:1049A000B51ADF7CDFFFF7FFEFFFF7FFF7FFEFFF41
:1049B000EFFFEFFFEFFFEFFFEFFFEFFFEFFFEFFF87
:1049C000EFFFEFFFEFFFEFFFEFFFEFFFEFFFEFFF77
:1049D000EFFFEFFFEFFFEFFFEFFFEFFFEFFFEFFF67
:1049E000FFFFEFFFFFFFEFFFEFFFEFFFEFFFEFFF37
:1049F000EFFFEFFFEFFFEFFFEFFFEFFFEFFFEFFF47
:104A0000EFFFEFFFEFFFEFFFEFFFEFFFEFFFEFFF36
:104A1000EFFFEFFFEFFFEFFFEFFFEFFFF7FFEFDF3E
:104A2000EFFFEFFACE87A4CE9C0FAD89AC4C842863
:104A30008C88B569CEE9E686E645DE04D6A4A4A74F
:104A4000526D6B036A4FBD69F706D670AD74D68A96
:104A50009CC4A445CE65EF45F7C5EE64E624F78611
:104A6000F7E9C550CEF4D69DEFFFFFFFF7FFEFFF4C
:104A7000EFFFEFFFEFFFEFFFEFFFEFFFEFFFEFFFC6
:104A8000EFFFEFFFEFFFEFFFEFFFEFFFEFFFEFFFB6
:104A9000EFFFEFFFEFFFEFFFEFFFEFFFEFFFEFFFA6
:104AA000EFFFEFFFEFFFEFFFFFFFEFFFFFFFEFFF76
:104AB000EFFFEFFFEFFFEFFFEFFFEFFFEFFFEFFF86
:104AC000EFFFEFFFEFFFEFFFEFFFEFFFEFFFEFFF76
:104AD000EFFFEFFFEFFFEFFFEFFFEFFFEFFFEFFF66
:104AE000EFFFEFFFEFFFEFFFF7FFF79DE753C67B09
:104AF000E7BDF7467326BD07F785EEA7EE67F726F5
:104B0000F788FF87FF07F769D673C6B094A68B872F
:104B1000CD74D69DEFB1D6A8D667E684E6C4EE4341
:104B2000C543DE82D524F788DE58DFFFF7FFEFFFAD
:104B3000F7FFEFFFEFFFEFFFEFFFEFFFEFFFEFFFFD
:104B4000EFFFEFFFEFFFEFFFEFFFEFFFEFFFEFFFF5
:104B5000EFFFEFFFEFFFEFFFEFFFEFFFEFFFEFFFE5
:104B6000EFFFEFFFEFFFEFFFEFFFEFFFEFFFEFFFD5
:104B7000FFFFEFFFFFFFEFFFEFFFEFFFEFFFEFFFA5
:104B8000EFFFEFFFEFFFEFFFEFFFEFFFEFFFEFFFB5
:104B9000EFFFEFFFEFFFEFFFEFFFEFFFEFFFEFFFA5
:104BA000EFFFEFFFEFFFEFFFEFFFEFFFEFFFF7FF8D
:104BB000EFFFEFFFEFFFF7FFEFFFEFDACE52CE2967
:104BC000D6C3DD43E643E642DD03DE45FF02F6439E
:104BD000FE26E6ADC5E76AAD9C0FCE85AC43ACC200
:104BE000BC21CD64EEC2E582E586FF84E603BD53B9
:104BF000CEFFF7FFEFFFEFFFF7FFEFFFEFFFEFFF56
:104C0000EFFFEFFFEFFFEFFFEFFFEFFFEFFFEFFF34
:104C1000EFFFEFFFEFFFEFFFEFFFEFFFEFFFEFFF24
:104C2000EFFFEFFFEFFFEFFFEFFFEFFFEFFFEFFF14
:104C3000EFFFEFFFEFFFEFFFFFFFEFFFFFFFEFFFE4
:104C4000EFFFEFFFEFFFEFFFEFFFEFFFEFFFEFFFF4
:104C5000EFFFEFFFEFFFEFFFEFFFEFFFEFFFEFFFE4
:104C6000EFFFEFFFEFFFEFFFEFFFEFFFEFFFEFFFD4
:104C7000EFFFEFFFEFFFEFFFEFFFEFFFEFFFEFFFC4
:104C8000EFFFEFFFF7FFF75BE792CEAADE83DEE4EC
:104C9000EEA5F6A3DD82DD43E6C3EEE5E5C47A06C4
:104CA000738BC5D0C5CCA427BD06C567CD85D548B7
:104CB000CD2BD610C6F8D6DEEFFFF7FFEFFFEFFFE4
:104CC000F7FFEFFFEFFFEFFFEFFFEFFFEFFFEFFF6C
:104CD000EFFFEFFFEFFFEFFFEFFFEFFFEFFFEFFF64
:104CE000EFFFEFFFEFFFEFFFEFFFEFFFEFFFEFFF54
:104CF000EFFFEFFFEFFFEFFFEFFFEFFFEFFFEFFF44
:104D0000FFFFEFFFFFFFEFFFEFFFEFFFEFFFEFFF13
:104D1000EFFFEFFFEFFFEFFFEFFFEFFFEFFFEFFF23
:104D2000EFFFEFFFEFFFEFFFEFFFEFFFEFFFEFFF13
:104D3000EFFFEFFFEFFFEFFFEFFFEFFFEFFFF7FFFB
:104D4000EFFFF7FFF7FFEFFFEFFFF7FFEFFFEFFFDB
:104D5000F7FFFF7BE793CECDCD4BC52BC54EBDF006
:104D6000BD8CBDA5BC458BC7629AE7FFFFFFFF7AEC
:104D7000E73AE73AE755BEBCF77DEFDFEFFFF7FF15
:104D8000EFFFEFFFEFFFF7FFEFFFEFFFEFFFEFFFAB
:104D9000EFFFEFFFEFFFEFFFEFFFEFFFEFFFEFFFA3
:104DA000EFFFEFFFEFFFEFFFEFFFEFFFEFFFEFFF93
:104DB000EFFFEFFFEFFFEFFFEFFFEFFFEFFFEFFF83
:104DC000EFFFEFFFEFFFEFFFFFFFEFFFFFFFEFFF53
:104DD000EFFFEFFFEFFFEFFFEFFFEFFFEFFFEFFF63
:104DE000EFFFEFFFEFFFEFFFEFFFEFFFEFFFEFFF53
:104DF000EFFFEFFFEFFFEFFFEFFFEFFFEFFFEFFF43
:104E0000EFFFEFFFEFFFF7FFEFFFEFFFF7FFEFFF22
:104E1000EFFFF7FFEFFFEFFFEFFFE7FFEFFFFFBF52
:104E2000F77DEF9DEFFFFFB8FF6DD652CEF9D61498
:104E3000C651B597D6FFFFFFF7FFF7FFF7FFF7FF64
:104E4000EFFFF7FFEFFFE7FFEFFFEFFFEFFFEFFFF2
:104E5000EFFFEFFFEFFFEFFFEFFFEFFFEFFFEFFFE2
:104E6000EFFFEFFFEFFFEFFFEFFFEFFFEFFFEFFFD2
:104E7000EFFFEFFFEFFFEFFFEFFFEFFFEFFFEFFFC2
:104E8000EFFFEFFFEFFFEFFFEFFFEFFFEFFFEFFFB2
:104E9000FFFFEFFFFFFFEFFFEFFFEFFFEFFFEFFF82
:104EA000EFFFEFFFEFFFEFFFEFFFEFFFEFFFEFFF92
:104EB000EFFFEFFFEFFFEFFFEFFFEFFFEFFFEFFF82
:104EC000EFFFEFFFEFFFEFFFEFFFEFFFEFFFEFFF72
:104ED000EFFFEFFFEFFFEFFFEFFFEFFFEFFFF7FF5A
:104EE000EFFFEFFFEFFFEFFFEFFFEFFFFF35BEA993
:104EF0009C95CEFFEFFFF7FFFF1AE74FB530AD5D92
:104F0000DFFFEFFFEFFFEFFFEFFFEFFFEFFFEFFF41
:104F1000EFFFEFFFEFFFEFFFEFFFEFFFEFFFEFFF21
:104F2000EFFFEFFFEFFFEFFFEFFFEFFFEFFFEFFF11
:104F3000EFFFEFFFEFFFEFFFEFFFEFFFEFFFEFFF01
:104F4000EFFFEFFFEFFFEFFFEFFFEFFFEFFFEFFFF1
:104F5000EFFFEFFFEFFFEFFFFFFFEFFFFFFFEFFFC1
:104F6000EFFFEFFFEFFFEFFFEFFFEFFFEFFFEFFFD1
:104F7000EFFFEFFFEFFFEFFFEFFFEFFFEFFFEFFFC1
:104F8000EFFFEFFFEFFFEFFFEFFFEFFFEFFFEFFFB1
:104F9000EFFFEFFFEFFFEFFFEFFFEFFFEFFFEFFFA1
:104FA000EFFFEFFFEFFFEFFFEFFFEFFFEFFFEFFF91
:104FB000EFFFEFFFF7B5A5DACEFFFFFFEFFFEFFF43
:104FC000EFFFF7FFF717B61CD7FFF7FFEFFFEFFF75
:104FD000EFFFEFFFEFFFEFFFEFFFEFFFEFFFEFFF61
:104FE000EFFFEFFFEFFFEFFFEFFFEFFFEFFFEFFF51
:104FF000EFFFEFFFEFFFEFFFEFFFEFFFEFFFEFFF41
:10500000EFFFEFFFEFFFEFFFEFFFEFFFEFFFEFFF30
:10501000EFFFEFFFEFFFEFFFEFFFEFFFEFFFEFFF20
:10502000FFFFEFFFFFFFFFFFFFFFFFFFFFFFFFFFA0
:10503000FFFFFFFFFFFFFFFFFFFFFFFFFFFFFFFF80
:10504000FFFFFFFFFFFFFFFFFFFFFFFFFFFFFFFF70
:10505000FFFFFFFFFFFFFFFFFFFFFFFFFFFFFFFF60
:10506000FFFFFFFFFFFFFFFFFFFFFFFFFFFFFFFF50
:10507000FFFFFFFFFFFFFFFFFFFFFFFFFFFFFFFF40
:10508000FFFFFFFFFFFFFFFFFFFFFFFFFFFFFFFF30
:10509000FFFFFFFFFFFFFFFFFFFFFFFFFFFFFFFF20
:1050A000FFDEF7FFFFFFFFFFFFFFFFFFFFFFFFFF39
:1050B000FFFFFFFFFFFFFFFFFFFFFFFFFFFFFFFF00
:1050C000FFFFFFFFFFFFFFFFFFFFFFFFFFFFFFFFF0
:1050D000FFFFFFFFFFFFFFFFFFFFFFFFFFFFFFFFE0
:1050E000FFFFFFFFFFFFFFFFFF2018205F00000012
:1050F00000000000000000000000000000000000B0
:10510000000000000000000000000000000000009F
:10511000000000000000000000000000000000008F
:10512000000000000000000000000000000000007F
:10513000000000000000000000000000000000006F
:10514000000000000000000000000000000000005F
:10515000000000000000120000001F8000000DC0D1
:1051600000001EE000003330000061980000CCCC4D
:105170000000CC6C00018036000302360007061BDD
:1051800000018E1B0000F61B0000061B0000061B22
:105190000000061B000007FB000007FB00000000EA
:1051A00000000000000000000000000000000000FF
:1051B0000007FFFE0007FFFF0006000300060003D4
:1051C00000060633000606330006003300060033EF
:1051D00000070033000380330001C0330000FC33BC
:1051E00000007C3300000C3F00000C1E00000C008F
:1051F00000001BFC0000192400001FFC0000000040
:10520000000000000000000000000000000000009E
:1052100000000000000080040000EFDC0000FFFC44
:105220000000D02C0000C00C0001800600018006A8
:105230000003000300030CC300030CC300030003BE
:105240000003030300018A4600018FC60000E01C32
:105250000000703800003FF000000FC000000000A8
:10526000000000000000000000000000000000003E
:10527000000000000000E01E0003F7BF0003FFFF76
:105280000003F03F0003E01F0001800600019C6660
:10529000000335B30003353300033CF300037C7B8C
:1052A0000003387300018006000180060000E01C46
:1052B0000000703800003FF000000FC00000000048
:1052C00000000000000000000000000000000000DE
:1052D0000000000000000FE00000303F0000400030
:1052E00080008000800100008001300080023000DA
:1052F00080020001800200010002000100020101A1
:105300000002010100027F0100024101000241028E
:1053100000024102000138FC000188000000780012
:10532000000000000000000000000000000000007D
:105330000000078000001FE000003FF000007FF841
:1053400000007FFC0000FFFC0000FFFC0001C00E1D
:1053500000019FE600018CC60001CCCE0001C00E0A
:105360000001CCCE000197A6000180060001800656
:105370000000C00C0000FFFC00003FF00000000037
:10538000000000000000000000000000000000001D
:10539000000000000000000000000000000000000D
:1053A0000001C0000006C003000440028006400265
:1053B000400E200140012E0320009102200085FEB6
:1053C00020044569200CC300201FE000601000008D
:1053D00040180E99800FF8E100000FBF0000000098
:1053E00000000000000000000000000000000000BD
:1053F00000000000000070380000FFFC00008FC6B5
:105400000001BFF60001F87E0001E01F0003C00F9D
:105410000003800700038CC600038CC700038007CD
:10542000000383070003C94F0003CFCF0003C00F61
:105430000000F03C0000FCFC00003FF00000030016
:10544000000000000000000000000000000000005C
:10545000000000000000078000000FC0000019E0FD
:10546000000039E000005FE000003FE0000017E0CE
:10547000000013F0000013F0000033F8000023F8E0
:10548000000023FC000023F0000033F000001BF0BC
:1054900000001FF0000021F800003FF800000000AD
:1054A00000000000000000000000000000000000FC
:1054B00000000000000000000000000000000000EC
:1054C00020000000E0000000C01FFFFFC01FFFFF22
:1054D000C0107FFFC0157FFDC015BFF8E00AFFF8C0
:1054E000600F3FF00007FFC00001FF800000078051
:1054F000000000800000000000000000000000002C
:10550000000000000000000000000000000000009B
:10551000000000000000000000000000000000008B
:1055200000000C0000000F0000001FC00000FFE0A2
:105530000001EFF1C003EFFB80066FFF000E63FF79
:105540000007F3FB8003EBF18000FFF040001C102C
:10555000000000000000000000000000000000004B
:10556000000000000000000000000000000000003B
:105570000000000000000100000003000000070020
:1055800000000F0000001700000023010000C0838E
:105590000001804F0002603F0006603F0001804F25
:1055A0000000C083000023010000170000000F006E
:1055B00000000700000003000000010000000000E0
:1055C00000000000000000000000000000000000DB
:1055D000000000000000000000001FE000006798CD
:1055E0000000F03C0001E79E0003EFFF00020C31D9
:1055F0000003F8DF8007E8DF8007F81F8007F83F27
:105600008007E8FF800728D380061CE1800217216D
:1056100000021FE1000210210003F03F0000000023
:10562000000000000000000000000000000000007A
:105630000000000000001C70000014500000929454
:105640000000FABE0000FABE0000FBBE0000739C22
:1056500000000FE0000007C000001FF0000007C0BE
:1056600000001FF000001FF0000007C000000380D2
:10567000000006C000000FE000000FE00000000086
:10568000000000000000000000000000000000001A
:1056900000000000000001C000000FE000003FA07B
:1056A00000007FE000007DE00000F0000000F0005E
:1056B0000000FBE00000FFF00000FFF80000FFF832
:1056C00000007FFC00007FFC00007FFC000077FEF4
:1056D000000077FE0000771F0000771C80000000AC
:1056E00000000000000000000000000000000000BA
:1056F00000000FC0000030300000C00C000180C668
:10570000000101F2000203F1000207A1000407609A
:1057100080040E0080040C0080041C0080041C0027
:1057200080041C0080023E0100023A0100011402C4
:10573000000024060000200C0000303000000FC0E4
:105740000000000000000000000000000000000059
:105750000000000000000000000000000000000049
:105760000007FFFF800500008005C0008007FFFFE5
:105770008007FFFF80040000800400008004000018
:105780008004000080040000800400008004000009
:105790008007FFFF80000000000000000000000004
:1057A00000000000000000000000000000000000F9
:1057B00000000000000000000000000000000000E9
:1057C000000000000003FFFF800200008006FE3E94
:1057D0008006FE00800600008006FFFE8006FEFEBA
:1057E000800600008007FFFF800400010007FFFF24
:1057F00000000000000000000000000000000000A9
:105800000000000000000000000000000000000098
:105810000000000000000000000000000000003850
:10582000000000C600000082000000820003FF8329
:105830008002004480060738800618C080061040A9
:1058400080061040800618C0800607008007FFFF12
:10585000800400010007FFFF0000000000000000BE
:105860000000000000000000000000000000000038
:10587000000000000000440000004400000044005C
:105880000000FE00000082000000FE000000FE009C
:105890000000FE0000007C000000100000001078F6
:1058A000000010CC00001084000010840000108460
:1058B0000000198400000F04000000040000000034
:1058C00000000000000000000000000000000000D8
:1058D00000000000000000000000000000000000C8
:1058E00000007C0000009200000092000000820096
:1058F0000000EE000000820000007C000000107834
:10590000000010CC000010840000108400001084FF
:105910000000198400000F040000000400000000D3
:105920000000000000000000000000000000000077
:10593000000000000000020000000200000047100C
:105940000000CF980000EFB80001DFDC0003CF9E1D
:105950000001FFFC0001FFFC0003DFDE0003AFAE2F
:105960000007FFFF0003DFDE0003BFEE0007870F25
:105970000007F77F0008E7388000E73800000000E4
:105980000000000000000000000000000000000017
:1059900000000000000037B0000037B000003FF00A
:1059A00000003FF000003FF000001FE000000FC0CB
:1059B00000000300000003000003C30F0001E31E0A
:1059C0000000F33C00007B7800003FF000001FE087
:1059D00000000FC00000078000000300000000006E
:1059E00000000000000000000000000000000000B7
:1059F0000000020000000200000007000000050097
:105A0000000002000000078000001FC000002720E7
:105A100000001FC000003FE000007FF000009FC8B2
:105A200000003FE00000FFF80001FFFC0003FFFE64
:105A3000000407010000070000000700000000004C
:105A40000000000000000000000000000000000056
:105A5000000000000000190000001B8000001FC0B3
:105A600000001FE000001FF000003FF800007FFC76
:105A70000000FFFE0000E10E0000E10E0000E10E5C
:105A80000000FFFE0000FFFE0000E10E0000E10E3E
:105A90000000E10E0000FFFE0000FFFE000000001D
:105AA00000000000000000000000000000000000F6
:105AB0000000000000007FFC00004004000059B41A
:105AC000000059B40000400400004004000059B434
:105AD000000059B40000400400004004000059B424
