:100000000C94784C0C94A94C0C94A94C0C94A94CCD
:100010000C94A94C0C94A94C0C94A94C0C94A94C8C
:100020000C94A94C0C9402C10C9402C10C9402C112
:100030000C94A94C0C94A94C0C94A94C0C94A94C6C
:100040000C94A94C0C94A94C0C94A94C0C94A94C5C
:100050000C94A94C0C94A94C0C94A94C0C9496FDAE
:100060000C94A94C0D9439010D946F010C94A94C7A
:100070000C94A94C0C94A94C0C94A94C0C94A94C2C
:100080000C94A94C0C94A94C0C94A94C0C94A94C1C
:100090000D94E4010D941A020C94A94C0C9468FC84
:1000A0000C94A94C0C94A94C0C94A94C0C94A94CFC
:1000B0000C94A94C0C94A94C0C94A94C0C94A94CEC
:1000C0000C94A94C0C94A94C0C94A94C0D948F023F
:1000D0000D94C5020C94A94C0C94A94C0C94A94CF9
:1000E0000C94A94C50876387A987ED87288872886C
:1000F000AD88EE882B895B898D89D8891C8A608AB6
:10010000A68AE48A43874387258B258B458B458BBD
:10011000658B868B8F8B988BA18BAA8BB38BBC8BBB
:10012000C58BCE8BD78BE08BE98BF28BFB8B048C52
:100130000D8C168C17C935C95CC972C972C972C9D0
:1001400089C911CA17C911CAACC911CABAC9BAC971
:10015000D7C9D7C95CC93DCA3DCA5CC9BAC911CAA9
:1001600072C9E5C911CA11CA11CA11CA11CAFFC997
:1001700011CA11CAAACA0BCCF4CCC3CDCECECECEF6
:1001800060D0B4D159D7C1D2B2D41ED5E7D8C0D926
:100190009CDB9CDBF4CC8FE48FE4F4CC93DA9DDC25
:1001A000E2CF66DD31DE37E05EDFF0E037E291E39B
:1001B000A5E359D3D5FED8FEC7FECBFED1FE0FFF77
:1001C000DCFEE0FEE6FEEAFEEEFEF4FEF8FEFCFEDD
:1001D0000FFF02FF06FF0AFF05A84CCDB2D44EB9AF
:1001E0003836A9020C50B9918688083CA6AAAA2ADA
:1001F000BE000000803F0D9430000D94A1010D94CD
:1002000051000D94F7020D9443020D94EE020D94EB
:1002100098010D9447030D944C0266726565526116
:100220006D3A2000696E697469616C697A617469FC
:100230006F6E20646F6E652E0020204F70656E20FB
:100240004F6B21000A566F6C756D652069732046EF
:1002500041540072656164204D4252206661696CB0
:100260006564006361636865436C65617220666103
:10027000696C65640066616C73650A00747275650B
:100280000A0072656164435344206661696C656469
:10029000004D616E75666163747572696E67206486
:1002A0006174653A200053657269616C206E756DEA
:1002B0006265723A20000A56657273696F6E3A2061
:1002C0000050726F647563743A20004F454D2049A9
:1002D000443A20000A4D616E7566616374757265FB
:1002E000722049443A2000726561644349442066A3
:1002F00061696C656400466F726D617420646F6E35
:10030000650A0046415433320A0046415431360AE8
:1003100000466F726D617474696E670A00457261A0
:10032000736520646F6E650A00416C6C20646174B3
:10033000612073657420746F200072656164426C83
:100340006F636B006572617365206661696C6564DB
:100350000045726173696E670A004641543332206A
:1003600072657365727665206661696C65640046C6
:1003700041543332204653494E464F206661696CE2
:1003800065640046415433322050425320657874EE
:10039000206661696C65640046415433322077728F
:1003A00069746520504253206661696C656400423F
:1003B000616420636C757374657220636F756E740D
:1003C0000046415431362072657365727665206649
:1003D00061696C65640046415431362077726974F6
:1003E0006520504253206661696C65640042616417
:1003F00020636C757374657220636F756E7400771B
:1004000072697465204D4252004D42522043485358
:1004100000426C6F636B732F436C75737465723A33
:1004200020004361726420697320746F6F20736DC4
:10043000616C6C2E000A46696C6520537973746593
:100440006D20696E697469616C697A6174696F6E37
:10045000206661696C65642E0A004F43523A2000A1
:100460000A726561644F4352206661696C6564007D
:10047000556E6B6E6F776E0A00534458430A0053F3
:100480004448430A005344320A005344310A000AE4
:100490004361726420747970653A20000A696E695C
:1004A000742074696D653A20006361726453697ADF
:1004B00065206661696C6564000A63617264426507
:1004C00067696E206661696C656400204D422C206E
:1004D000284D42203D20312C3034382C3537362001
:1004E00062797465732900436172642053697A6587
:1004F0003A20006361726453697A650063617264D3
:100500002E696E6974206661696C6564000A5344E3
:1005100020696E697469616C697A6174696F6E20B3
:100520006661696C757265210A497320746865207B
:100530005344206361726420696E736572746564EC
:1005400020636F72726563746C793F0A497320632C
:100550006869702073656C65637420636F7272657F
:1005600063742061742074686520746F70206F66F6
:10057000207468697320736B657463683F0A004E6A
:100580006F2063757272656E7420726F6F7420666F
:10059000696C65005344206572726F7244617461C6
:1005A0003A20005344206572726F72436F64653A5B
:1005B00020005344206572726F723A200065727297
:1005C0006F723A2000570A4C0A410A3B0A340A2A41
:1005D0000A150A0C0AFB09E609D209BD09A8099BFC
:1005E0000986097C096A095609420937092B091944
:1005F000090709F608E408DC08D008BE08AC089929
:100600000894088E08880879086508510849084147
:10061000083908290817080608F707EF07E507DF74
:1006200007D007C207A30793078307730766075D11
:10063000074E073D072C071B070A070107F506EDC4
:1006400006E306DB06D006C806C006B706B106A458
:10065000068A067B06700660065B0642976F990065
:100660004E6F2063757272656E742066696C6500EA
:100670009720434F4D20A36F70A400896570659942
:1006800061A76120A5619EA06100896F9C2E2097C3
:1006900020A5619EA0652020202020202020202051
:1006A0002020200050619CA1657020A5619EA06162
:1006B00000A5619EA0610089706F63A16FA47000A6
:1006C00050616765204E20004572726F723A2000BB
:1006D000466F726D6174204F4B2100466F726D61E1
:1006E000742100536176652066696C650054696DFC
:1006F000656F75740044697374203D2020202020AC
:1007000000536174203D202020004C4F4E44203D7A
:1007100020202020202020202020004C4154442054
:100720003D20202020202020202020004C4F4E2043
:100730003D2020202020202020202020004C41543B
:10074000203D20202020202020202020200042ABFF
:10075000636FA461203D2020202020200050202015
:10076000206D6D4871005465A1A32E43203D2020CB
:1007700020200081619C2056203D20202020202028
:100780002020007553762F68203D20202020202037
:1007900020200063706D2020203D2020202020207C
:1007A0002020002020202020202020202020202069
:1007B0002020202020202020202020202020202039
:1007C000200089455045894F884845488645210085
:1007D000808A8B8B455020898A43544F8721004261
:1007E00091584F82008B6F70A161A4205344008602
:1007F000A2A56F2053440089706F63A16FA470207D
:10080000A5619EA0610089709D65A1209DA2A56F34
:1008100070A161A69D9D004F63A461A26F979DA4E6
:10082000AC209C61A39D63AC008561A39D6361A422
:10083000AC209720A5619EA000202A2A2A2A2A20DF
:1008400000202A2A2A2A2A2000202A2A2A2A2A2084
:10085000008261A4A79D9F2081659E98657061209C
:100860004F544B88008261A4A79D9F2081659E986C
:100870006570612020424B88008261A4A79D9F2063
:1008800081659E986570610042AB786F99004F5406
:100890004B882E00424B882E008261A2A2AB6520BD
:1008A000A26520A36FA079A765A2AB008261A4A76F
:1008B0009D9F2098619C61204F544B882E00208280
:1008C00061A4A79D9F2098619C6120424B882E00C7
:1008D0008261A4A79D9F2098619C6100202A2A2AFA
:1008E0002A2A20004553432D3E5055534820446941
:1008F00073706C61790086A2A56F70A161A69DAF2F
:1009000020524144494F00486163A4706F9E9F612B
:1009100020639D63A465A1AB008A63A461A26F9765
:100920009F9D20639D63A465A1AB0042976F9920B2
:100930009961A2A2AB780086A2A56F70A161A69D65
:10094000AF00896F97A46F709DA46520A36F9F610E
:100950009C61A29DAF00486520966FA0ACA8652061
:10096000313020A69DA570202100429765999DA455
:100970006520A36F9F619C61A29DAF0042A29DA1D3
:1009800061A29D652100896F97A46F7020A361709B
:100990006FA0AC206199A19DA22E004FA89D966BDF
:1009A000612097976F996100896F97A46F7020A35A
:1009B00061706FA0AC20A36FA0AC9C2E00486F9715
:1009C000AB9E20A361706FA0AC20206199A19DA275
:1009D0002E00486F97AB9E20A361706FA0AC20A340
:1009E0006FA0AC9C2E00896F97A46F709DA46520AA
:1009F0004E20A36FA0AC9C2E202000429765999DAD
:100A0000A465204E20A36FA0AC9C2E008A82418852
:100A100045484121004263AF20A1A2A56F70A161AA
:100A2000A6A1AF2096799965A40042A29DA161A2DA
:100A30009D6521004FA4A165A261004396706F637C
:100A400000A361706FA0AC204E4F2100A361706FB6
:100A5000A0AC204F4B2100429765999DA46520A32F
:100A600061706FA0AC21001F1C1F1E1F1E1F1F1EC8
:100A70001F1E1F4E6F206572726F7220666F756E3B
:100A8000642E0043616E2774206F70656E20726F54
:100A90006F74206469726563746F72792E00496E99
:100AA00076616C696420666F726D61742C2072656A
:100AB000666F726D61742053442E004E6F20636127
:100AC00072642C2077726F6E672063686970207380
:100AD000656C6563742070696E2C206F72205350B2
:100AE000492070726F626C656D3F0043616E2774C0
:100AF0002061636365737320534420636172642EC5
:100B000020446F206E6F74207265666F726D617421
:100B10002E002C3058005344206572726F72436F60
:100B200064653A203058001010208F00000000004B
:100B300000000000000000000000000000000000B5
:100B4000000000000000000000000000000000079E
:100B5000000F800F800F800F800F800700070000BC
:100B6000000000070007000700000000000E380E1C
:100B7000380E380E3806300000000000000000007B
:100B8000000000000000000000000000000C300C1D
:100B9000300C307FFE7FFE0C300C300C300C307F80
:100BA000FE7FFE0C300C300C3000000000024002D2
:100BB000400FF81FF81A401A401FF00FF8025802B1
:100BC000581FF81FF0024002400000000000000023
:100BD000000E100E300E7000E001C0038007000E02
:100BE000700C700870000000000000000000000F92
:100BF000001980198019800F000F080F9819F81834
:100C0000F018E019F00F9800000000000000000745
:100C100000070007000E00000000000000000000B8
:100C200000000000000000000000000000000000C4
:100C3000F001C0038007000E000E000E000E00073A
:100C400000038001C000F000000000000000000F61
:100C500000038001C000E0007000700070007000B0
:100C6000E001C003800F0000000000000000000150
:100C7000801188099007E007E03FFC3FFC07E00790
:100C8000E0099011880180000000000000000000D1
:100C90000000000180018001800FF00FF001800151
:100CA0008001800000000000000000000000000043
:100CB0000000000000000000000000000000000034
:100CC000000700070007000E000000000000000001
:100CD0000000000000000000001FF81FF8000000E6
:100CE0000000000000000000000000000000000004
:100CF00000000000000000000000000000000000F4
:100D000000070007000700000000000000000000CE
:100D1000020006000E001C0038007000E001C00355
:100D20008007000E001C0000000000000000000F03
:100D3000F01C381C781CF81CF81DB81DB81F381F93
:100D4000381E381C380FF0000000000000000001C1
:100D500080018003801F801F800380038003800345
:100D600080038003801FF000000000000000000FDF
:100D7000E01C701C380038007000E001C0038007E0
:100D8000000E381C381FF800000000000000000FA3
:100D9000E01C701C380038007003C003C0007000F5
:100DA000381C381C700FE00000000000000000003C
:100DB000E001E003E006E00CE018E01FF81FF80097
:100DC000E000E000E003F800000000000000001F69
:100DD000F81C001C001C001C001FE01FF000780025
:100DE000381C381C700FE0000000000000000003F9
:100DF000E007000E001C001C001FF01FF81C381C30
:100E0000381C381C380FF000000000000000001FE4
:100E1000FC1C1C1C1C1C1C001C0038007000E00189
:100E2000C003800380038000000000000000000F6A
:100E3000F01C381C381C381F3807E007E01CF81C71
:100E4000381C381C380FF000000000000000000FB4
:100E5000F01C381C381C381C381FF80FF8003800FC
:100E600038007000E007C000000000000000000033
:100E70000000000380038003800000000003800363
:100E8000800380000000000000000000000000005F
:100E90000000000380038003800000000003800343
:100EA00080038007000000000000000000007000C8
:100EB000E001C0038007000E001C001C000E0007AC
:100EC00000038001C000E00070000000000000008E
:100ED00000000000003FFC3FFC000000003FFC3F22
:100EE000FC0000000000000000000000001C000EDC
:100EF000000700038001C000E00070007000E00106
:100F0000C0038007000E001C000000000003C00F9B
:100F1000F01E7818380038007000E001C001C000F1
:100F200000000001C001C001C0000000000FF81C5B
:100F30001C1C1C1C1C1C1C1CFC1CFC1CFC1CFC1C71
:100F4000001C001C001FF007F80000000000000358
:100F5000C007E00E701C381C381C381C381FF81CE9
:100F6000381C381C381C3800000000000000001F2E
:100F7000F00E380E380E380E380FF00FF00E380E17
:100F8000380E380E381FF000000000000000000787
:100F9000F00E381C381C001C001C001C001C001C1F
:100FA000001C380E3807F000000000000000001F91
:100FB000E00E700E380E380E380E380E380E380E21
:100FC000380E380E701FE000000000000000001F07
:100FD000F80E180E080E000E300FF00FF00E300E47
:100FE000000E080E181FF800000000000000001F8F
:100FF000F80E180E080E000E300FF00FF00E300E27
:10100000000E000E001F000000000000000000079E
:10101000F00E381C381C381C001C001C001CF81C6E
:10102000381C380E3807F800000000000000001CD3
:10103000701C701C701C701C701FF01FF01C701C4A
:10104000701C701C701C7000000000000000000F7D
:10105000E003800380038003800380038003800318
:1010600080038003800FE00000000000000000010A
:10107000FC007000700070007000700070387038F4
:1010800070387038700FE000000000000000001E93
:10109000380E380E700EE00FC00F800F800FC00E9C
:1010A000E00E700E381E3800000000000000001F27
:1010B000000E000E000E000E000E000E000E000EC0
:1010C000080E180E381FF800000000000000001C79
:1010D0001C1E3C1F7C1FFC1FFC1DDC1C9C1C1C1CC4
:1010E0001C1C1C1C1C1C1C00000000000000001C20
:1010F0001C1C1C1E1C1F1C1F9C1DDC1CFC1C7C1CA7
:101100003C1C1C1C1C1C1C000000000000000003F8
:10111000E007F00E381C1C1C1C1C1C1C1C1C1C1C7E
:101120001C0E3807F003E000000000000000001F64
:10113000F00E380E380E380E380FF00FF00E000E8D
:10114000000E000E001F0000000000000000000361
:10115000E00F780E381C1C1C1C1C1C1C1C1C7C1C4E
:10116000FC0FF80FF8003800FC0000000000001F22
:10117000F00E380E380E380E380FF00FF00E700EDD
:10118000380E380E381E3800000000000000000F36
:10119000F01C381C381C381C000FE007F000381C0D
:1011A000381C381C380FF000000000000000001F41
:1011B000FC19CC11C401C001C001C001C001C001B3
:1011C000C001C001C007F000000000000000001CCA
:1011D000701C701C701C701C701C701C701C701CAF
:1011E000701C701C700FE000000000000000001C6C
:1011F000701C701C701C701C701C701C701C701C8F
:10120000700EE007C0038000000000000000001C1A
:101210001C1C1C1C1C1C1C1C1C1C9C1C9C1C9C0F9B
:10122000F80FF80770077000000000000000001CB5
:10123000701C701C700EE007C00380038007C00E96
:10124000E01C701C701C7000000000000000001CFE
:10125000701C701C701C701C700EE007C0038003B3
:1012600080038003800FE000000000000000001FEA
:10127000F81C381838107000E001C0038007000E19
:10128000081C181C381FF8000000000000000007B0
:10129000F007000700070007000700070007000726
:1012A000000700070007F000000000000000001029
:1012B0000018001C000E000700038001C000E000C1
:1012C000700038001C00070000000000000000074C
:1012D000F00070007000700070007000700070000E
:1012E000700070007007F000000000000001800333
:1012F000C007E00E701C3800000000000000000075
:1013000000000000000000000000000000000000DD
:1013100000000000000000000000000000000000CD
:10132000000000000000007FFF7FFF000000001CA5
:10133000001C000700070000000000000000000083
:10134000000000000000000000000000000000009D
:10135000000000000000000FE0007000700FF01CA3
:10136000701C701C700FD800000000000000001EF0
:10137000000E000E000E000FF00E380E380E380E64
:10138000380E380E381BF00000000000000000008E
:10139000000000000000000FE01C701C701C001C0E
:1013A000001C701C700FE000000000000000000036
:1013B000F80070007000700FF01C701C701C701C26
:1013C000701C701C700FD8000000000000000000AE
:1013D000000000000000000FE01C701C701FF01CDB
:1013E000001C701C700FE0000000000000000003F3
:1013F000E007700770070007001FE01FE007000705
:1014000000070007001FC0000000000000000000EF
:10141000000000000000000FD81C701C701C701C25
:10142000700FF007F000701C700FE0000000001E4D
:10143000000E000E000E000EF00F380F380E380EA2
:10144000380E380E381E3800000000000000000181
:10145000C001C001C000000FC001C001C001C00137
:10146000C001C001C00FF800000000000000000033
:101470007000700070000003F000700070007000D9
:1014800070007000701C700CF007E0000000001E7F
:10149000000E000E000E000E380E700EE00FC00E93
:1014A000E00E700E381E3800000000000000000F33
:1014B000C001C001C001C001C001C001C001C00124
:1014C000C001C001C00FF8000000000000000000D3
:1014D000000000000000001FF81C9C1C9C1C9C1CB1
:1014E0009C1C9C1C9C1C9C00000000000000000038
:1014F000000000000000001FE01C701C701C701C2D
:10150000701C701C701C70000000000000000000C7
:10151000000000000000000FE01C701C701C701C1C
:10152000701C701C700FE000000000000000000044
:10153000000000000000001BF00E380E380E380EC0
:10154000380E380FF00E000E001F000000000000E3
:10155000000000000000001FB038E038E038E0383C
:10156000E038E01FE000E000E001F00000000000D3
:10157000000000000000001EF00FF80F380E000EF3
:10158000000E000E001F0000000000000000000020
:10159000000000000000000FE01C301C300F800332
:1015A000E0187018700FE00000000000000000005C
:1015B000000100030007001FF007000700070007F5
:1015C000000770077003E00000000000000000004A
:1015D000000000000000001C701C701C701C701CBF
:1015E000701C701C700FD80000000000000000008C
:1015F000000000000000001C701C701C701C701C9F
:10160000700EE007C0038000000000000000000032
:10161000000000000000001C1C1C1C1C1C1C9C1C4E
:101620009C0FF80770077000000000000000000029
:10163000000000000000001CE01CE00FC007800755
:10164000800FC01CE01CE000000000000000000053
:10165000000000000000000E380E380E380E380E64
:101660003807F003E000E001C01F80000000000028
:10167000000000000000001FE018E011C003800718
:10168000000E201C601FE0000000000000000001B0
:10169000F803800380038007001C001C0007000380
:1016A000800380038001F800000000000001C001F9
:1016B000C001C001C001C001C001C001C001C00122
:1016C000C001C001C001C001C00000000000001F37
:1016D0008001C001C001C000E00038003800E00116
:1016E000C001C001C01F8000000000000000001FFA
:1016F0001C3B9C39DC38F8000000000000000000B2
:1017000000000000000000000000000000000000D9
:10171000F001F80198019801F800F00000000000C5
:101720000000000000000000000000000000001F9A
:10173000F80E180E080E000E000FF00E380E380EC0
:10174000380E380E381FF000000000000000001FA7
:10175000F80E180E080E000E000E000E000E000E01
:10176000000E000E001F0000000000000000000737
:10177000F00C701C701C701C701C701C701C701C99
:10178000701C701C703FF830182008066000001FA5
:10179000F80E180E080E000E300FF00FF00E300E7F
:1017A000000E080E181FF8000000000000000033B3
:1017B000CC1998199819980DB00FF00FF01DB819A1
:1017C000981998199833CC00000000000000001709
:1017D000E01E701C381038007003C003C000700099
:1017E000381C381C700FE000000000000000001CD6
:1017F000701C701C701C701C701C701CF01DF01F85
:10180000701E701C701C7000000000038000001C23
:10181000701C701C701C701C701C701CF01DF01F64
:10182000701E701C701C700000000000000000039F
:10183000F006700E700E700E700E700E700E700E40
:10184000700E700E701C7000000000000000001F81
:10185000F01C701C701C701C701C701C701C701CA8
:10186000701C701C701C7000000000000000001C48
:10187000701C701C701C701C701C700FF007F00046
:101880007000701CE00FC000000000000000001F8E
:10189000F033983398339833983398339833981FAC
:1018A000F00380038007C000000000000000001C5F
:1018B000701C701C701C701C701C701C701C701CC8
:1018C000701C701C701FF800180008000000001C3D
:1018D000701C701C701C701C701C701FF00FF000CE
:1018E00070007000700070000000000000000039FF
:1018F0009C399C399C399C399C399C399C399C3940
:101900009C399C399C3FFC0000000000000000391D
:101910009C399C399C399C399C399C399C399C391F
:101920009C399C399C3FFE00060002000000003FED
:10193000002E002E000E000E000FF00E380E380E96
:10194000380E380E381FF00000000000000000388C
:101950001C381C381C381C381C3F9C39DC39DC39DD
:10196000DC39DC39DC3F9C00000000000000001F77
:10197000000E000E000E000E000FF00E380E380E96
:10198000380E380E381FF000000000000000000F75
:10199000E01C701C380038003803F803F8003800E9
:1019A000381C381C700FE000000000000000003CF4
:1019B000F81D9C1D9C1D9C1D9C1F9C1F9C1D9C1DFF
:1019C0009C1D9C1D9C3CF800000000000000000FC6
:1019D000F81C701C701C701C701C701FF00FF01C29
:1019E000701C701C703878000000000000000000BF
:1019F0001807F80F000E000E000FF00E380E380E0C
:101A0000380E380E3807F00000000000000000001B
:101A1000000000000000001FF00E380E380FF00E1E
:101A2000380E380E381FF0000000000000000000E3
:101A3000000000000000001FF81C381C001C001CE7
:101A4000001C001C001C0000000000000000000042
:101A50000000000000000007F00E700E700E700E07
:101A6000700E700E701FF8100800000000000000DB
:101A700000000006C000000FE01C701C701FF01C6E
:101A8000001C701C700FE00000000000000000004F
:101A90000000000000000019CC19CC19CC0DD807AB
:101AA000F00DD819CC19CC00000000000000000097
:101AB000000000000000000FE01C70007003E00058
:101AC0007000701C700FE0000000000000000000BB
:101AD000000000000000001C701C701C701CF01D39
:101AE000701E701C701C70000000000000000000E0
:101AF00000000001C000000E380E380E380E780EBF
:101B0000B80F380E380E380000000000000000004A
:101B1000000000000000000E380E380E700FE00EBE
:101B2000700E380E380E3800000000000000000073
:101B30000000000000000003F807380738073807E6
:101B400038073807380E3800000000000000000099
:101B5000000000000000003838383838383C783A47
:101B6000B83938383838380000000000000000006C
:101B7000000000000000001C701C701C701C701F16
:101B8000F01C701C701C70000000000000000000C1
:101B9000000000000000001FF01C701C701C701C76
:101BA000701C701C701C7000000000000000000021
:101BB000000000000000001FF0139003800380036A
:101BC000800380038003800000000000000000000C
:101BD000000000000003801FF03BB83BB83BB83B5F
:101BE000B80FF003800380038000000000000000B5
:101BF000000000000000001C701C701C701C701C99
:101C0000701C701C701FF80018000000000000001D
:101C1000000000000000001C701C701C701C700F85
:101C2000F000700070007000000000000000000074
:101C300000000000000000399C399C399C399C3917
:101C40009C399C399C3FFC00000000000000000013
:101C500000000000000000399C399C399C399C39F7
:101C60009C399C399C3FFE000600000000000000EB
:101C7000000000000000003E002E000E000FF00EDD
:101C8000380E380E380FF000000000000000000091
:101C900000000000000000381C381C381C3F9C3934
:101CA000DC39DC39DC3F9C00000000000000000053
:101CB000000000000000000E000E000E000FF00EED
:101CC000380E380E380FF000000000000000000051
:101CD000000000000000000FE01C70007003F00026
:101CE0007000701C700FE000000000000000000099
:101CF0000000000000000038F8399C399C399C3FF6
:101D00009C399C399C38F80000000000000000005D
:101D10000000000000000007F80E380E380E3807EB
:101D2000F80E380E381C3800000000080C20A60001
:101D30000000000000000000000000000020202043
:101D4000202020002000000028505000000000004B
:101D500000000000002828FC2850FC505000000023
:101D60002078A8A0603028A8F02000000048A8B083
:101D700050283454480000000020505078A8A89003
:101D80006C000000404080000000000000000000E7
:101D9000040810101010101008040000402010104B
:101DA0001010101020400000000020A87070A82023
:101DB0000000000000202020F8202020000000006B
:101DC0000000000000000000404080000000000013
:101DD000F80000000000000000000000000000000B
:101DE00040000000081010102020404040800000FB
:101DF0000070888888888888700000000020602033
:101E00002020202070000000007088881020408072
:101E1000F800000000708808300808887000000092
:101E200000103050509078101800000000F88080AA
:101E3000F00808887000000000709080F0888888A2
:101E40007000000000F890102020202020000000EA
:101E5000007088887088888870000000007088880A
:101E60008878084870000000000000200000000092
:101E700020000000000000002000000020200000E2
:101E8000040810204020100804000000000000F8A2
:101E90000000F80000000000402010080408102096
:101EA0004000000000708888102020002000000002
:101EB00000708898A8A8B880780000000020203022
:101EC00050507848CC00000000F04848704848481E
:101ED000F00000000078888080808088700000001A
:101EE00000F0484848484848F000000000F84850D2
:101EF00070504048F800000000F8485070504040D2
:101F0000E000000000384880809C884830000000D5
:101F100000CC484878484848CC00000000F8202011
:101F200020202020F8000000007C1010101010105D
:101F300090E0000000EC485060505048EC00000079
:101F400000E0404040404044FC00000000D8D8D8A9
:101F5000D8A8A8A8A800000000DC4868685858481D
:101F6000E800000000708888888888887000000079
:101F700000F0484870404040E00000000070888851
:101F80008888E8987018000000F048487050484869
:101F9000EC0000000078888060100888F0000000E5
:101FA00000F8A820202020207000000000CC484825
:101FB000484848483000000000CC48485050302085
:101FC0002000000000A8A8A8705050505000000049
:101FD00000D8505020205050D800000000D8505059
:101FE000202020207000000000F8901020204048A1
:101FF000F800000038202020202020202038000079
:1020000040404020201010100800000070101010F8
:102010001010101010700000205000000000000090
:102020000000000000000000000000000000FC00B4
:102030002000000000000000000000000000000080
:10204000304838483C00000000C0404070484848D4
:1020500070000000000000003848404038000000D8
:1020600000180808384848483C00000000000000FC
:102070003048784038000000001C202078202020C4
:1020800078000000000000003C48304078443800F0
:1020900000C0404070484848EC00000000200000AC
:1020A0006020202070000000001000003010101090
:1020B0001010E00000C040405C507048EC00000090
:1020C00000E0202020202020F80000000000000078
:1020D000F0A8A8A8A800000000000000F0484848A8
:1020E000EC000000000000003048484830000000CC
:1020F00000000000F04848487040E0000000000088
:102100003848484838081C0000000000D8604040AB
:10211000E000000000000000784030087800000077
:102120000000202070202020180000000000000087
:10213000D84848483C00000000000000EC485030FF
:102140002000000000000000A8A87050500000000F
:1021500000000000D8502050D8000000000000000F
:10216000EC4850302020C0000000000078102020F3
:102170007800000018101010201010101018001017
:1021800010101010101010101010100060202020DF
:102190001020202020600040A41800000000000053
:1021A000000000000030484830000000000000003F
:1021B00000F8484070484848F000000000F84840E7
:1021C00040404040E0000000003848484848484847
:1021D000FC84005000F8485070504048F80000005F
:1021E00000A8A8A870F8A8A8A800000000F0880817
:1021F00030080808F000000000EC485858686848AB
:10220000DC00003000EC485858686848DC000000EA
:10221000003C484848484848CC00000000FC48487A
:1022200048484848CC00000000D85050202040408A
:10223000800000000070A8A8A8A87020700000000E
:1022400000CC484848484848FC04000000CC4848B6
:10225000483808081C00000000D654545454545404
:10226000FE00000000D6545454545454FE020000A2
:1022700000E0C04070484848F000000000EE4444D0
:1022800064545454EE00000000E040407048484858
:10229000F000000000E0900838080890600000009E
:1022A00000EC525252725252EC000000003C48487E
:1022B000483848489C0000000008304070484848B2
:1022C000300000000000000070283028700000007E
:1022D00000000000782820207000000000000000AE
:1022E000182828287C440000000028003048784046
:1022F0003000000000000000545438545400000026
:1023000000000000700830087000000000000000AD
:10231000CC485868CC00000000003000CC48586819
:10232000CC00000000000000485060504800000051
:10233000000000001C2828284C00000000000000BD
:10234000446C54444400000000000000CC4878482D
:10235000CC00000000000000FC484848CC00000011
:10236000000000007C541010380000000000000045
:10237000385454543810380000000000CC48484805
:10238000FC04000000000000CC4838080C000000ED
:1023900000000000545454547C0000000000000071
:1023A000545454547E02000000000000E0A0302885
:1023B0007000000000000000C6446454E600000005
:1023C00000000000602030287000000000000000C5
:1023D000304818483000000000000000C854745411
:1023E000C8000000000000003C4848384C00003C99
:1023F000E781BD81BD81BD81BD81FF3CE7818181D8
:10240000BD81BD81BD81FF3CE78181818181BD812D
:10241000BD81FF3CE781818181818181BD81FF3C5C
:10242000E7818181818181818181FFFFFF003F3FC1
:10243000000F0F000303000000003F3F000F0F00DC
:102440000303000000000000000F0F000303000062
:102450000000000000000000030300000010101046
:1024600010105438100000000010385410101010D4
:102470001000000000000010087C081000000000A0
:1024800000000010207C20100000000000003C0C28
:1024900014244480000000000000804424140C3CFC
:1024A00000000000003C42A581A599423C000000CC
:1024B000003C7EDBFFFFDB663C000000003C42A5E9
:1024C0008199A5423C000000003C7EDBFFFFE75AFB
:1024D0003C000000003C4281818181423C000000C0
:1024E000003C7EFFFFFFFF7E3C00000000FF81817B
:1024F00081818181FF00000000FFFFFFFFFFFFFFE0
:10250000FF00002018205F00000000000000000015
:1025100000000000000000000000000000000000BB
:1025200000000000000000000000000000000000AB
:10253000000000000000000000000000000000009B
:10254000000000000000000000000000000000008B
:10255000000000000000000000000000000000007B
:10256000000000000000000000000000000000006B
:10257000120000001F8000000DC000001EE00000DF
:102580003330000061980000CCCC0000CC6C00011E
:102590008036000302360007061B00018E1B000078
:1025A000F61B0000061B0000061B0000061B0000B7
:1025B00007FB000007FB0000000000000000000017
:1025C000000000000000000000000007FFFE000700
:1025D000FFFF0006000300060003000606330006A6
:1025E0000633000600330006003300070033000303
:1025F00080330001C0330000FC3300007C33000056
:102600000C3F00000C1E00000C0000001BFC000032
:10261000192400001FFC0000000000000000000062
:1026200000000000000000000000000000000000AA
:1026300080040000EFDC0000FFFC0000D02C000054
:10264000C00C0001800600018006000300030003A7
:102650000CC300030CC300030003000303030001C9
:102660008A4600018FC60000E01C000070380000A0
:102670003FF000000FC0000000000000000000005C
:10268000000000000000000000000000000000004A
:10269000E01E0003F7BF0003FFFF0003F03F00034D
:1026A000E01F0001800600019C66000335B30003B3
:1026B000353300033CF300037C7B000338730001D7
:1026C0008006000180060000E01C00007038000059
:1026D0003FF000000FC000000000000000000000FC
:1026E00000000000000000000000000000000000EA
:1026F0000FE00000303F00004000800080008001BB
:102700000000800130008002300080020001800261
:1027100000010002000100020101000201010002AB
:102720007F0100024101000241020002410200015A
:1027300038FC000188000000780000000000000064
:102740000000000000000000000000000780000002
:102750001FE000003FF000007FF800007FFC000059
:10276000FFFC0000FFFC0001C00E00019FE600011D
:102770008CC60001CCCE0001C00E0001CCCE000101
:1027800097A600018006000180060000C00C000032
:10279000FFFC00003FF0000000000000000000000F
:1027A0000000000000000000000000000000000029
:1027B000000000000000000000000001C000000652
:1027C000C0030004400280064002400E2001400188
:1027D0002E0320009102200085FE20044569200C74
:1027E000C300201FE0006010000040180E99800F09
:1027F000F8E100000FBF0000000000000000000032
:1028000000000000000000000000000000000000C8
:1028100070380000FFFC00008FC60001BFF6000109
:10282000F87E0001E01F0003C00F000380070003D3
:102830008CC600038CC700038007000383070003D6
:10284000C94F0003CFCF0003C00F0000F03C0000D1
:10285000FCFC00003FF0000003000000000000004E
:102860000000000000000000000000000000000068
:10287000078000000FC0000019E0000039E00000F0
:102880005FE000003FE0000017E0000013F00000F0
:1028900013F0000033F8000023F8000023FC0000D0
:1028A00023F0000033F000001BF000001FF00000D8
:1028B00021F800003FF800000000000000000000C8
:1028C0000000000000000000000000000000000008
:1028D0000000000000000000000020000000E000F8
:1028E0000000C01FFFFFC01FFFFFC0107FFFC0150B
:1028F0007FFDC015BFF8E00AFFF8600F3FF000074A
:10290000FFC00001FF800000078000000080000081
:1029100000000000000000000000000000000000B7
:1029200000000000000000000000000000000000A7
:102930000000000000000000000000000C0000008B
:102940000F0000001FC00000FFE00001EFF1C00316
:10295000EFFB80066FFF000E63FF0007F3FB8003B1
:10296000EBF18000FFF040001C10000000000000B0
:102970000000000000000000000000000000000057
:102980000000000000000000000000000000000047
:102990000100000003000000070000000F0000001D
:1029A0001700000023010000C0830001804F0002D7
:1029B000603F0006603F0001804F0000C0830000C0
:1029C00023010000170000000F00000007000000B6
:1029D00003000000010000000000000000000000F3
:1029E00000000000000000000000000000000000E7
:1029F000000000001FE0000067980000F03C0001AC
:102A0000E79E0003EFFF00020C310003F8DF8007B0
:102A1000E8DF8007F81F8007F83F8007E8FF80079E
:102A200028D380061CE18002172100021FE100026A
:102A300010210003F03F0000000000000000000033
:102A40000000000000000000000000000000000086
:102A50001C7000001450000092940000FABE0000A8
:102A6000FABE0000FBBE0000739C00000FE00000F7
:102A700007C000001FF0000007C000001FF00000AA
:102A80001FF0000007C000000380000006C0000027
:102A90000FE000000FE00000000000000000000058
:102AA0000000000000000000000000000000000026
:102AB00001C000000FE000003FA000007FE0000028
:102AC0007DE00000F0000000F0000000FBE00000EE
:102AD000FFF00000FFF80000FFF800007FFC00009E
:102AE0007FFC00007FFC000077FE000077FE000006
:102AF000771F0000771C800000000000000000002D
:102B00000000000000000000000000000FC00000F6
:102B100030300000C00C000180C6000101F200024C
:102B200003F1000207A10004076080040E00800486
:102B30000C0080041C0080041C0080041C00800227
:102B40003E0100023A0100011402000024060000C8
:102B5000200C0000303000000FC00000000000001A
:102B60000000000000000000000000000000000065
:102B7000000000000000000000000007FFFF8005CB
:102B800000008005C0008007FFFF8007FFFF800472
:102B90000000800400008004000080040000800425
:102BA000000080040000800400008007FFFF800018
:102BB0000000000000000000000000000000000015
:102BC0000000000000000000000000000000000005
:102BD00000000000000000000000000000000003F2
:102BE000FFFF800200008006FE3E8006FE00800699
:102BF00000008006FFFE8006FEFE800600008007C3
:102C0000FFFF800400010007FFFF0000000000003C
:102C100000000000000000000000000000000000B4
:102C200000000000000000000000000000000000A4
:102C300000000000000000000038000000C6000096
:102C40000082000000820003FF83800200448006AF
:102C50000738800618C080061040800610408006A5
:102C600018C0800607008007FFFF800400010007EE
:102C7000FFFF000000000000000000000000000056
:102C80000000000000000000000000000000000044
:102C9000440000004400000044000000FE0000006A
:102CA00082000000FE000000FE000000FE000000A8
:102CB0007C000000100000001078000010CC000024
:102CC00010840000108400001084000019840000AB
:102CD0000F040000000400000000000000000000DD
:102CE00000000000000000000000000000000000E4
:102CF0000000000000000000000000007C00000058
:102D0000920000009200000082000000EE0000002F
:102D1000820000007C0000001078000010CC000051
:102D2000108400001084000010840000198400004A
:102D30000F0400000004000000000000000000007C
:102D40000000000000000000000000000000000083
:102D5000020000000200000047100000CF980000B1
:102D6000EFB80001DFDC0003CF9E0001FFFC000193
:102D7000FFFC0003DFDE0003AFAE0007FFFF000330
:102D8000DFDE0003BFEE0007870F0007F77F0008B4
:102D9000E7388000E7380000000000000000000075
:102DA0000000000000000000000000000000000023
:102DB00037B0000037B000003FF000003FF00000E7
:102DC0003FF000001FE000000FC000000300000003
:102DD00003000003C30F0001E31E0000F33C0000EA
:102DE0007B7800003FF000001FE000000FC00000F3
:102DF0000780000003000000000000000000000049
:102E000000000000000000000000000002000000C0
:102E100002000000070000000500000002000000A2
:102E2000078000001FC00000272000001FC0000016
:102E30003FE000007FF000009FC800003FE000007E
:102E4000FFF80001FFFC0003FFFE00040701000083
:102E50000700000007000000000000000000000064
:102E60000000000000000000000000000000000062
:102E7000190000001B8000001FC000001FE00000C0
:102E80001FF000003FF800007FFC0000FFFE000084
:102E9000E10E0000E10E0000E10E0000FFFE000068
:102EA000FFFE0000E10E0000E10E0000E10E000058
:102EB000FFFE0000FFFE0000000000000000000018
:102EC0000000000000000000000000000000000002
:102ED0007FFC00004004000059B4000059B4000019
:102EE000400400004004000059B4000059B4000040
:102EF000400400004004000059B4000059B4000030
:102F000040040000400400004184000041840000AF
:102F1000418400007FFC0000000000000000000071
:102F2000000000000000000000000003FFE00002BD
:102F300000200002FFA0000200200002FFA000020B
:102F400000200002FFA0000200200002FFA00002FB
:102F500000200002FFA00002FFA0000200200002EB
:102F6000FFA00002002000023E2000023E200002DE
:102F70003E200003FFE00000000000000000000011
:102F8000000000000000000000000000030000003E
:102F9000030000000FC000000FC00000030000008D
:102FA000030000000FC000001FE000007FF80000D9
:102FB000FFFC0001FFFE0001FCFE0001F87E0001A5
:102FC000F87E0001F87E0001F87E0001F87E000125
:102FD000F87E0001F87E0000000000000000000004
:102FE00000000000000000000000000000000001E0
:102FF000FDFC000322260002000200020002000085
:10300000222600007DFC00030000000300000003F6
:10301000000000030842000318C6000339CE000375
:103020007BFE0003FFFE0003FFFE0003FFFE000324
:10303000FFFE0003FFFE0000000000000000000093
:103040000000000000000000000000000100001867
:103050000FC06017DFEFA010713820103130201042
:10306000D12C201F1FE3E0001FE000001FC0000064
:103070001FC000001FC000001FC000001FC00000D4
:103080001FE000001FE000001FE000001FE0000044
:103090001FE000001FE00000000000000000000032
:1030A0000000000000000000000000000000000020
:1030B0000FE000000C6000000920000009A00000E3
:1030C000082000000C6000000FE000007FFC000002
:1030D0007FFC00007FFC0001FFFF0001FC7F00017E
:1030E000F83F0001F83F0001F83F0001F83F000100
:1030F000F83F0001F83F0000000000000000000061
:1031000000000000000000000000000008000000B7
:103110000F0000000BE00000087800000808000025
:103120000F0800000BE80000087800000808000005
:10313000080800000808000008080000080800004F
:1031400078080000F8080001F8080001F078000194
:10315000E0F8000001F8000001F0000000E00000CD
:10316000000000000000000000000000000000005F
:103170001C3800003E7C00003E7C00003E7C0000CD
:103180001C38000100000001CFF00001FFF0000139
:10319000FFF00001FFF00001CFF0000107E00000A8
:1031A00005A000000DB00000099000001998000073
:1031B00011880000318C00000000000000000000B9
:1031C00000000000000000000000000000000000FF
:1031D0007FFE0000A014000140140001C01800018F
:1031E0004018000140280001FFF8000140180001CC
:1031F00040140000C01C0000A0140000A00C00003F
:103200007FFC0000A00E0000E00C0000E00C0000BD
:10321000C0140001FFF800000000000000000000E2
:10322000000000000000000000000000000000009E
:1032300000000000000E000001F600003ECE00037A
:10324000F9F000023E000003FFFE00031CE2000351
:10325000FFFE00007FFE00007FFE00007FFE0000FA
:103260007FFE00007FFE00007FFE00007FFE00006A
:10327000000000000000000000000000000000004E
:10328000000000000000000000000000000000003E
:10329000FFE000008220000082200000FF200000EC
:1032A00081200000FFE000008E200000FFE0000011
:1032B00080200000FFE000008720000085E0000083
:1032C000FD300000152E00006F2A000041EE0000C6
:1032D0003C3C000007F0000000000000000000007F
:1032E00000000000000000000000000000000000DE
:1032F00020000000200000005000000058000000E6
:1033000057000000290000002C80000024800000ED
:103310001250000049B8000044F00000435C000077
:10332000A0BF80071D7F8000A08F800040070000A5
:10333000400000004000000000000000000000000D
:10334000000000000000000000000000000000007D
:103350000F00000030C000002040000040230000AB
:103360004026000040260000402E0000205A0000A9
:1033700030F100000F190000051E0000773C00002E
:103380007C7C0000FFF800007FF000001FE00000E0
:1033900007C0000000C000000000000000000000A6
:1033A000000000000000000000000000000000001D
:1033B0000120000006D8000004C800000DA800008D
:1033C00015FC000065A60000E3720001F69C0003F6
:1033D000FB670000FC9700007E3F00003DFF80007F
:1033E0001750000039D800000EC8000004C80000C3
:1033F00009B800001B0000000400000000000000ED
:103400000000000000000000000000001018000094
:1034100010100004082000020BA0C00103E100000E
:1034200083F200000FFC000033FE000861FF00077C
:10343000763F0000780F00007C0F00003E06000081
:103440009FF800010FFA000607F9000803F8800052
:103450001BF8C00010000000208400002084000041
:1034600000800000000000000000000000000000DC
:103470000000000003000000030000000FC0000077
:103480001FE000003FF000007FF80000649800009B
:10349000649800007FF8000000000001FFFE0003B8
:1034A000FFFF0007FFFF8001F7BE0001F7BE00002D
:1034B000E31C00000000000000000000000000000D
:1034C00000000000000000000000000000000000FC
:1034D00000000000000000000000000000000000EC
:1034E0000000000003F8000FC7FC0001FFFC000013
:1034F00007FC000007FC000000000000FFFF0001C7
:10350000FFFF8001FFFF8001FFFF8001FFFF8001BF
:103510000000800180018000FFFF0000000000002B
:10352000000000000000000000000000000000009B
:10353000007800001044000020240000471600001E
:10354000C89E0003504F0004504F0002904F0007E8
:1035500088878007871F8007E53FC00FF77F000F30
:10356000F8FE0003FDFC00007DF800007FF0000085
:103570007FF000007FF0000000000000000000006D
:1035800000000000000000000000000001800000BA
:1035900003800000034000000240000004400000DF
:1035A00004C0000003800000070000000E000000BF
:1035B00019C0000037E00000357000003530000011
:1035C00033300000192000001CE0000007800000DC
:1035D000008000000E8000000E8000000700000048
:1035E00000000000000000000000000000000000DB
:1035F000010000000180000001C0000001E00000A7
:10360000017000000118000001080000010800001E
:103610000108000001080000011000000120000066
:1036200001000000010000000F0000003F0000004A
:103630003E0000003C000000000000000000000010
:103640000000000000000000000000000000000773
:10365000FFFF800400008004FFFC8005FFFE800562
:10366000FF068005FF068005FF068005FFF6800542
:10367000FFF68005FFF68005FFFE8005FFFE800552
:10368000FFFE8005FFFE8004000080059BC08004D3
:1036900000008007FFFF8000000000000000000025
:1036A00000000000000000000000000000C000005A
:1036B000018000000200000004000000080000007B
:1036C0001000000020000003FFFE00024F0E000269
:1036D0004CE600027DF600024BFA00024BFA0002B3
:1036E0007BFA00027BFA00027DF600027CE6000213
:1036F0007F1E0001FFFC0000000000000000000031
:1037000000000000000000000000000000000000B9
:103710000FE0000016D000001930000016D00000A5
:1037200016D000001930000016D000003FF800004D
:10373000301800003FF800003FF800003FF800009C
:103740002FE80000200800001FF0000003800000A8
:10375000038000000FE000000000000000000000F7
:103760000000000000000000000000000000000059
:10377000000000000000000000000000FFFC000747
:10378000FFFF800FFFFFC00FC00FC0000FC0000F72
:103790009CE7C000303000003030000060180000AE
:1037A000E01C0000F03C0001F03E0001F87E00014A
:1037B000FFFE0001FFFE000000000000000000000E
:1037C00000000000000000000000000000000000F9
:1037D0000003E000003C100001F008001E3C040063
:1037E000FC3E0401833C04010138040206B0047E5F
:1037F00018B0048117B00480E8B004C028B0045F9A
:103800009880042048800410048038080383C00492
:10381000019C0003FFE00000000000000000000029
:103820000000000000000000000000000000000098
:103830000003E000001C100001E008000E0004007E
:103840007C00040183000401010004020080147E56
:103850000080E481008FE480C0BFE4C020B1C45F79
:103860009080C42048800410048038080283C0047B
:10387000019C0003FFE000000000000000000000C9
:103880000000000000000000000000000000000F29
:10389000F000000810000008100000780FFE004043
:1038A0000002004000020041FFFFF8410000084212
:1038B0000000104200001044000020480000204892
:1038C0000000405000008050000080600001006057
:1038D0000001007FFFFE000000000000000000006B
:1038E00000000000000000000000000000000000D8
:1038F0001FE000003FF000003030000030300007D3
:10390000FFFF8007FFFF8007FFFF8007FFFF8007A3
:10391000FFFF8007FFFF8007FFFF8007FFFF800793
:10392000FFFF8007FFFF8007FFFF8007FFFF800783
:10393000FFFF8007FFFF8000000000000000000084
:103940000000000000000000000000000000000077
:10395000000000000FE000001FF000073FF8000724
:1039600040040007FFFFC007FFFFC007F83FC00784
:10397000F01FC007E00FC007E00FC007E00FC0074F
:10398000E00FC007E00FC007F01FC007F83FC007F7
:10399000FFFFC007FFFFC0000000000000000000A4
:1039A0000000000000000000000000000000000017
:1039B0000FC0000030300000400800008304000108
:1039C00003020001030200020301000203010002DE
:1039D00003F9000203F900020001000200010001E6
:1039E0000002000100020000800400004008000006
:1039F000303000000FC00000000000000000000098
:103A000000000000000000000000000000000000B6
:103A10000000000000000000000000000000000F97
:103A200000000010800000108003C010801FE00F15
:103A3000F07F00003FF800001FE000001FE00000E2
:103A40003FF8000FF07F0010801FC0108003E010CF
:103A50008000000F000000000000000000000000D7
:103A60000000000000000000000000000000000056
:103A700007C000001830000033D800002C68000098
:103A800050140000501400005014000050140000A6
:103A9000FFFE0000FFFE0000FEFE0000FC7E0000B6
:103AA000FEFE0000FEFE00007EFC00003FF800006D
:103AB0001FF0000007C00000000000000000000030
:103AC00000000000000000000000000000000000F6
:103AD00000F8000001FC000003FE000007C7000022
:103AE00007C7000007C7000007FF00000FFF000026
:103AF0000FFE00000FFC00003FF800003F00000038
:103B0000FE000000FC000003F8000003F0000003CA
:103B1000E0000003C0000000000000000000000002
:103B20000000000000000000000000000000000095
:103B30000000000000000000000000003FF0000056
:103B4000201000004008000040080000400800006D
:103B500080040001FFFF00039FE700030FC3000381
:103B60000FC300039FE70003FFFF0000E01C0000FD
:103B7000E01C0000E01C000000000000000000004D
:103B80000000000000000000000000000000000035
:103B90000000000007800000048000001FE000001B
:103BA0002010000040100000400800004008000005
:103BB00080040001FFFF00039FE700030FC3000321
:103BC0000FC300039FE70003FFFF0000E01C00009D
:103BD000E01C0000E01C00000000000000000000ED
:103BE00000000000000000000000000000000000D5
:103BF000FFFC0000E01C0001E01E0001FFFE0001D0
:103C000000020001000200010002000100020001A8
:103C100000020001FFFE0001CFCE000187860001F7
:103C200087860001CFCE0001FFFE00007038000043
:103C30007038000070380000000000000000000034
:103C40000000000000000000000000000000000074
:103C50007FFC00007FFC00004004000040040000E6
:103C60004004000040040000400400004004000044
:103C7000400400007FFC0000478C0000478C0000DF
:103C8000478C00007FFC0000301800002008000076
:103C9000400400018003000000000000000000005C
:103CA0000000000000000000000000000000000014
:103CB0000700000007000000070000000780000068
:103CC000078000010780000187C0000187C0000154
:103CD000FFFF8001FFFF8001FFFF800187C000011F
:103CE00087800001078000000780000007000000B7
:103CF00007000000070000000000000000000000B6
:103D000000000000000000000000000000000000B3
:103D100000000000000000000000000FFFC0000FC6
:103D2000FFC0000FFFC0000FFFFF000FFFF8800F64
:103D3000FFF8800FFFF8800FFFF84000003FC00F32
:103D4000FFFFC00F01F9C00EC6F6C00DEF6F4001B6
:103D5000EF0F0000C6060000000000000000000099
:103D60000000000000000000000000000000000053
:103D7000000000000001C0000006600000082000F4
:103D8000001E2000006E400000B58000034B0000C4
:103D9000049400001B68000024B000005B40000198
:103DA000A58000015A0000026C0000045000000CC5
:103DB000E000000F00000010000000000000000004
:103DC00000000000000000000000000000000000F3
:103DD000004000000060000000F000000FC0000084
:103DE00033800000478000008E63F0011C1E7001CC
:103DF00038027002380270027B0270047C02700488
:103E0000800270078006700B7FFBF00A0000700CC8
:103E100000000000000000000000000000000000A2
:103E20000000000000000000000000000010000082
:103E30000038000000F8000000F8000001F8000061
:103E400001F8000003F8000003F0000007F0000094
:103E500005F000000F6000000DC000000F600000C2
:103E60000BC00000168000001200000022000000BD
:103E7000230000003C0000002000000000000000C3
:103E80000000000000000000000000000000000032
:103E900007FC0000181C00003FE400002024000084
:103EA00027240000202400002024000020240000FB
:103EB00020240000202400003FE400002024000013
:103EC00027240000202400002024000020280000D7
:103ED000203000003FE00000000000000000000073
:103EE00000000000000000000000000000000000D2
:103EF0001FE00000201000002010000030500000E3
:103F00002FD0000017E0000013A000000B400000BD
:103F1000058000000580000009400000112000001D
:103F20001120000021100000279000002FD0000079
:103F30002FD000001FE00000000000000000000083
:103F4000000000000000000000000000000000076A
:103F5000FDFF000C0701803C0201E03402016034E7
:103F600002016034020160340201603402016034F5
:103F700002016034020160340201603402016034E5
:103F800002016037FAFF6038070160380200E03F45
:103F9000FAFFE0000F8000000000000000000000B9
:103FA0000000000000000000000000000000000011
:103FB000FFFE00008002000080020000800200007E
:103FC00080020000800200008002000080020000E9
:103FD00080020000800200008002000080020000D9
:103FE00080020000803E0000802400008028000045
:103FF00080300000FFE00000000000000000000032
:1040000000000000000000000000000000000000B0
:10401000FFFE00008002000080020000BF8200005E
:104020008002000080020000BFFA0000BFFA00001A
:1040300080020000BFFA000080020000BFFA00000A
:1040400080020000BFBE0000802400008028000025
:1040500080300000FFE000000000000000000000D1
:104060000000000000000000000000000000000050
:104070000FFF800008008000080080007FFC8000A7
:1040800040048001FFF480010014800100148001CD
:104090007F948001001480017F94800100148001CE
:1040A0007F94800100148001001480017F948001BE
:1040B000001480017F978001001400017E1400012C
:1040C000001C0001FFF00000000000000000000FD5
:1040D000FFFFE008000020080003A009FC03A0087F
:1040E0000003A009FC03A0080003A00800002008AA
:1040F0000000200800002009FFF820080000200927
:10410000FFF8200800002009FFF820080000200820
:104110000000200FFFFFE000000000000000000092
:104120000000000000000000000000000000000F80
:10413000FFFFE00C0000600A0000A0090001200859
:1041400080022008400420082008200810102008C1
:10415000082020080C6020081AB0200823882008B6
:1041600040042008800220090001200A0000A00C61
:104170000000600FFFFFE0000000000000000000F2
:10418000000000000000000000000000000000012E
:10419000FFFC0001E01E0001E0DE0001E0DE0001A6
:1041A000E0DE0001E0DE0001E01E0001FFFE000194
:1041B00080060001800600018006000180060001E3
:1041C00080060001800600018006000180060001D3
:1041D00080060001FFFE000000000000000000005B
:1041E00000000000000000000000000000000003CC
:1041F000FFFF0002000300020003000200030002B0
:1042000000020003FFFF0003FFFF0003F8FF0003AD
:10421000F07F0003F07F0003F07F0003F8FF00034E
:10422000FFFF0003FCFF0003FCFF0003FCFF000393
:10423000FCFF0003FFFF0000000000000000000082
:10424000000000000000000000000000000000006E
:10425000000000000000000000000007FFFF8007D2
:10426000FFFF8007FFFF8004F87C80048CC480057A
:104270008CC680058CC68004FCFC8004F87C80071A
:10428000FFFF8007FFFF8006FFFD800000000000A9
:10429000000000000000000000000000000000001E
:1042A000000000000000000000000000000000000E
:1042B0000FC000003E3000007E080000FE04000138
:1042C00078020001F7820002F8610003F031000378
:1042D000E3110003E31F0002231F0002103F00014F
:1042E000187E000107FE000081FC000041F800007C
:1042F00031F000000FC000000000000000000000CE
:1043000000000000000000000000000000000000AD
:104310000FC0000031F000005FF80000A7FC0001B2
:10432000D9FE0001A7FE0001D83E0003A01F000334
:10433000A31F0003E31F0003E31D0001E02E0001A3
:10434000F03A0001FFEA0000FE7400007FC80000A0
:104350003E3000000FC00000000000000000000020
:10436000000000000000000000000000000000014C
:10437000FFFE0001000200017FFE00014006000177
:104380004006000140060001400600014006000111
:1043900040060001400600017FFE0001FFFE000113
:1043A000FFFF0001000100036F798002DFBC800283
:1043B00000008003FFFF80000000000000000000FC
:1043C00000000000000000000000000000000000ED
:1043D000010000000100000003000000FE000001D9
:1043E00000000001000000010000001FFFFFC010DE
:1043F0000000401000004017BDEDC0100000401745
:10440000BDEDC010000040177EEDC0100000401050
:104410000000401FFFFFC00000000000000000007F
:10442000000000000000000000000000000000008C
:10443000000000003FF000004008000040080000BD
:1044400040080000407F00004089800040888003D1
:1044500080FF80000080800000808000008080005D
:1044600000808000008080000080800000C180000B
:1044700000630000003E000000000000000000009B
:10448000000000000000000000000000000000002C
:10449000000000000000000000000000000000001C
:1044A000000000000000000000000000000000000C
:1044B0000000000000000001FFFF000100010001FA
:1044C0003FF90001000100010009000100010001A5
:1044D00000010001FFFF00000000000000000000DC
:1044E00000000000000000000000000001000000CB
:1044F0000780000007C000000BA000000BA0000018
:10450000092000000920000007C00000052000006D
:104510001A20000013100000129000001C78000008
:104520001C3800001C3800001C3800001C3800003B
:104530000C3000000E70000006600000000000005B
:10454000000000000000000000000000000000006B
:10455000187000002578000027F800001FF0000008
:104560007FE00000FF800001FF800001FC80000070
:10457000F2400000E22000000120000001100000D5
:1045800000900000008800000044000000240000AB
:1045900000220000001C00000000000000000000DD
:1045A000000000000000000000000000000000000B
:1045B000000000000000000000000000001E0000DD
:1045C000002100000021000000478000008800005A
:1045D00003078001EC21000210DE000783000000C9
:1045E00084000000C80000079000000210000001D5
:1045F000E0000000000000000000000000000000DB
:1046000000000000000000000000000000000000AA
:10461000000F0000001F8000003F8000007F80002E
:10462000007F0000007E000001FC000000F8000098
:104630000160000002A00000050000000A00000068
:104640001400000028000000D0000001200000023B
:104650002000000240000001800000000000000077
:1046600000000000000000000FFC00000806000031
:104670000BF70000080080000BFE80000800800798
:10468000FBFEC0064800C0064B80C0064800C006BE
:104690005FFFC00650004006506F4006506F400656
:1046A000506F4006576F4006576F4006576F4007E0
:1046B000D0004007FFFFC000000000000000000025
:1046C00000000000000000000000000000000000EA
:1046D000FFF0000080380000803C0000803C0000BB
:1046E00080040000800400008004000080040003B7
:1046F000FFFF00020001000FFFFFC00924804009F6
:1047000024804009FF804008000040080000400F5E
:10471000FFFFC003FFFF00000000000000000000DA
:104720000000000000000000000000000000000089
:104730000000000000000000000000007800000001
:10474000780000007BE000007A2000007A20000062
:10475000FE3C000080040003BF770002000100025D
:1047600000010003FFFF0001FFFE0001FFFC00014C
:10477000FFFC0000FFF80000000000000000000047
:104780000000000000000000000000000000000029
:10479000070000000D8000001AC000001540000056
:1047A000174000001240000067300000D25800019E
:1047B000974C0002174200021242000218C2000386
:1047C000E73E0003E73E00003DE000003DE0000062
:1047D0000000000018C000003DE000000A8000005A
:1047E00002000000000000000000000000000000C7
:1047F00000000000000000000000000000000000B9
:1048000007000000380000007800000077FFC000BB
:1048100037FDC0002FF80003EFE7000467E88008C9
:1048200093D0400991FE400BD0FE40091010400487
:1048300020088003C0070000000000000000000006
:104840000000000000000000000000000000000068
:104850000000000000000000000000000000000058
:10486000000000000F000000080000001FF0000022
:1048700034300003E44F8006725CC00C5A94600828
:10488000C9A6200889FE20080820200C1010600608
:104890003018C003E00780000000000000000000A6
:1048A00000000000000000FFEFFFFFFFEFFFEFFF41
:1048B000EFFFEFFFEFFFEFFFEFFFEFFFEFFFEFFF88
:1048C000EFFFEFFFEFFFEFFFEFFFEFFFEFFFEFFF78
:1048D000EFFFEFFFEFFFEFFFEFFFEFFFEFFFEFFF68
:1048E000EFFFEFFFEFFFEFFFEFFFEFFFEFFFEFFF58
:1048F000EFFFEFFFEFFFEFFFEFFFEFFFEFFFEFFF48
:10490000EFFFEFFFF7FFEFFFF7FFEFFFF7FFF7FF17
:10491000EFFFEFFFEFFFEFFFEFFFEFFFEFFFEFFF27
:10492000EFFFEFFFEFFFEFFFEFFFEFFFEFFFEFFF17
:10493000EFFFEFFFEFFFEFFFEFFFEFFFEFFFEFFF07
:10494000EFFFEFFFEFFFEFFFEFFFEFFFEFFFEFFFF7
:10495000EFFFEFFFEFFFEFFFEFFFEFFFEFFFEFFFE7
:10496000EFFFEFFFEFFFEFFFEFFFEFFFEFFFFFFFC7
:10497000EFFFFFFFFFFFFFFFFFFFFFFFFFFFFFFF57
:10498000FFFFFFFFFFFFFFFFFFFFFFFFFFFFFFFF37
:10499000FFFFFFFFFFFFFFFFFFFFFFFFFFFFFFFF27
:1049A000FFFFFFFFFFFFFFFFFFFFFFFFFFFFFFFF17
:1049B000FFFFFFFFFFFFFFFFFFFFFFFFFFFFFFFF07
:1049C000FFFFFFFFFFFFFFFFFFFFFFFFFFFFFFFFF7
:1049D000FFFFFFFFFFFFFFFFFFFFFFFFFFFFFFFFE7
:1049E000FFFFFFFFFFFFFFFFFFFFFFFFFFFFFFDEF8
:1049F000F7FFFFFFFFFFFFFFFFFFFFFFFFFFFFFFCF
:104A0000FFFFFFFFFFFFFFFFFFFFFFFFFFFFFFFFB6
:104A1000FFFFFFFFFFFFFFFFFFFFFFFFFFFFFFFFA6
:104A2000FFFFFFFFFFFFFFFFFFFFFFFFFFFFFFFF96
:104A3000FFFFFFFFFFFFFFFFEFFFFFFFEFFFEFFFB6
:104A4000EFFFEFFFEFFFEFFFEFFFEFFFEFFFEFFFF6
:104A5000EFFFEFFFEFFFEFFFEFFFEFFFEFFFEFFFE6
:104A6000EFFFEFFFEFFFEFFFEFFFEFFFEFFFEFFFD6
:104A7000EFFFEFFFEFFFEFFFEFFFEFFFEFFFEFFFC6
:104A8000EFFFEFFFEFFFEFFFEFFFEFFFEFFFEFFFB6
:104A9000EFFFF7FFEFFFF7FBF7B7F7FEFFFFF7FFBB
:104AA000EFFFF7FFEFFFEFFFEFFFEFFFEFFFEFFF8E
:104AB000EFFFEFFFEFFFEFFFEFFFEFFFEFFFEFFF86
:104AC000EFFFEFFFEFFFEFFFEFFFEFFFEFFFEFFF76
:104AD000EFFFEFFFEFFFEFFFEFFFEFFFEFFFEFFF66
:104AE000EFFFEFFFEFFFEFFFEFFFEFFFEFFFEFFF56
:104AF000EFFFEFFFEFFFEFFFEFFFEFFFEFFFFFFF36
:104B0000EFFFFFFFEFFFEFFFEFFFEFFFEFFFEFFF25
:104B1000EFFFEFFFEFFFEFFFEFFFEFFFEFFFEFFF25
:104B2000EFFFEFFFEFFFEFFFEFFFEFFFEFFFEFFF15
:104B3000EFFFEFFFEFFFEFFFEFFFEFFFEFFFEFFF05
:104B4000EFFFEFFFEFFFEFFFEFFFEFFFEFFFEFFFF5
:104B5000EFFFEFFFEFFFEFFFF7FCF7D8FFB6F7D659
:104B6000F772F7D7FFB5F7F9F7FFF7FFEFFFEFFFA2
:104B7000EFFFEFFFEFFFEFFFEFFFEFFFEFFFEFFFC5
:104B8000EFFFEFFFEFFFEFFFEFFFEFFFEFFFEFFFB5
:104B9000EFFFEFFFEFFFEFFFEFFFEFFFEFFFEFFFA5
:104BA000EFFFEFFFEFFFEFFFEFFFEFFFEFFFEFFF95
:104BB000EFFFEFFFEFFFEFFFEFFFEFFFEFFFEFFF85
:104BC000EFFFEFFFEFFFFFFFEFFFFFFFEFFFEFFF55
:104BD000EFFFEFFFEFFFEFFFEFFFEFFFEFFFEFFF65
:104BE000EFFFEFFFEFFFEFFFEFFFEFFFEFFFEFFF55
:104BF000EFFFEFFFEFFFEFFFEFFFEFFFEFFFEFFF45
:104C0000EFFFEFFFEFFFEFFFEFFFEFFFEFFFEFFF34
:104C1000EFFFEFFFEFFFEFFFEFFFEFFFEFFFEFFF24
:104C2000F7F7FFEBFF08F70BF7CAFEEAF6A9FFF369
:104C3000FFFEF7FFEFFFEFFFEFFFEFFFEFFFEFFFED
:104C4000EFFFEFFFEFFFEFFFEFFFEFFFEFFFEFFFF4
:104C5000EFFFEFFFEFFFEFFFEFFFEFFFEFFFEFFFE4
:104C6000EFFFEFFFEFFFEFFFEFFFEFFFEFFFEFFFD4
:104C7000EFFFEFFFEFFFEFFFEFFFEFFFEFFFEFFFC4
:104C8000EFFFEFFFEFFFEFFFEFFFEFFFEFFFFFFFA4
:104C9000EFFFFFFFEFFFEFFFEFFFEFFFEFFFEFFF94
:104CA000EFFFEFFFEFFFEFFFEFFFEFFFEFFFEFFF94
:104CB000EFFFEFFFEFFFEFFFEFFFEFFFEFFFEFFF84
:104CC000EFFFEFFFEFFFEFFFEFFFEFFFEFFFEFFF74
:104CD000EFFFEFFFEFFFEFFFEFFFEFFFEFFFEFFF64
:104CE000EFFFEFFFEFFFEFFFF796FF88FFE5F6E43A
:104CF000ED07F6E5ED25FF6EF7DDF7FFF7FFEFFFB8
:104D0000EFFFEFFFEFFFEFFFEFFFEFFFEFFFEFFF33
:104D1000EFFFEFFFEFFFEFFFEFFFEFFFEFFFEFFF23
:104D2000EFFFEFFFEFFFEFFFEFFFEFFFEFFFEFFF13
:104D3000EFFFEFFFEFFFEFFFEFFFEFFFEFFFEFFF03
:104D4000EFFFEFFFEFFFEFFFEFFFEFFFEFFFEFFFF3
:104D5000EFFFEFFFEFFFFFFFEFFFFFFFEFFFEFFFC3
:104D6000EFFFEFFFEFFFEFFFEFFFEFFFEFFFEFFFD3
:104D7000EFFFEFFFEFFFEFFFEFFFEFFFEFFFEFFFC3
:104D8000EFFFEFFFEFFFEFFFEFFFEFFFEFFFEFFFB3
:104D9000EFFFEFFFEFFFEFFFEFFFEFFFEFFFEFFFA3
:104DA000EFFFEFFFEFFFEFFFEFFFEFFFEFFFEFFF93
:104DB000EFB8F727E647F6E6E5E6E527EE26EE6DDF
:104DC000EEFEF7FFEFFFEFFFEFFFEFFFEFFFEFFF6D
:104DD000EFFFEFFFEFFFEFFFEFFFEFFFEFFFEFFF63
:104DE000EFFFEFFFEFFFEFFFEFFFEFFFEFFFEFFF53
:104DF000EFFFEFFFEFFFEFFFEFFFEFFFEFFFEFFF43
:104E0000EFFFEFFFEFFFEFFFEFFFEFFFEFFFEFFF32
:104E1000EFFFEFFFEFFFEFFFEFFFEFFFEFFFFFFF12
:104E2000EFFFFFFFEFFFEFFFEFFFEFFFEFFFEFFF02
:104E3000EFFFEFFFEFFFEFFFEFFFEFFFEFFFEFFF02
:104E4000EFFFEFFFEFFFEFFFEFFFEFFFEFFFEFFFF2
:104E5000EFFFEFFFEFFFEFFFEFFFEFFFEFFFEFFFE2
:104E6000EFFFEFFFEFFFEFFFEFFFEFFFEFFFEFFFD2
:104E7000EFFFEFFFEFFFEFFFEFFDF7EEF6C9FEEA02
:104E8000FE47F62AFFCBF654F7FFF7FFEFFFEFFFE1
:104E9000EFFFEFFFEFFFEFFFEFFFEFFFEFFFEFFFA2
:104EA000EFFFEFFFEFFFEFFFEFFFEFFFEFFFEFFF92
:104EB000EFFFEFFFEFFFEFFFEFFFEFFFEFFFEFFF82
:104EC000EFFFEFFFEFFFEFFFEFFFEFFFEFFFEFFF72
:104ED000EFFFEFFFEFFFEFFFEFFFEFFFEFFFEFFF62
:104EE000EFFFEFFFEFFFFFFFEFFFFFFFEFFFEFFF32
:104EF000EFFFEFFFEFFFEFFFEFFFEFFFEFFFEFFF42
:104F0000EFFFEFFFEFFFEFFFEFFFEFFFEFFFEFFF31
:104F1000EFFFEFFFEFFFEFFFEFFFEFFFEFFFEFFF21
:104F2000EFFFEFFFEFFFEFFFEFFFEFFFEFFFEFFF11
:104F3000EFFFF7FFEFFFEFFFEFFEF7FBFFFCF7FFE1
:104F4000FFFFFFB6F74FF728F543E34BF633EFFBD0
:104F5000F7FFF7FDF7D8FFD9F7FEEFFFEFFFEFFF01
:104F6000EFFFEFFFF7FFEFFFEFFFEFFFEFFFEFFFC9
:104F7000EFFFEFFFEFFFEFFFEFFFEFFFEFFFEFFFC1
:104F8000EFFFEFFFEFFFEFFFEFFFEFFFEFFFEFFFB1
:104F9000EFFFEFFFEFFFEFFFEFFFEFFFEFFFEFFFA1
:104FA000EFFFEFFFEFFFEFFFEFFFEFFFEFFFFFFF81
:104FB000EFFFFFFFEFFFEFFFEFFFEFFFEFFFEFFF71
:104FC000EFFFEFFFEFFFEFFFEFFFEFFFEFFFEFFF71
:104FD000EFFFEFFFEFFFEFFFEFFFEFFFEFFFEFFF61
:104FE000EFFFEFFFEFFFEFFFEFFFEFFFEFFFEFFF51
:104FF000EFFFEFFFEFFFEFFFEFFFEFFFEFFFEFFE42
:10500000F7B5FF89E60BF7EFE616E7FFFFFFFF2A8C
:10501000F4C0D8F3FDFFFFDBF76FDE6AE6A5EEAA6A
:10502000E6BAFFFFEFFFEFFFEFFFEFFFEFFFEFFF4E
:10503000EFFFEFFFEFFFEFFFEFFFEFFFEFFFEFFF00
:10504000EFFFEFFFEFFFEFFFEFFFEFFFEFFFEFFFF0
:10505000EFFFEFFFEFFFEFFFEFFFEFFFEFFFEFFFE0
:10506000EFFFEFFFEFFFEFFFEFFFEFFFEFFFEFFFD0
:10507000EFFFEFFFEFFFFFFFEFFFFFFFEFFFEFFFA0
:10508000EFFFEFFFEFFFEFFFEFFFEFFFEFFFEFFFB0
:10509000EFFFEFFFEFFFEFFFEFFFEFFFEFFFEFFFA0
:1050A000EFFFEFFFEFFFEFFFEFFFEFFFEFFFEFFF90
:1050B000EFFFEFFFEFFFEFFFEFFFEFFFEFFFEFFF80
:1050C000EFFFEFFFEFFFF7DDF792F748EFE3EE6159
:1050D000E646DEB0E6FDFFCAFBC0E090F5B8FF296A
:1050E000E623EEA3F624F76EF77AE7FFEFFFEFFF74
:1050F000EFFFEFFFEFFFEFFFF7FFF7FFEFFFEFFF30
:10510000EFFFEFFFEFFFEFFFEFFFEFFFEFFFEFFF2F
:10511000EFFFEFFFEFFFEFFFEFFFEFFFEFFFEFFF1F
:10512000EFFFEFFFEFFFEFFFEFFFEFFFEFFFEFFF0F
:10513000EFFFEFFFEFFFEFFFEFFFEFFFEFFFFFFFEF
:10514000EFFFFFFFEFFFEFFFEFFFEFFFEFFFEFFFDF
:10515000EFFFEFFFEFFFEFFFEFFFEFFFEFFFEFFFDF
:10516000EFFFEFFFEFFFEFFFEFFFEFFFEFFFEFFFCF
:10517000EFFFEFFFEFFFEFFFEFFFEFFFEFFFEFFFBF
:10518000EFFFEFFFEFFFEFFFEFFFEFFFEFFFEFFFAF
:10519000EFDCEF94EF6FF749FFE6F683D5CAD584CD
:1051A000F2A0F0A6EBA6DDE3E526FF8DFF51EFD8D8
:1051B000F7FFF7FFEFFFEFFFEFFFF7FFEFFFEFFF67
:1051C000F7FFF7FFF7FFEFFFEFFFEFFFEFFFEFFF57
:1051D000EFFFEFFFEFFFEFFFEFFFEFFFEFFFEFFF5F
:1051E000EFFFEFFFEFFFEFFFEFFFEFFFEFFFEFFF4F
:1051F000EFFFEFFFEFFFEFFFEFFFEFFFEFFFEFFF3F
:10520000EFFFEFFFEFFFFFFFEFFFFFFFEFFFEFFF0E
:10521000EFFFEFFFEFFFEFFFEFFFEFFFEFFFEFFF1E
:10522000EFFFEFFFEFFFEFFFEFFFEFFFEFFFEFFF0E
:10523000EFFFEFFFEFFFEFFFEFFFEFFFEFFFEFFFFE
:10524000EFFFEFFFEFFFEFFFEFFFEFFFF79EE75DF1
:10525000DFFFF7FFEFFBF7F8FFFBF7FFEFFFF7B616
:10526000F7C7F665EE04ED41E982F8C1F1A5F5A5B1
:10527000EE2CEFFCF7FFF7FBF7F5FFF5FFF9F7FE74
:10528000F7FFFFFFF7FFF7FFEFFFEFFFEFFFF7FF7E
:10529000EFFFEFFFEFFFEFFFEFFFEFFFEFFFEFFF9E
:1052A000EFFFEFFFEFFFEFFFEFFFEFFFEFFFEFFF8E
:1052B000EFFFEFFFEFFFEFFFEFFFEFFFEFFFEFFF7E
:1052C000EFFFEFFFEFFFEFFFEFFFEFFFEFFFFFFF5E
:1052D000EFFFFFFFEFFFEFFFEFFFEFFFEFFFEFFF4E
:1052E000EFFFEFFFEFFFEFFFEFFFEFFFEFFFEFFF4E
:1052F000EFFFEFFFEFFFEFFFEFFFEFFFEFFFEFFF3E
:10530000EFFFEFFFEFFFEFFFEFFFEFFFEFFFEFFF2D
:10531000EFFFEFFFEFFFF75DE77BEFF5FFF1FFCF6B
:10532000FF8BFFD6F7FFEFFFF7F2FF86F6C1E2E251
:10533000F0E3F0E1F062EB2AF7F8FFFFEFFEF74F42
:10534000F707EFCEFFF0FFF4FF38EFB5DE14BE3CF9
:10535000DF9EDFFFF7FFF7FFEFFFEFFFEFFFEFFF4E
:10536000EFFFEFFFEFFFEFFFEFFFEFFFEFFFEFFFCD
:10537000EFFFEFFFEFFFEFFFEFFFEFFFEFFFEFFFBD
:10538000EFFFEFFFEFFFEFFFEFFFEFFFEFFFEFFFAD
:10539000EFFFEFFFEFFFFFFFEFFFFFFFEFFFEFFF7D
:1053A000EFFFEFFFEFFFEFFFEFFFEFFFEFFFEFFF8D
:1053B000EFFFEFFFEFFFEFFFEFFFEFFFEFFFEFFF7D
:1053C000EFFFEFFFEFFFEFFFEFFFEFFFEFFFEFFF6D
:1053D000EFFFEFFFEFFFEFFFEFFFEFFFFFBEF7DBAA
:1053E000D6F2C5E8EE0BEFE7DDC2DDB3FFFFEFFF5E
:1053F000EFD2FEE4EBABE3E7E1E5E981E800F1851C
:10540000F394FEFFF7FFEF70F783D5E7D526E62686
:10541000E688C58BDEEBCD6DB5EA7B1BDFFFFFFFBA
:10542000EFFFEFFFEFFFEFFFEFFFEFFFEFFFEFFF0C
:10543000EFFFEFFFEFFFEFFFEFFFEFFFEFFFEFFFFC
:10544000EFFFEFFFEFFFEFFFEFFFEFFFEFFFEFFFEC
:10545000EFFFEFFFEFFFEFFFEFFFEFFFEFFFFFFFCC
:10546000EFFFFFFFEFFFEFFFEFFFEFFFEFFFEFFFBC
:10547000EFFFEFFFEFFFEFFFEFFFEFFFEFFFEFFFBC
:10548000EFFFEFFFEFFFEFFFEFFFEFFFEFFFEFFFAC
:10549000EFFFEFFFEFFFEFFFF7FFEFFFEFFFF7FF8C
:1054A000EFFFEFB9D64FB5B2DE50B5E6D547EE699E
:1054B000EEC9EEF6FFFAFFB5FF45E3C3E94BE32C77
:1054C000C36CD3D1F4CAF240E865EB93F7F7FFD28F
:1054D000FFA8EE0BF7A8EEA8F607F7ECFFF0EE2C0E
:1054E000F786DEA97B59C6FFF7FFEFFFEFFFEFFF5F
:1054F000F7FFEFFFEFFFEFFFEFFFEFFFEFFFEFFF34
:10550000EFFFEFFFEFFFEFFFEFFFEFFFEFFFEFFF2B
:10551000EFFFEFFFEFFFEFFFEFFFEFFFEFFFEFFF1B
:10552000EFFFEFFFEFFFFFFFEFFFFFFFEFFFEFFFEB
:10553000EFFFEFFFEFFFEFFFEFFFEFFFEFFFEFFFFB
:10554000EFFFEFFFEFFFEFFFEFFFEFFFEFFFEFFFEB
:10555000EFFFEFFFEFFFEFFFEFFFEFFFEFFFEFFFDB
:10556000EFFFEFFFEFFFF7FFF772CEAAC54AEFEEAE
:10557000FF12C64ABDEAF66AF7E6CDE9D5A7D5C659
:10558000D503F3E1F002C18D93919C7CF74FEC8041
:10559000E8A4FBA5D544C526CDC6DD6BF768DEC6FD
:1055A000D586F748EFE8CDE9EE84E6C6DE44947888
:1055B000C6FFFFFFEFFFEFFFF7FFEFFFEFFFEFFF8C
:1055C000EFFFEFFFEFFFEFFFEFFFEFFFEFFFEFFF6B
:1055D000EFFFEFFFEFFFEFFFEFFFEFFFEFFFEFFF5B
:1055E000EFFFEFFFEFFFEFFFEFFFEFFFEFFFFFFF3B
:1055F000EFFFFFFFEFFFEFFFEFFFEFFFEFFFEFFF2B
:10560000EFFFEFFFEFFFEFFFEFFFEFFFEFFFEFFF2A
:10561000EFFFEFFFEFFFEFFFEFFFEFFFEFFFEFFF1A
:10562000EFFFF7FFEFFFEFFFF7FFF7FFE7FFF72FC2
:10563000CE85DE46FF03EE05E6D3E60B8CA6D54508
:10564000DE44C5E2C4C2C406DEE4F32AE3D3D48D4B
:1056500083B19474CDCCE345EA85FCE6DDE2C4E396
:10566000C425BD85CDE8DD66CD65E6E4BCC3D504C3
:10567000F725F7C4FF64E6098C99CEBEEFDFF7FF8C
:10568000EFFFEFFFF7FFEFFFEFFFEFFFEFFFEFFFA2
:10569000EFFFEFFFEFFFEFFFEFFFEFFFEFFFEFFF9A
:1056A000EFFFEFFFEFFFEFFFEFFFEFFFEFFFEFFF8A
:1056B000EFFFEFFFEFFFFFFFEFFFFFFFEFFFEFFF5A
:1056C000EFFFEFFFEFFFEFFFEFFFEFFFEFFFEFFF6A
:1056D000EFFFEFFFEFFFEFFFEFFFEFFFEFFFEFFF5A
:1056E000EFFFEFFFEFFFEFFFEFFFEFFFEFFFF71B26
:1056F000DF78CEFFF733CEA9DEE7FF83FFA5FE6498
:10570000EE4FF70FADA6CD84D502CD43D542D5A33C
:10571000DD63E4AAC39BE6D3B48D8353CDB0E468C4
:10572000E383DC63D541D542D523CD64CD08E6CAF9
:10573000D509DE46DE8AFF46FFC9FF8BF7A7EEE7F5
:10574000E6E5A44ACEB0D65BE7FFF7FFEFFFEFFF39
:10575000EFFFEFFFEFFFEFFFEFFFEFFFEFFFEFFFD9
:10576000EFFFEFFFEFFFEFFFEFFFEFFFEFFFEFFFC9
:10577000EFFFEFFFEFFFEFFFEFFFEFFFEFFFFFFFA9
:10578000EFFFFFFFEFFFEFFFEFFFEFFFEFFFEFFF99
:10579000EFFFEFFFEFFFEFFFEFFFEFFFEFFFEFFF99
:1057A000EFFFEFFFEFFFEFFFEFFFEFFFEFFFEFFF89
:1057B000F7FFEFFFF717E76AD66DB53AE74CCEEA89
:1057C000FF86FF67FFA8FF67F7ECEEB2C527A4438B
:1057D000D543D563DD82DD04E6E4ED82C2CEC3119C
:1057E000DD8872696A279A44E3E4ED24EEC3E5A4F8
:1057F000DD03D5E2C4E4BCE6BC66CDEAEE89FF6811
:10580000FF47F78AFFCDFFECFF84E606EFC5E649C8
:10581000D690AD9EE7FFF7FFEFFFEFFFEFFFEFFF43
:10582000EFFFEFFFEFFFEFFFEFFFEFFFEFFFEFFF08
:10583000EFFFEFFFEFFFEFFFEFFFEFFFEFFFEFFFF8
:10584000EFFFEFFFEFFFFFFFEFFFFFFFEFFFEFFFC8
:10585000EFFFEFFFEFFFEFFFEFFFEFFFEFFFEFFFD8
:10586000EFFFEFFFEFFFEFFFEFFFEFFFEFFFEFFFC8
:10587000EFFFEFFFEFFFEFFFEFFFF7D4D6EADE8792
:10588000FF09CE90F7C8FF23FF25FF47F7E6F6E5AF
:10589000EEA8E6D4E64C9C06DE85CD88E6A7FF8719
:1058A000FFA7FF42EC87B2EB8A2C73687262A9C52E
:1058B000FCA7FF46FFA8FFE8F645EE88FF49DECAD1
:1058C000D5E6D5E8EEC6EE26F726F7E5EE45F7A8CD
:1058D000FFE7EEE5EEE5EE86E6C6833DDFFFF7FF88
:1058E000EFFFEFFFEFFFEFFFEFFFEFFFEFFFEFFF48
:1058F000EFFFEFFFEFFFEFFFEFFFEFFFEFFFEFFF38
:10590000EFFFEFFFEFFFEFFFEFFFEFFFEFFFFFFF17
:10591000EFFFFFFFEFFFEFFFEFFFEFFFEFFFEFFF07
:10592000EFFFEFFFEFFFEFFFEFFFEFFFEFFFEFFF07
:10593000EFFFEFFFEFFFEFFFEFFFEFFFEFFFEFFFF7
:10594000F7B6DECBDE66FF83EEC6FF43FF23FF0420
:10595000F7E4F625F7A6EE86EE05E612FF73BD46E0
:105960009C27B56AF7CAFFE6F6E6EE87F6A2D2E60E
:10597000B90C9326AAA2DA66EE06EFC4EE88F724E5
:10598000D624EF87F7A8CD67C527E606E665E605C6
:10599000F7C6F625F744F7C4EE66FF65FF84EE63AD
:1059A000CDC6ACD5B5FFF7FFEFFFEFFFEFFFEFFF81
:1059B000EFFFEFFFEFFFEFFFEFFFEFFFEFFFEFFF77
:1059C000EFFFEFFFEFFFEFFFEFFFEFFFEFFFEFFF67
:1059D000EFFFEFFFEFFFFFFFEFFFFFFFEFFFEFFF37
:1059E000EFFFEFFFEFFFEFFFEFFFEFFFEFFFEFFF47
:1059F000EFFFEFFFEFFFEFFFEFFFEFFFEFFFEFFF37
:105A0000EFFFEFFFEFFFEF9DE72FCE4BF763EEC207
:105A1000D544DE83EE84E6A4E645FFE5FEE5DD023F
:105A2000CD64DDC69B55CE29AD49F727DE02D5866C
:105A3000EE4AEF6BF7E7F5E2D9659143BAC7F54B4C
:105A4000F74AF708D607CE68EF87EFC9E669BDC702
:105A5000EE63B4E39B06EFC5E604DEA3EE85FF43E9
:105A6000AC64A443DE05EF45DEC6EE4694D9D6FF0E
:105A7000FFFFF7FFEFFFEFFFEFFFEFFFEFFFEFFF9E
:105A8000EFFFEFFFEFFFEFFFEFFFEFFFEFFFEFFFA6
:105A9000EFFFEFFFEFFFEFFFEFFFEFFFEFFFFFFF86
:105AA000EFFFFFFFEFFFEFFFEFFFEFFFEFFFEFFF76
:105AB000EFFFEFFFEFFFEFFFEFFFEFFFEFFFEFFF76
:105AC000EFFFEFFFEFFFEFFFEFFFEFFFEFFFF71548
:105AD000BE2DCEADFF44D504D52383228B03BD4913
