:100000000C942E010C94F2050C94CB050C946C0707
:100010000C946C070C946C070C9456010C945601CC
:100020000C9456010C9413070C9456010C94560131
:100030000C9456010C9456010C9456010C945601E4
:100040000C9481050C9456010C945D040C943704B7
:100050000C9456010C9456010C9456010C945601C4
:100060000C94FC070C9456019A14AC14AF14B614FB
:10007000BD14EB14F214FF140C15181518151815EF
:100080001815181518151815181518151815181508
:1000900018151815181518151815181518151815F8
:1000A00018151815181518159A14A714AC14AF14B0
:1000B000B614BD14C414D114DE1415191A192B1951
:1000C00048194E196119641981199619F019F51911
:1000D000021A0F1A1C1A2B1A301A431AAC1A481A91
:1000E0004C1A531A5B1A5E1A7F1A841A891A8E1ACE
:1000F000931A981A9D1AA21AA71AAC1AB11AB61A0C
:10010000BB1AC01AC51ACA1AD31A084AD73B3BCE23
:10011000016E84BCBFFDC12F3D6C74319ABD568306
:100120003DDA3D00C77F11BED9E4BB4C3E916BAABE
:10013000AABE000000803F05A84CCDB2D44EB9380D
:1001400036A9020C50B9918688083CA6AAAA2ABEF4
:10015000000000803F07634236B79BD8A71A396872
:100160005618AEBAAB558C1D3CB7CC5763BD6DED80
:10017000FD753EF6177231BF000000803F08000099
:1001800000BE922449123EABAAAA2ABECDCCCC4CCA
:100190003E00000080BEABAAAAAA3E00000000BF3D
:1001A000000000803F0000000000084178D3BB43FE
:1001B00087D1133D190E3CC3BD4282AD2B3E68EC86
:1001C0008276BED98FE1A93E4C80EFFFBE01C4FF0D
:1001D0007F3F0000000000005741524E494E473A11
:1001E000204E6F2047505320646174612E202043BD
:1001F0006865636B20776972696E672E0000000086
:1002000000240027002A000000000800020100006E
:1002100003040700000000000000000000000025AB
:100220000028002B00000000002300260029000405
:10023000040404040404040202020202020303038D
:100240000303030102040810204080010204081087
:100250002001020408102000961B8C1B11241FBED5
:10026000CFEFD8E0DEBFCDBF11E0A0E0B1E0E6E126
:10027000F8E402C005900D92A83AB107D9F725E03D
:10028000A8EAB1E001C01D92A032B207E1F711E087
:10029000CDE2D1E004C02197FE010E94771ECC324E
:1002A000D107C9F70E947B0E0C94FE230C9400002A
:1002B000FC01918D828D981761F0828DDF01A80F6E
:1002C000B11D5D968C91928D9F5F9F73928F90E090
:1002D00008958FEF9FEF0895FC01918D828D9817FF
:1002E00031F0828DE80FF11D858D90E008958FEF3C
:1002F0009FEF0895FC01918D228D892F90E0805C05
:100300009F4F821B91098F739927089587E293E08D
:100310000E947A0121E0892B09F420E0822F0895C0
:10032000FC01848DDF01A80FB11DA35ABF4F2C9192
:10033000848D90E001968F739927848FA689B78961
:100340002C93A089B1898C9180648C93938D848D3A
:10035000981306C00288F389E02D80818F7D808309
:100360000895EF92FF920F931F93CF93DF93EC01C9
:1003700081E0888F9B8D8C8D981305C0E889F98961
:10038000808185FD24C0F62E0B8D10E00F5F1F4F7E
:100390000F731127E02E8C8DE8120CC00FB607FCEE
:1003A000FACFE889F989808185FFF5CFCE010E94D7
:1003B0009001F1CF8B8DFE01E80FF11DE35AFF4F45
:1003C000F0820B8FEA89FB898081806207C0EE8909
:1003D000FF896083E889F98980818064808381E076
:1003E00090E0DF91CF911F910F91FF90EF900895D2
:1003F000CF93DF93EC01888D8823C9F0EA89FB89CC
:10040000808185FD05C0A889B9898C9186FD0FC0C2
:100410000FB607FCF5CF808185FFF2CFA889B98997
:100420008C9185FFEDCFCE010E949001E7CFDF9147
:10043000CF91089580E090E0892B29F00E948601F9
:1004400081110C9400000895833081F028F48130EC
:1004500099F08230A1F008958730A9F08830B9F082
:100460008430D1F4809180008F7D03C08091800022
:100470008F7780938000089584B58F7702C084B50C
:100480008F7D84BD08958091B0008F7703C08091E7
:10049000B0008F7D8093B00008953FB7F8948091AD
:1004A000B6029091B702A091B802B091B90226B5F8
:1004B000A89B05C02F3F19F00196A11DB11D3FBF9C
:1004C000BA2FA92F982F8827820F911DA11DB11D2A
:1004D000BC01CD0142E0660F771F881F991F4A9526
:1004E000D1F7089508952091AA013091AB01281702
:1004F000390771F49091A8018091A901981741F0F2
:10050000E091A801F0E0E859FD4F808190E0089566
:100510008FEF9FEF089508951F93CF93DF93DC0132
:100520005C962D913C915D972115310539F481E060
:1005300090E013969C938E9312973DC05196ED9147
:10054000FC91529750969C915097892F80951FB798
:100550005E964C915E9741FB772770F941FD60955F
:10056000F8944081772311F0492B01C04823408340
:10057000E9012197F1F748E0508160FF02C0592B53
:1005800001C058235083E9012197F1F76695415046
:1005900099F7772321F090818923808303C080819C
:1005A000982B90831FBF5C968D919C915D970197CE
:1005B000F1F721E030E0C901DF91CF911F9108955B
:1005C0002091AA013091AB012817390771F480916D
:1005D000A9012091A80190E0805C9F4F821B9109A6
:1005E00060E470E00E94221E089580E090E008958B
:1005F0002091AA013091AB0128173907B9F49091E5
:10060000A8018091A901981789F0E091A801F0E074
:10061000E859FD4F80812091A80130E02F5F3F4FC6
:100620002F7333272093A80190E008958FEF9FEF59
:10063000089585ED8093BC008091BC0084FDFCCFC3
:1006400010920203089540914302262F30E0240FB8
:10065000311D21323105DCF4209102032430C9F42C
:10066000FC0180E090E0861758F43091430221911C
:10067000DC01AF5DBD4FA30FB11D2C930196F3CFED
:1006800080914302680F6093430280E0089581E007
:10069000089582E008950895E091BB028091BA0226
:1006A000E81730F4F0E0E454FD4F808190E00895C5
:1006B0008FEF9FEF08959091BB028091BA02981737
:1006C00050F4E92FF0E0E454FD4F208130E09F5FCB
:1006D0009093BB0202C02FEF3FEFC90108958091B4
:1006E000BA0290E02091BB02821B91090895CF923B
:1006F000DF92EF92FF920F931F93CF93DF937C01D2
:10070000262F972F8A0180910303882391F0C62F0B
:10071000D72F6E01C40ED51ECC15DD0571F0699181
:10072000D701ED91FC910190F081E02DC701099571
:10073000F3CF642F822F0E942303C801DF91CF9152
:100740001F910F91FF90EF90DF90CF900895CF937E
:10075000DF931F92CDB7DEB7698320910303222375
:10076000D1F020912603203240F021E030E0FC015E
:100770003383228380E090E015C080910403E82F4A
:10078000F0E0EB5FFC4F998190838F5F80930403CF
:100790008093260305C061E0CE0101960E942303E9
:1007A00081E090E00F90DF91CF91089508956EBDA4
:1007B00000000DB407FEFDCF8EB508950E949E2364
:1007C000CF92DF92EF92FF920F931F93CF93DF931D
:1007D000E89882E792E09093010180930001809174
:1007E000AC019091AD01A091AE01B091AF01019625
:1007F000A11DB11D8093AC019093AD01A093AE01FA
:10080000B093AF01C9E0D2E005E412E031E3E32E9A
:1008100032E0F32EFE018491F801C490F701D490E8
:10082000DD20C1F381110E9424028D2D90E0880FFC
:10083000991F8B5D9D4FFC01A591B4918C91C822AD
:1008400049F380EE93E09093010180930001809141
:1008500069008C7F826080936900E89ADF91CF9174
:100860001F910F91FF90EF90DF90CF9008951F920E
:100870000F920FB60F9211242F933F934F935F93D4
:100880006F937F938F939F93AF93BF93EF93FF9358
:1008900087E293E00E949001FF91EF91BF91AF91A9
:1008A0009F918F917F916F915F914F913F912F9188
:1008B0000F900FBE0F901F9018951F920F920FB6BA
:1008C0000F9211242F938F939F93EF93FF93E091B7
:1008D0003703F09138038081E0913D03F0913E03AE
:1008E00082FD12C09081809140038F5F8F732091B1
:1008F0004103821751F0E0914003F0E0E95DFC4FC5
:10090000958F8093400301C08081FF91EF919F916B
:100910008F912F910F900FBE0F901F9018951F93DE
:10092000CF93DF93282F30E0F901E95FFD4F8491E9
:10093000F901ED5BFD4FD491F901E15DFD4FC491EB
:10094000CC23C9F0162F81110E942402EC2FF0E075
:10095000EE0FFF1FE55EFD4FA591B4918FB7F894A0
:10096000111105C09C91ED2FE095E92302C0EC9197
:10097000ED2BEC938FBFDF91CF911F910895CF9313
:10098000DF9390E0FC01ED5BFD4F2491FC01E15D04
:10099000FD4F8491882361F190E0880F991FFC013D
:1009A000E350FE4FC591D491FC01E55EFD4FA5914A
:1009B000B491611109C09FB7F89488812095822372
:1009C0008883EC912E230BC0623061F49FB7F894BA
:1009D0003881822F809583238883EC912E2B2C9352
:1009E0009FBF06C08FB7F894E8812E2B28838FBF56
:1009F000DF91CF910895CF93CFB7F89480912002E3
:100A0000811127C0E9E3F2E08491EDE4F2E09491F2
:100A1000E82FF0E0EE0FFF1FE350FE4FA591B491D9
:100A2000EC91E92321F461E08AE00E948F0461E007
:100A30008AE00E94BF048CB580618CBD8CB5806457
:100A40008CBD61E08DE00E94BF0461E08BE00E94FC
:100A5000BF04809120028F5F80932002CFBF8CB5AE
:100A6000837F8CBD8CB58C7F81608CBD8DB58E7F76
:100A70008DBDCF9108958F929F92AF92BF92CF92EA
:100A8000DF92EF92FF926B017C010E944D024B01BD
:100A90005C01C114D104E104F104F1F00E944D02A3
:100AA000DC01CB0188199909AA09BB09883E93404A
:100AB000A105B10570F321E0C21AD108E108F108DF
:100AC00088EE880E83E0981EA11CB11CC114D104CD
:100AD000E104F10419F7DDCFFF90EF90DF90CF90A4
:100AE000BF90AF909F908F9008952FB7F89460912A
:100AF000B2027091B3028091B4029091B5022FBFFF
:100B000008951F920F920FB60F9211242F933F93C7
:100B10008F939F93AF93BF938091B2029091B30252
:100B2000A091B402B091B5023091B10223E0230F3D
:100B30002D3720F40196A11DB11D05C026E8230F15
:100B40000296A11DB11D2093B1028093B202909331
:100B5000B302A093B402B093B5028091B602909113
:100B6000B702A091B802B091B9020196A11DB11DC2
:100B70008093B6029093B702A093B802B093B902E3
:100B8000BF91AF919F918F913F912F910F900FBE89
:100B90000F901F9018951F920F920FB60F9211246D
:100BA0002F933F934F935F936F937F938F939F9375
:100BB000AF93BF93EF93FF93E0910201F091030194
:100BC0000995FF91EF91BF91AF919F918F917F9187
:100BD0006F915F914F913F912F910F900FBE0F90AA
:100BE0001F9018951F920F920FB60F9211242F93FA
:100BF0003F934F935F936F937F938F939F93AF93A5
:100C0000BF93EF93FF93E0910001F09101010995EB
:100C1000FF91EF91BF91AF919F918F917F916F91D4
:100C20005F914F913F912F910F900FBE0F901F90AA
:100C30001895CF93DF93EC018A859B85AC85BD85A4
:100C40008E839F83A887B9870E9475056A837B83FB
:100C50008C839D8381E089838883DF91CF91089580
:100C60002F923F924F925F926F927F928F929F92BC
:100C7000AF92BF92CF92DF92EF92FF920F931F93AA
:100C8000CF93DF93D82FC92F8B010E94C22324E674
:100C900030E040E050E00E94361E49015A019B01BD
:100CA000AC0160E876E988E990E00E94121E6B01D1
:100CB0007C01F80191828082ED2FFC2F2191822FFF
:100CC000022E000C990BC0970A97C0F32E3239F50B
:100CD0001F0180E8882E86E9982E88E9A82EB12C7D
:100CE0009AE0492E512C612C712CF101C1911F0108
:100CF0000C2E000CDD0BE097CA30D10580F4C50145
:100D0000B401A30192010E94361E49015A01DE017D
:100D10000E94881EC60ED71EE81EF91EE6CFA5E06B
:100D2000B0E0A70196010E947D1E6F5F7F4F8F4F3D
:100D30009F4F23E030E040E050E00E94361EF80173
:100D400022833383448355831682DF91CF911F9191
:100D50000F91FF90EF90DF90CF90BF90AF909F905A
:100D60008F907F906F905F904F903F902F9008955D
:100D7000FF920F931F93CF93DF93EC01FF24F39423
:100D800088818D3211F0F12C01C02196CE010E9494
:100D9000C2239B01AC01A4E6B0E00E947D1EFE01CF
:100DA0004991242F042E000C330B205331092A3093
:100DB0003105A8F34E3241F52181022E000C330B90
:100DC000205331092A303105F8F44AE0429F80016E
:100DD000439F100D1124012E000C220B330B600FCA
:100DE000711F821F931F0281002E000C110B0053F4
:100DF00011090A30110540F4012E000C220B330BAF
:100E0000600F711F821F931FFF2039F0909580950E
:100E1000709561957F4F8F4F9F4FDF91CF911F91BD
:100E20000F91FF9008951F920F920FB60F92112409
:100E30002F933F934F935F936F937F938F939F93E2
:100E4000AF93BF93EF93FF938091AF029091B00265
:100E50008093B2008091AB029091AC02A091AD0260
:100E6000B091AE020196A11DB11D8093AB0290938B
:100E7000AC02A093AD02B093AE028091AB02909110
:100E8000AC02A091AD02B091AE028091AA02811194
:100E900012C081E08093AA021092AB021092AC02C1
:100EA0001092AD021092AE02E091A802F091A90258
:100EB00009951092AA02FF91EF91BF91AF919F9176
:100EC0008F917F916F915F914F913F912F910F90F3
:100ED0000FBE0F901F9018951F920F920FB60F9292
:100EE00011242F933F934F935F936F937F938F932F
:100EF0009F93AF93BF93EF93FF93E091AA01F0917B
:100F0000AB01309709F451C0968DA685B7858585CC
:100F100091FF04C09C91892329F447C09C918923A7
:100F200009F043C0A389B4899C9185898095892360
:100F30008C93868997890197F1F7608D718DA685CD
:100F4000B785558538E020E0CB010197F1F7822F76
:100F500090E095958795282F4C91452309F02068BE
:100F6000315091F7868D81FD20958091A90190E007
:100F700001968F7399273091A801381749F0A091F5
:100F8000A901B0E0A859BD4F2C938093A90103C0DB
:100F9000868D8160868F828D938D0197F1F7A3896D
:100FA000B4899C918589892B8C93FF91EF91BF9196
:100FB000AF919F918F917F916F915F914F913F91F1
:100FC0002F910F900FBE0F901F901895E091AA01DE
:100FD000F091AB01E817F90769F4A389B4899C91F2
:100FE0008589809589238C931092AB011092AA0178
:100FF00081E0089580E008951F920F920FB60F923E
:1010000011242F933F934F935F936F937F938F930D
:101010009F93AF93BF93EF93FF938091B900887F25
:10102000803609F49CC068F5883209F45BC090F4FE
:10103000803109F454C038F4882309F4F6C08830AC
:1010400009F44DC0F6C0883109F44CC0803209F46F
:101050005DC0EFC0803409F468C048F4803309F4FF
:1010600055C0883309F0E5C080930003D8C08035AF
:1010700009F44FC0883509F45DC0883409F0D9C03F
:10108000D6C0883909F4C7C0A8F4883709F467C006
:1010900038F4883609F463C0803709F460C0C9C0E9
:1010A000883809F4B8C0803909F45FC0803809F085
:1010B000C0C05BC0803B09F486C038F4803A09F4B4
:1010C00066C0883A09F47FC0B4C0803C09F4A7C068
:1010D000883C09F4A4C0883B09F48AC0AAC0809166
:1010E000DD0210C09091FF028091FE02981770F50A
:1010F000E091FF0281E08E0F8093FF02F0E0E25268
:10110000FD4F80818093BB0085EC86C080930003F7
:101110008EC0E091FF0281E08E0F8093FF028091EC
:10112000BB00F0E0E252FD4F80839091FF0280917E
:10113000FE026EC0E091FF0281E08E0F8093FF02FD
:101140008091BB00F0E0E252FD4F8083809101036B
:1011500081116DC081E08093DC0284EA61C083E08C
:101160008093020310926702CFCF80916702803292
:1011700008F051C0E091670281E08E0F8093670212
:101180008091BB00F0E0E95BFD4F8083BDCF85EC33
:101190008093BC001092020380916702803230F489
:1011A000E0916702F0E0E95BFD4F10826091670219
:1011B00070E0E0914502F091460287E492E00995E3
:1011C0001092670236C084E08093020310924402BA
:1011D00010924302E0914102F09142020995809100
:1011E0004302811105C081E08093430210922102E5
:1011F000E091440281E08E0F80934402F0E0EF5DC5
:10120000FD4F80818093BB00909144028091430206
:10121000981708F479CF85E88093BC000AC085EC64
:101220008093BC001092020304C0109200030E943D
:101230001903FF91EF91BF91AF919F918F917F9192
:101240006F915F914F913F912F910F900FBE0F9033
:101250001F901895CF92DF92EF92FF920F931F93FA
:10126000CF93DF93EC010E9475052A853B852130E1
:10127000310581F50C851D852E853F856B017C012F
:10128000C01AD10AE20AF30A0A811B812C813D812E
:10129000C016D106E206F30608F445C01B861A867E
:1012A0006C877D878E879F8760E088810E948F048E
:1012B0008091B0019091B1010196843091052CF498
:1012C0009093B1018093B0012EC01092B1011092A1
:1012D000B00129C0232B39F50C851D852E853F854E
:1012E0006B017C01C01AD10AE20AF30A0E811F8148
:1012F00028853985C016D106E206F306A0F021E064
:1013000030E03B872A876C877D878E879F8761E0E7
:101310008881DF91CF911F910F91FF90EF90DF9027
:10132000CF900C948F04DF91CF911F910F91FF907C
:10133000EF90DF90CF900895009769F0FC01019045
:101340000020E9F73197AF01481B590BBC0187E238
:1013500093E00C949A0B80E090E008958F929F9216
:10136000AF92BF920F931F93CF93DF93CDB7DEB7AA
:10137000A1970FB6F894DEBF0FBECDBF19A24230C1
:1013800008F44AE08E010F5D1F4F842E912CA12C92
:10139000B12CA50194010E94361EE62FB901CA01A5
:1013A00001501109EA3014F4E05D01C0E95CD80194
:1013B000EC93232B242B252B61F7C8010E949C0959
:1013C000A1960FB6F894DEBF0FBECDBFDF91CF91CF
:1013D0001F910F91BF90AF909F908F900895E091D3
:1013E0002703F09128030190F081E02D682F87E218
:1013F00093E00994CF92DF92EF92FF9210927404DF
:1014000060917C0470917D0480E090E00E94442013
:101410006B017C0160917E0470917F048091800457
:10142000909181040E94442028E23BE64EE65EE46F
:101430000E949C1F9B01AC01C701B6010E94B41E13
:101440002091820421119058FF90EF90DF90CF906F
:101450000895CF92DF92EF92FF9210927404609100
:1014600075047091760480E090E00E9444206B0146
:101470007C01609177047091780480917904909157
:101480007A040E94442028E23BE64EE65EE40E9495
:101490009C1F9B01AC01C701B6010E94B41E2091A4
:1014A0007B0421119058FF90EF90DF90CF9008952A
:1014B00060E08091C5030C948F04DF92EF92FF925D
:1014C0000F931F93CF93DF93C82F8B01D42EF22E4F
:1014D00060E08091C6030E948F048091CA039091BE
:1014E000CB03DC01ED91FC910190F081E02D6C2F9C
:1014F00009950115110561F461E08091C603DF9142
:10150000CF911F910F91FF90EF90DF900C948F047B
:10151000E02EC02FD12F8C2F8E198F1568F7809158
:10152000CA039091CB03DC01ED91FC910190F08115
:10153000E02D68810995D11088832196ECCFCF9357
:10154000DF931F92CDB7DEB78FEF898321E041E0B3
:10155000BE016F5F7F4F87E00E945D0A89810F9017
:10156000DF91CF910895382F209126039091250384
:10157000213208F049C0809102038111FCCF42E082
:1015800040930203309301033FEF30930003109226
:10159000FF022093FE02A5E0B3E04EED52E0FA0117
:1015A0003E2F341B321718F43D913193F9CF10922E
:1015B000DD022091DD02990F922B9093DD02909134
:1015C000DC02913061F41092DC029091DD02909384
:1015D000BB009091BC0093FDF8CF95EC01C095EE57
:1015E0009093BC00909102039230E1F3909100033C
:1015F0009F3F79F080910003803241F08091000399
:10160000803331F084E005C081E003C082E001C096
:1016100083E01092040310922603109203030895AE
:10162000EF92FF920F931F93CF93DF93C62F8A0100
:1016300090913604D1E0D093030390932503109248
:10164000040310922603682F8CEC93E00E94A703FA
:1016500081E00E94B30A80913604D0930303809303
:101660002503109204031092260390910203911116
:10167000FCCF6C2FC13208F060E291E0909302033E
:10168000909301032FEF209300031092FF02260F87
:101690002093FE029093DD029091DD02880F892B4A
:1016A0008093DD028091DC02813061F41092DC02D3
:1016B0008091DD028093BB008091BC0083FDF8CF58
:1016C00085EC01C085EE8093BC00809102038130DF
:1016D000E1F38091FF02861710F46091FF02AEEDF6
:1016E000B2E02CEB32E0F9018E2F821B861718F442
:1016F0008D918193F9CF1092BB026093BA02C0E042
:101700009091BA028091BB02981759F07801EC0EC3
:10171000F11C8CEC93E00E945B03F7018083CF5FA8
:10172000EFCF81E0DF91CF911F910F91FF90EF906C
:101730000C94B30ACF92DF92EF92FF920F931F9314
:10174000CF93DF936C017A018B01C0E0D0E0CE151E
:10175000DF0589F0D8016D918D01D601ED91FC91E5
:101760000190F081E02DC6010995892B11F47E01CD
:1017700002C02196ECCFC701DF91CF911F910F914D
:10178000FF90EF90DF90CF900895CF93C82F809176
:10179000360491E090930303809325031092040391
:1017A0001092260364EF8CEC93E00E94A7036C2F49
:1017B0008CEC93E00E94A70381E0CF910C94B30AD4
:1017C000CF92DF92EF92FF920F931F93CF93DF930D
:1017D0008EE20E94C50B65E070E080E090E00E9420
:1017E0003B0547E354E062E086EF0E94100BC8E13E
:1017F000D4E02F8D822F90E0A0E0B0E04427582F56
:10180000692F7A2F88A1482B8C899D899A01AB0179
:10181000281B390B41095109AA89BB890E947D1EE9
:101820006B017C013FE0F594E794D794C7943A9517
:10183000D1F76C857D85CB01770FAA0BBB0BBC0163
:10184000CD014BE0660F771F881F991F4A95D1F78E
:101850002E853F858901330F220B330BA901980197
:101860002C0D3D1D4E1D5F1D0E94581EC20ED31E25
:10187000E41EF51ECE8ADF8AE88EF98EDF91CF91C5
:101880001F910F91FF90EF90DF90CF9008952F92CE
:101890003F924F925F926F927F928F929F92AF9200
:1018A000BF92CF92DF92EF92FF920F931F93CF934D
:1018B000DF93CDB7DEB72A970FB6F894DEBF0FBE21
:1018C000CDBF9A8789870E94E00B80913A04829568
:1018D000880F880F807C8C5C0E94C50BE0913A04D5
:1018E000F0913B04EE0FFF1FE45CFB4F60817181C0
:1018F000072E000C880B990B0E943B0547E354E030
:1019000063E086EF0E94100B20903A0430903B0475
:10191000C0902E04D0902F04E0903004F090310459
:1019200020EAC21A2FE0D20AE108F108A7019601C5
:10193000C701B6010E94121E4B015C01BCE0B594C8
:10194000A79497948794BA95D1F789829A82AB82AB
:10195000BC820091180410911904A0911C04B0914C
:101960001D040E94881E4B015C018DE0B594A79474
:10197000979487948A95D1F7A0911E04B0911F0483
:1019800029813A814B815C810E94881EBB2797FD8B
:10199000B095AB2F880D991DAA1DBB1D0296A11DE8
:1019A000B11D32E0B595A795979587953A95D1F7F2
:1019B0009C01AD0130584F4F5F4FA0912804B0916A
:1019C00029040E947D1E2B013C014FE07694679410
:1019D000579447944A95D1F7809137042091380461
:1019E000422F50E060E070E0762F652F542F44279F
:1019F000682B80913904482B88E090E08219930984
:101A00004A015B0104C0B594A794979487948A9582
:101A1000D2F78D829E82AF82B8864801110FAA0844
:101A2000BB08F2E0880C991CAA1CBB1CFA95D1F7E4
:101A3000A0912004B091210429813A814B815C81DD
:101A40000E94881E9B01AC01ABE0559547953795E8
:101A50002795AA95D1F729833A834B835C83A0917C
:101A60001A04B0911B04A70196010E94881EDC0194
:101A7000CB011BE0B595A795979587951A95D1F75A
:101A800029813A814B815C81820F931FA41FB51F6E
:101A9000880E991EAA1EBB1E022C04C0880C991C1D
:101AA000AA1CBB1C0A94D2F732E0830E911CA11C25
:101AB000B11C02E0B594A794979487940A95D1F746
:101AC0002D813E814F815885281939094A095B09C2
:101AD00080E593ECA0E0B0E0BC01CD0104C0959599
:101AE0008795779567952A94D2F70E94121E97FDE5
:101AF0000BC0660F771F881F991FA30192010E94D8
:101B0000361E69017A010AC0A30192010E94361EA5
:101B100069017A01CC0CDD1CEE1CFF1C9927F7FC37
:101B20009A958F2D7E2D6D2D9B01AC010E94121E6A
:101B30009B01AC01AEEDBBE00E947D1E4C01BB24BD
:101B400097FCB094AB2CA3E4B3EEA70196010E94DE
:101B50008B1EBB2797FDB095AB2F880D991DAA1D35
:101B6000BB1D8153914FAF4FBF4F44E0B595A79533
:101B7000979587954A95D1F78C0D9D1DAE1DBF1D7C
:101B8000E985FA8580839183A283B3832A960FB671
:101B9000F894DEBF0FBECDBFDF91CF911F910F91A3
:101BA000FF90EF90DF90CF90BF90AF909F908F907D
:101BB0007F906F905F904F903F902F9008958F92FD
:101BC0009F92AF92BF92EF92FF920F931F93CF938A
:101BD000DF93CDB7DEB728970FB6F894DEBF0FBE00
:101BE000CDBF7C01CE0101960E94470C08E114E0B4
:101BF000F80160AD71AD82AD93AD0E94462020ED3D
:101C000038E447E85AE40E949C1F9B01AC0160E065
:101C100070E080E89FE30E94B31E26EF38E248EAB6
:101C200050E40E94D6219B01AC0169817A818B81AD
:101C30009C812D833E834F8358870E9446202D81AF
:101C40003E814F8158850E949C1F4B015C01F80129
:101C500060A971A982A993A90E9446209B01AC01A9
:101C6000C501B4010E94B41E0E940E20F7016083DA
:101C700071838283938328960FB6F894DEBF0FBEDC
:101C8000CDBFDF91CF911F910F91FF90EF90BF904B
:101C9000AF909F908F9008950F931F93CF93DF93F2
:101CA00000D0CDB7DEB704EC13E0F80110820E943B
:101CB000580AF801858183608A8321E040E0BE01F3
:101CC0006E5F7F4F80E20E945D0A80E7898321E09A
:101CD00040E0BE016F5F7F4F87E20E945D0A61E0D6
:101CE000F80181810E948F040F900F90DF91CF91B6
:101CF0001F910F910895CF93DF93CDB7DEB7A197D2
:101D00000FB6F894DEBF0FBECDBF789484B5826065
:101D100084BD84B5816084BD85B5826085BD85B58F
:101D2000816085BD80916E00816080936E0010920D
:101D30008100809181008260809381008091810088
:101D40008160809381008091800081608093800019
:101D50008091B10084608093B1008091B000816077
:101D60008093B00080917A00846080937A008091A3
:101D70007A00826080937A0080917A0081608093FB
:101D80007A0080917A00806880937A001092C10076
:101D9000E0913703F091380382E08083E0913303D0
:101DA000F09134031082E0913503F09136038FEC0B
:101DB000808310923F03E0913B03F0913C0386E067
:101DC0008083E0913903F0913A03808180618083C0
:101DD000E0913903F0913A03808188608083E0913B
:101DE0003903F0913A03808180688083E091390360
:101DF000F0913A0380818F7D808361E083E00E94CF
:101E0000BF0461E086E00E94BF0461E08AE00E94B6
:101E1000BF0461E083E00E948F0461E086E00E94DD
:101E20008F0460E08AE00E948F0460E082E00E94FC
:101E3000BF0461E082E00E948F0410926F04109250
:101E40006E0410926D0410926C0410926B04109248
:101E50006A048DE991E090937104809370049091ED
:101E60006004963108F057C02DEB30E030936B04DE
:101E700020936A042BE931E030936D0420936C04C5
:101E80002CE231E030936F0420936E0420916800BF
:101E9000983050F031E09E3008F430E081E001C02D
:101EA000880F3A95EAF701C084E0822B809368009E
:101EB000983038F09E3040F0963148F020E030E025
:101EC00008C02DE630E005C02BE630E002C02CE66D
:101ED00030E03093680420936704983030F481E058
:101EE00001C0880F9A95EAF70EC0292F30E09E3086
:101EF00018F42850310902C02E50310981E001C088
:101F0000880F2A95EAF78093690480917004909174
:101F100071040197F1F780916E0490916F04892B01
:101F200021F18091AA019091AB0124E084359207C0
:101F3000E1F0009711F00E94E607809172048E7F15
:101F4000809372041092A9011092A80184E594E094
:101F50009093AB018093AA01E0916704F09168042B
:101F6000908180916904892B808388E08093C503E8
:101F700089E08093C60384E091E09093CB03809343
:101F8000CA0361E088E00E94BF0461E08091C6035B
:101F90000E94BF040E94580A61E08091C6030E941B
:101FA0008F048091CA039091CB03DC01ED91FC91E9
:101FB0000280F381E02D09950E94580A25E040E057
:101FC0006EE471E08BE20E945D0A61E08091C503DE
:101FD0000E948F0484E08093C8038091C70389879F
:101FE00021E040E0BE01675F7F4F85E20E945D0A0D
:101FF0008091C803888721E040E0BE01685F7F4F81
:1020000081E30E945D0A8091C8038F8321E040E054
:10201000BE01695F7F4F82E30E945D0A0E944C0E01
:1020200020E040E060E070E082EE0E945D0A1092E5
:10203000BB021092BA02109204031092260310926F
:10204000020381E0809301031092DC0261E082E1EF
:102050000E948F0461E083E10E948F048091B900A7
:102060008E7F8093B9008091B9008D7F8093B900F5
:1020700088E48093B80085E48093BC0068EE73E048
:1020800080E090E00E943B0547E354E062E08AEA8A
:102090000E94100B8091370490E0982F88272091A0
:1020A0003804822B909319048093180447E354E07A
:1020B00062E08CEA0E94100B8091370490E0982F28
:1020C000882720913804822B90931B0480931A0454
:1020D00047E354E062E08EEA0E94100B80913704DF
:1020E00090E0982F882720913804822B90931D042C
:1020F00080931C0447E354E062E080EB0E94100BE5
:102100008091370490E0982F882720913804822B03
:10211000909329048093280447E354E062E082EB23
:102120000E94100B8091370490E0982F882720910F
:102130003804822B90932B0480932A0447E354E0C5
:1021400062E084EB0E94100B8091370490E0982F9E
:10215000882720913804822B90932D0480932C049F
:1021600047E354E062E086EB0E94100B8091370455
:1021700090E0982F882720913804822B90931F0499
:1021800080931E0447E354E062E088EB0E94100B4A
:102190008091370490E0982F882720913804822B73
:1021A000909321048093200447E354E062E08AEB9B
:1021B0000E94100B8091370490E0982F882720917F
:1021C0003804822B909323048093220447E354E045
:1021D00062E08CEB0E94100B8091370490E0982F06
:1021E000882720913804822B90932504809324041F
:1021F00047E354E062E08EEB0E94100B80913704BD
:1022000090E0982F882720913804822B9093270400
:10221000809326040E94E00B83E090E090933B04BF
:1022200080933A048BED90E0A0E0B0E080935004FE
:1022300090935104A0935204B09353048E010F5F06
:102240001F4FC8010E94DF0D89819A81AB81BC813B
:1022500080934C0490934D04A0934E04B0934F048C
:1022600084E591E00E949C0983E691E00E949C092C
:1022700080EE93E0909301018093000190916900BA
:102280009C7F926090936900E89A18010E947505FE
:1022900060931C0270931D0280931E0290931F0294
:1022A0000E9475050091B2011091B3012091B40113
:1022B0003091B501DC01CB01801B910BA20BB30B5C
:1022C00081319742A105B10508F402C12091AC010A
:1022D0003091AD014091AE015091AF01A6E0B0E068
:1022E0000E947D1E609308027093090280930A0287
:1022F00090930B020E94462020EC39E045E05CE31D
:102300000E94692160930402709305028093060283
:10231000909307020E9475056093B2017093B30118
:102320008093B4019093B50186E691E00E949C09E8
:10233000C0900802D0900902E0900A02F0900B02CF
:10234000F7FE0CC08DE20E94EF0966277727CB01CC
:102350006C197D098E099F094AE003C04AE0C70154
:10236000B6010E94AE098DE691E00E949C0981E7CA
:1023700091E00E949C09C0900402D0900502E09078
:102380000602F0900702A7019601C701B6010E945C
:102390007822882319F08AE791E01AC04601570194
:1023A000E894B7F82FEF3FEF4FE75FE7C501B401BF
:1023B0000E94782281110FC02FEF3FEF4FE75FE7B8
:1023C000C501B4010E94921F18162CF48EE791E00B
:1023D0000E949C096BC02FEF3FEF4FE75FE4C701FE
:1023E000B6010E945C2118161CF482E891E0F0CF3F
:1023F0002FEF3FEF4FE75FECC701B6010E94921F3E
:1024000087FDF3CF20E030E0A901C701B6010E94AB
:10241000921F87FF07C08DE20E94EF09F7FAF09440
:10242000F7F8F09426E137EB41E558E3C701B60130
:102430000E94B41E6B017C010E9415204B015C01BF
:102440000E9444209B01AC01C701B6010E94B31E4B
:102450006B017C014AE0C501B4010E94AE098EE225
:102460000E94EF0915E0115009F120E030E040E250
:1024700051E4C701B6010E9469216B017C010E94F1
:1024800015204B01A12CB12C4AE0C501B4010E94DA
:10249000AE09C501B4010E9444209B01AC01C701F3
:1024A000B6010E94B31E6B017C01DDCF83E691E093
:1024B0000E949C091092AC011092AD011092AE01E5
:1024C0001092AF0181E090E090930D0280930C0296
:1024D00080911C0290911D02A0911E02B0911F02DA
:1024E0004091C0015091C1016091C2017091C3013E
:1024F000841B950BA60BB70B88399840A105B10535
:1025000008F43CC60E9475056093C0017093C10138
:102510008093C2019093C30101E037E0B32E84E5BC
:1025200094E00E94E002181619060CF0ECC284E553
:1025300094E00E94F802182F8091100590911105E7
:10254000A0911205B09113050196A11DB11D8093B4
:10255000100590931105A0931205B0931305143242
:1025600009F4AFC2E0910A05153234F41A3071F063
:102570001D3009F0B4C20AC01A3241F01C3209F011
:10258000AEC28091F70481278093F704EF3008F002
:102590008AC2F0E0E750FB4F10828091F804882354
:1025A00009F473C12091F9043FEB320F822F022E00
:1025B000000C990B363010F4C79707C0215626300F
:1025C00018F48755910901C0C097282F2295207FC4
:1025D0003091FA044FEB430F832F032E000C990B1D
:1025E000463010F4C79707C03156363018F4875577
:1025F000910901C0C097820F9091F704891331C1EE
:1026000080911C0590911D05A0911E05B0911F059C
:102610000196A11DB11D80931C0590931D05A093EB
:102620001E05B0931F0580910B05882399F08091BA
:10263000140590911505A0911605B0911705019606
:10264000A11DB11D8093140590931505A093160547
:10265000B0931705F0900805FF2009F46BC0F1E076
:10266000FF12D0C080919B0490919C04A0919D0486
:10267000B0919E048093970490939804A09399043A
:10268000B0939A040E94750560939F047093A00410
:102690008093A1049093A204F0929604F092950482
:1026A0008091A9049091AA04A091AB04B091AC04CC
:1026B0008093A5049093A604A093A704B093A804C4
:1026C0000E9475056093AD047093AE048093AF04CF
:1026D0009093B004F092A404F092A30480910B05AF
:1026E000882309F48FC0E3E8F4E0A5E7B4E08B2D7C
:1026F00001900D928A95E1F7EAE8F4E0ACE7B4E0E6
:102700008B2D01900D928A95E1F70E9475056093DB
:102710009104709392048093930490939404F092A4
:102720007404F092730481EB94E00E9419068FEB1D
:1027300094E066C08091A9049091AA04A091AB0492
:10274000B091AC048093A5049093A604A093A70431
:10275000B093A8040E9475056093AD047093AE0415
:102760008093AF049093B0040093A4040093A30457
:1027700080910B05882321F1E3E8F4E0A5E7B4E0BC
:102780008B2D01900D928A95E1F7EAE8F4E0ACE731
:10279000B4E08B2D01900D928A95E1F70E947505AA
:1027A00060939104709392048093930490939404A3
:1027B00000937404009373048DEC94E00E94190656
:1027C0008091E5049091E604A091E704B091E804BB
:1027D0008093E1049093E204A093E304B093E404B3
:1027E0000E9475056093DD047093DE048093DF041E
:1027F0009093E0040093DC040093DB0489EE94E002
:102800000E941906E0900E05F0900F05E114F10406
:1028100009F449C1E0910E05F0910F0566A177A179
:10282000F70186A197A10E94A323892B09F03BC140
:10283000B701C70140960E94AC230E947505D701DD
:1028400090966D937D938D939C93939795960C930F
:10285000959794960C9394979A96ED90FC909B97ED
:10286000D5CF8091180590911905A0911A05B091C6
:102870001B050196A11DB11D8093180590931905A4
:10288000A0931A05B0931B050EC1909109059111F3
:1028900039C066E871E089EF94E00E94A323892B98
:1028A00019F4009308050EC06CE871E089EF94E01C
:1028B0000E94A323892B19F41092080503C0F2E0AB
:1028C000F093080580910C0590910D0590930F05EC
:1028D00080930E05E0900E05F0900F05E114F104D1
:1028E00009F4E1C0F701C6A0D7A069EF74E0C60102
:1028F0000E94A32397FFCBC0D7019A968D919C91FC
:102900009B97E4CFE0910805E23009F491C08091F3
:10291000F904882309F48CC020E2E29FF00111241D
:10292000E92B3197E932F10508F082C0EC5CFF4FEA
:102930000C94771E89EF94E00E94B8066093A90476
:102940007093AA048093AB049093AC0471C091E09F
:10295000813409F043C043C063E874E009C091E0EA
:10296000833509F090E09093890462C06AE874E0CE
:1029700089EF94E00E9430065BC091E0873509F052
:1029800090E09093900454C089EF94E00E94B806C0
:102990006093BB047093BC048093BD049093BE0409
:1029A00047C089EF94E00E94B8066093C904709311
:1029B000CA048093CB049093CC043AC089EF94E08E
:1029C0000E94C22360939B0470939C0480939D0497
:1029D00090939E042DC091E081330CF490E090938D
:1029E0000B0526C089EF94E00E94C2236093E504A2
:1029F0007093E6048093E7049093E80419C089EF8C
:102A000094E00E94B8066093F3047093F4048093FA
:102A1000F5049093F6040CC089EF94E00E94B80688
:102A20006093D7047093D8048093D9049093DA0408
:102A3000E0900E05F0900F05E114F104A1F1E09192
:102A40000E05F0910F0566A177A1F70186A197A168
:102A50000E94A323892B39F5D70198962D913C919B
:102A600099978091090590E082179307E4F0281761
:102A7000390739F440E150E069EF74E0C7010E9482
:102A8000B323D7019A96ED90FC909B97D5CF69EF31
:102A900074E0C6010E94A3231816190624F41092AC
:102AA0000F0510920E05809109058F5F809309052F
:102AB00010920A0581E01A3209F080E08093F80450
:102AC0002ECD10920A05109209051092F704B2E07B
:102AD000B09308051092F80410920B0520CDEE304B
:102AE00040F481E08E0F80930A05F0E0E750FB4F41
:102AF00010838091F804811112CD8091F70418277A
:102B00001093F7040CCD809174048823A9F00E94DF
:102B1000290A6093F2017093F3018093F40190937A
:102B2000F5010E94FA096093EE017093EF01809322
:102B3000F0019093F10122C3809196048823B1F1B2
:102B400010929604C0909704D0909804E090990455
:102B5000F0909A04D092E301C092E201C701B6015D
:102B600024E630E040E050E00E94361E6053784F8B
:102B70007093E1016093E001CA01B90124E630E0FD
:102B800040E050E00E94361E7093DF016093DE014A
:102B9000C701B60120E137E240E050E00E94361E56
:102BA00030E03093DD012093DC01E8C28091A40481
:102BB000882309F444C01092A404C090A504D090C6
:102BC000A604E090A704F090A804D092DB01C09284
:102BD000DA01C701B60120E432E44FE050E00E9480
:102BE000361E30E03093D9012093D801C701B601D9
:102BF00020E137E240E050E00E94361ECA01B901F0
:102C000024E630E040E050E00E94361E7093D70189
:102C10006093D601C701B60124E630E040E050E001
:102C20000E94361ECA01B90124E630E040E050E0BF
:102C30000E94361E7093D5016093D4019FC280918B
:102C4000B204882309F44DC01092B2046091B70415
:102C50007091B8048091B9049091BA047093D30133
:102C60006093D2010E9446206B017C012EEB3CE474
:102C700043E95FE30E94692120E030E048EC52E440
:102C80000E949C1F0E940E207093E5016093E40156
:102C900021EA32EB43E05FE3C701B6010E946921FC
:102CA00020E030E048EC52E40E949C1F0E940E207D
:102CB0007093D1016093D00126E53EE04DEE5FE3D5
:102CC000C701B6010E94692120E030E048EC52E4DF
:102CD0000E949C1F0E940E207093CF016093CE0132
:102CE0004DC28091C0048823E9F01092C004609125
:102CF000C5047091C6048091C7049091C804709374
:102D0000CD016093CC010E94462020E030E048ECE9
:102D100052E40E949C1F0E940E207093E701609372
:102D2000E6012CC28091CE04882309F45BC0109286
:102D3000CE046091D3047091D4048091D504909115
:102D4000D6047093CB016093CA010E9446206B01A8
:102D50007C0120E030E048EC52E40E949C1F0E947D
:102D60000E207093F7016093F60123E833EE42E200
:102D70005AE3C701B6010E94692120E030E048EC27
:102D800052E40E949C1F0E940E207093C701609322
:102D9000C6012FE632E143E85AE3C701B6010E94BB
:102DA000692120E030E048EC52E40E949C1F0E9420
:102DB0000E207093C9016093C80128E439EF41E502
:102DC00050E4C701B6010E94692120E030E048ECE0
:102DD00052E40E949C1F0E940E207093C5016093D4
:102DE000C401CCC18091DC04882359F01092DC042A
:102DF0008091E1049091E2049093ED018093EC01C5
:102E0000BDC18091EA04882359F01092EA048091B0
:102E1000EF049091F0049093BF018093BE01AEC186
:102E20000E9475050091BA011091BB012091BC016F
:102E30003091BD01DC01CB01801B910BA20BB30BC8
:102E400089389341A105B10508F498C180917304B4
:102E5000882309F463C18091060190910701A09134
:102E60000801B09109018E879F87A88BB98B80904C
:102E70000A0190900B01A0900C01B0900D010E94EE
:102E8000FA092B013C010E94290A6B017C012E8565
:102E90003F8548895989C301B2010E94B31E25E3C9
:102EA0003AEF4EE85CE30E9469212B013C010E944D
:102EB00026226A8F7B8F8C8F9D8FC301B2010E9467
:102EC000971F6E8B7F8B888F998F25E33AEF4EE8A3
:102ED0005CE3C701B6010E9469216B017C0125E317
:102EE0003AEF4EE85CE3C501B4010E9469212B0171
:102EF0003C01C701B6010E9426224B015C01C701BB
:102F0000B6010E94971F6B017C01C301B2010E94B0
:102F100026226A8B7B8B8C8B9D8BC301B2010E9416
:102F2000971F6A877B878C879D872A893B894C8975
:102F30005D89C701B6010E9469212B013C012A85E8
:102F40003B854C855D85C501B4010E9469212E89B0
:102F50003F89488D598D0E9469219B01AC01C301B5
:102F6000B2010E94B31E9B01AC010E9469212B019A
:102F70003C012A8D3B8D4C8D5D8D6A857B858C85D2
:102F80009D850E9469219B01AC010E9469219B01E2
:102F9000AC01C301B2010E94B41E0E9434222B0175
:102FA0003C012A893B894C895D89C501B4010E9495
:102FB00069214B015C012A853B854C855D85C701F4
:102FC000B6010E9469212E893F89488D598D0E9442
:102FD00069219B01AC01C501B4010E94B41E9B0193
:102FE000AC01C301B2010E94331F26E73BE742EC6C
:102FF0005AE40E9469216093E8017093E90180938B
:10300000EA019093EB010E94FA099B01AC016E8FDB
:103010003F8F48A359A30E94290A6B017C012E8D82
:103020003F8D48A159A16E857F85888999890E9425
:10303000B31E25E33AEF4EE85CE30E9469214B01A1
:103040005C0125E33AEF4EE85CE3C701B6010E945C
:1030500069216B017C01C501B4010E9426226E87A3
:103060007F87888B998BC701B6010E9426222B018E
:103070003C01C501B4010E94971F4B015C012A85E8
:103080003B854C855D85C301B2010E946921A50184
:1030900094010E9469214B015C01C701B6010E94A5
:1030A000971F2A893B894C895D890E946921A50166
:1030B00094010E94B31E6B017C012A853B854C85DF
:1030C0005D856E857F85888999890E946921A70120
:1030D00096010E94331F6B017C0120E030E0A901C2
:1030E0000E94921F87FF0AC02BED3FE049EC50E49D
:1030F000C701B6010E94B41E6B017C0121EE3EE2C5
:1031000045E652E4C701B6010E9469216093B60109
:103110007093B7018093B8019093B9018091100525
:1031200090911105A0911205B09113050A97A10580
:10313000B105D0F408ED11E0F8016491611105C00A
:1031400083E691E00E949C090FC0E0912703F09173
:1031500028030190F081E02D87E293E009950F5F4D
:103160001F4F892B49F7ECCF0E9475056093BA0178
:103170007093BB018093BC019093BD0180911C02B0
:1031800090911D02A0911E02B0911F024091140265
:10319000509115026091160270911702841B950BD5
:1031A000A60BB70B85369105A105B10508F44FC2F2
:1031B0000E947505609314027093150280931602A5
:1031C00090931702109210021092110210921202A4
:1031D0001092130210920F0210920E028091C403FB
:1031E000882331F00E949F0A807379F00E944C0E70
:1031F0000E949F0A86FD77C221E041E0B10187E18C
:103200000E945D0A898180FF6EC2E0910E02F091FA
:103210000F02309709F415C23197E832F10508F032
:10322000C7C1E35AFF4F0C94771E80910C02909116
:103230000D02B4C18091080290910902A0910A0286
:10324000B0910B028093100290931102A09312028E
:10325000B0931302B5C120E030E44CE156E4609134
:1032600004027091050280910602909107020E946B
:1032700069210E94152060931002709311028093BF
:1032800012029093130210920D0210920C0298C138
:1032900080911802882309F401C108C180E4809359
:1032A0007C0080917A00806480937A0080917A001B
:1032B00086FDFCCF809178002091790090E0922BE0
:1032C0006DC180911A02E6CF0E94E00B80912E041E
:1032D00090912F04A0913004B09131040896A11D63
:1032E000B11D24E0B595A795979587952A95D1F7B7
:1032F0008093000290930102A0930202B093030214
:10330000A1CF8CEF91E00E94DF0D6091FC017091E4
:10331000FD018091FE019091FF010E9446202DEC5D
:103320003CE445E053E40E949C1FA2C0C1010E94FE
:10333000470C69817A818B819C810E9446206B01B8
:103340007C0160914C0470914D0480914E049091E9
:103350004F040E9446209B01AC01C701B6010E94A8
:103360009C1F21E03EED42E45EE30E94D6219B01DA
:10337000AC0160E070E080E89FE30E94B31E20EDA6
:1033800038E447E85AE40E9469216B017C016091AE
:1033900044047091450480914604909147040E9432
:1033A00046209B01AC01C701B6010E94B41E0E94D9
:1033B0000E206093F8017093F9018093FA019093C5
:1033C000FB0124E630E040E050E00E94581E2093CC
:1033D0001002309311024093120250931302F0C076
:1033E0008091F6019091F701D9C020E034E244E7E2
:1033F00059E46091F2017091F3018091F401909190
:10340000F50126C020E034E244E759E46091EE0182
:103410007091EF018091F0019091F10119C020E0CD
:1034200034E244E759E460910A0170910B01809104
:103430000C0190910D010CC020E034E244E759E406
:103440006091060170910701809108019091090136
:103450000E9469210DC08091EC019091ED019EC008
:103460006091E8017091E9018091EA019091EB018E
:103470000E94152060931002709311028093120233
:10348000909313029DC08091E6019091E70186C060
:1034900081E080931A020AC010921A0281E090E043
:1034A000A0E0B0E0CFCE81E08093180282E090E00F
:1034B000A0E0B0E0C7CE10921802F0CF8091F201E8
:1034C0009091F301A091F401B091F50180930A016C
:1034D00090930B01A0930C01B0930D018091EE012C
:1034E0009091EF01A091F001B091F101809306015C
:1034F00090930701A0930801B0930901CFCF809169
:10350000E2019091E3014AC08091E0019091E101D4
:1035100045C08091DE019091DF0140C08091DC01C7
:103520009091DD013BC08091DA019091DB0136C0C2
:103530008091D8019091D90131C08091D6019091AC
:10354000D7012CC08091D4019091D50127C08091E2
:10355000D2019091D30122C08091E4019091E501C4
:103560001DC08091D0019091D10118C08091CE01F1
:103570009091CF0113C08091CC019091CD010EC0EC
:103580008091CA019091CB0109C08091C8019091AE
:10359000C90104C08091C6019091C701092E000C99
:1035A000AA0BBB0B4FCE8091C4019091C501F6CF01
:1035B00082E991E00E949C0983E691E00E949C09C7
:1035C00025E040E062EA71E08AE20E945D0A25E0BF
:1035D00040E062EA71E080E30E945D0A0E949F0A77
:1035E0008091C403882331F00E949F0A8073C1F345
:1035F0001092C4030E94580A81E08093C403809112
:10360000C90382608D8321E040E0BE016B5F7F4F84
:1036100080E20E945D0A20E040E060E070E081EE20
:103620000E945D0A2091C80340E060E172E080EAF8
:103630000E945D0A61E08091C5030E948F040E9490
:10364000580A64E170E080E090E00E943B058091C0
:103650001A0290911B02981751F080931B02882345
:1036600011F060E001C061E083E00E948F0480916E
:10367000180290911902981751F08093190288232B
:1036800011F060E001C061E086E00E948F0480914B
:10369000B0019091B101892B21F488E094E00E945F
:1036A0002A098091B0019091B101019721F488EE2F
:1036B00093E00E942A098091B0019091B101029794
:1036C00021F488EF93E00E942A098091B001909143
:1036D000B101039721F488ED93E00E942A090E942A
:1036E0001A020C9446112091C80341E06EE072E08A
:1036F00081E60E945D0A80E48E8321E040E0BE0105
:103700006A5F7F4F87E20E945D0A6CE271E080E0B1
:1037100090E00E943B0579CD8CE391E090935504B5
:103720008093540484E594E00C94E6078F929F9272
:10373000AF92BF92CF92DF92EF92FF92CF93DF933F
:1037400010922A031092290388EE93E0A0E0B0E0E3
:1037500080932B0390932C03A0932D03B0932E03FF
:103760002CE131E0309328032093270325EC30E04F
:10377000309334032093330324EC30E0309336034A
:103780002093350320EC30E0309338032093370347
:1037900021EC30E030933A032093390322EC30E0FF
:1037A00030933C0320933B0326EC30E030933E0300
:1037B00020933D0310924003109241031092420364
:1037C0001092430328E02093C50337E03093C603EB
:1037D00061E06093C70330E13093C8031092CB03DC
:1037E0001092CA032093C9031092CF031092CE0304
:1037F0008093D0039093D103A093D203B093D303CB
:103800002CE231E03093CD032093CC03109273046B
:10381000109274041092760410927504109277043A
:10382000109278041092790410927A0410927B041A
:1038300010927D0410927C0410927E0410927F04FA
:1038400010928004109281041092820410928404D9
:1038500010928304109285041092860410928704BB
:10386000109288041092890410928B0410928A049A
:1038700010928C0410928D0410928E0410928F047A
:10388000109290041092950410929604109297044E
:10389000109298041092990410929A041092A30422
:1038A0001092A4041092A5041092A6041092A704EA
:1038B0001092A8041092B1041092B2041092B704AE
:1038C0001092B8041092B9041092BA041092BF0476
:1038D0001092C0041092C5041092C6041092C7043E
:1038E0001092C8041092CD041092CE041092D3040A
:1038F0001092D4041092D5041092D6041092DB04D6
:103900001092DC041092E1041092E2041092E3049D
:103910001092E4041092E9041092EA041092EF0469
:103920001092F0041092F1041092F2041092F70435
:103930001092F80422E020930805109209051092D5
:103940000A0510920B0510920D0510920C051092AD
:103950000F0510920E05109210051092110510928D
:10396000120510921305109214051092150510926D
:10397000160510921705109218051092190510924D
:103980001A0510921B0510921C0510921D0510922D
:103990001E0510921F051092F90410925704109200
:1039A00056048093580490935904A0935A04B093FA
:1039B0005B048CE391E0909355048093540410923F
:1039C0006B0410926A0410926D0410926C041092B1
:1039D0006F0410926E041092710410927004809122
:1039E00072048E7F8D7F8093720486958170682724
:1039F00084E00E948F0461E084E00E94BF04E7E459
:103A0000F2E0E491E0936404E3E3F2E0E491F0E0B7
:103A1000EE0FFF1FE55EFD4F859194919093660434
:103A20008093650460E085E00E94BF048091720489
:103A300081FD04C061E085E00E948F0485E08093F1
:103A40006004E8E4F2E0E491E0936104E4E3F2E08E
:103A5000E491F0E0EE0FFF1FEB5DFD4F8591949137
:103A6000909363048093620487E78093360485E033
:103A700090E090933D0480933C0488E090E0909324
:103A80003F0480933E048EE090E090934104809345
:103A900040048AE190E090934304809342041092A2
:103AA0004404109245041092460410924704109268
:103AB00048041092490410924A0410924B04109248
:103AC000320410923304109234041092350480E1D1
:103AD00090E0909309048093080461E00E94BF0481
:103AE0009CE4892E94E0992EA12CB12C80920A049A
:103AF00090920B04A0920C04B0920D0424EFC22EFD
:103B0000DD24D394E12CF12CC0920E04D0920F044A
:103B1000E0921004F0921104109213041092120417
:103B200010921404109215041092160410921704A7
:103B300081E190E09093F9038093F80361E00E94A3
:103B4000BF048092FA039092FB03A092FC03B09210
:103B5000FD03C092FE03D092FF03E0920004F092B6
:103B600001041092030410920204109204041092B3
:103B700005041092060410920704C5E1D0E0D0932A
:103B8000E903C093E80361E085E10E94BF04C092AD
:103B9000EA03D092EB03E092EC03F092ED03C092C3
:103BA000EE03D092EF03E092F003F092F103109253
:103BB000F3031092F2031092F4031092F5031092A3
:103BC000F6031092F703D093D903C093D80361E0B2
:103BD00085E10E94BF04C092DA03D092DB03E09239
:103BE000DC03F092DD03C092DE03D092DF03E092AB
:103BF000E003F092E1031092E3031092E2031092CB
:103C0000E4031092E5031092E6031092E703DF91BC
:103C1000CF91FF90EF90DF90CF90BF90AF909F90AB
:103C20008F900895DB018F939F930E947D1EBF911B
:103C3000AF91A29F800D911DA39F900DB29F900DFB
:103C40001124089597FB072E16F4009407D077FDF2
:103C500009D00E94901E07FC05D03EF490958195F6
:103C60009F4F0895709561957F4F0895A1E21A2E98
:103C7000AA1BBB1BFD010DC0AA1FBB1FEE1FFF1F10
:103C8000A217B307E407F50720F0A21BB30BE40B60
:103C9000F50B661F771F881F991F1A9469F76095A7
:103CA0007095809590959B01AC01BD01CF01089561
:103CB000052E97FB1EF400940E946F1E57FD07D03F
:103CC0000E94361E07FC03D04EF40C946F1E5095D4
:103CD0004095309521953F4F4F4F5F4F08959095F8
:103CE0008095709561957F4F8F4F9F4F0895EE0F90
:103CF000FF1F0590F491E02D09940E94A41EA59F3A
:103D0000900DB49F900DA49F800D911D11240895D6
:103D1000B7FF0C947D1E0E947D1E821B930B08959D
:103D2000AA1BBB1B51E107C0AA1FBB1FA617B707E1
:103D300010F0A61BB70B881F991F5A95A9F78095FD
:103D40009095BC01CD010895A29FB001B39FC00121
:103D5000A39F700D811D1124911DB29F700D811DB7
:103D60001124911D08955058BB27AA270E94CB1EED
:103D70000C940E210E94D52038F00E94DC2020F007
:103D800039F49F3F19F426F40C94AB200EF4E0951F
:103D9000E7FB0C94A520E92F0E94332158F3BA17B2
:103DA000620773078407950720F079F4A6F50C9451
:103DB00055210EF4E0950B2EBA2FA02D0B01B90161
:103DC00090010C01CA01A0011124FF27591B99F091
:103DD000593F50F4503E68F11A16F040A22F232F9D
:103DE000342F4427585FF3CF469537952795A795ED
:103DF000F0405395C9F77EF41F16BA0B620B730B94
:103E0000840BBAF09150A1F0FF0FBB1F661F771F04
:103E1000881FC2F70EC0BA0F621F731F841F48F4B9
:103E2000879577956795B795F7959E3F08F0B0CF42
:103E30009395880F08F09927EE0F97958795089529
:103E40000E94D52060F080E891E009F49EEF0E9486
:103E5000DC2028F040E851E071F45EEF0CC00C94D7
:103E6000AB200C945521E92FE0780E94332140F3D8
:103E7000092E052AB1F3261737074807590738F0E6
:103E80000E2E07F8E02569F0E025E0640AC0EF6334
:103E900007F8009407FADB01B9019D01DC01CA01B2
:103EA000AD01EF930E94B31F0E940E210E94631F79
:103EB0005F91552339F02BED3FE049E450FD49EC8B
:103EC0000C94B41E0895DF93DD27B92FBF7740E827
:103ED0005FE31616170648075B0718F4D92F0E94F0
:103EE00061219F938F937F936F930E947422EAE0E6
:103EF000F1E00E94AE200E940E212F913F914F9140
:103F00005F910E947C21DD2351F09058A2EA2AEDB6
:103F10003FE049EC5FE3D0785D270E94CB1EDF9144
:103F20000C940E210E94812008F481E008950E94E3
:103F3000E520E3950C941F210E94B01F0C940E21E4
:103F40000E94DC2058F00E94D52040F029F45F3F09
:103F500029F00C94A52051110C9456210C94AB20FF
:103F60000E94332168F39923B1F3552391F3951BF4
:103F7000550BBB27AA2762177307840738F09F5F8A
:103F80005F4F220F331F441FAA1FA9F335D00E2EF7
:103F90003AF0E0E832D091505040E695001CCAF764
:103FA0002BD0FE2F29D0660F771F881FBB1F261727
:103FB00037074807AB07B0E809F0BB0B802DBF01FE
:103FC000FF2793585F4F3AF09E3F510578F00C94CD
:103FD000A5200C9456215F3FE4F3983ED4F38695D8
:103FE00077956795B795F7959F5FC9F7880F911DEE
:103FF0009695879597F90895E1E0660F771F881FDA
:10400000BB1F621773078407BA0720F0621B730B8C
:10401000840BBA0BEE1F88F7E09508950E941520D7
:104020006894B1110C94562108950E943B2188F0A8
:104030009F5798F0B92F9927B751B0F0E1F0660F6C
:10404000771F881F991F1AF0BA95C9F714C0B130AD
:1040500091F00E945521B1E008950C945521672FED
:10406000782F8827B85F39F0B93FCCF386957795DC
:104070006795B395D9F73EF49095809570956195C5
:104080007F4F8F4F9F4F0895E89409C097FB3EF4F0
:1040900090958095709561957F4F8F4F9F4F992395
:1040A000A9F0F92F96E9BB279395F6958795779513
:1040B0006795B795F111F8CFFAF4BB0F11F460FFD3
:1040C0001BC06F5F7F4F8F4F9F4F16C0882311F02B
:1040D00096E911C0772321F09EE8872F762F05C03F
:1040E000662371F096E8862F70E060E02AF09A95DA
:1040F000660F771F881FDAF7880F9695879597F9CF
:104100000895990F0008550FAA0BE0E8FEEF161668
:104110001706E807F907C0F012161306E407F507BB
:1041200098F0621B730B840B950B39F40A2661F02F
:10413000232B242B252B21F408950A2609F4A140D2
:10414000A6958FEF811D811D089597F99F6780E8DF
:1041500070E060E008959FEF80EC0895DF93CF93C7
:104160001F930F93FF92EF92DF927B018C01689473
:1041700006C0DA2EEF010E947C21FE01E894A59191
:104180002591359145915591A6F3EF010E94CB1EE3
:10419000FE019701A801DA9469F7DF90EF90FF9094
:1041A0000F911F91CF91DF91089500240A94161664
:1041B000170618060906089500240A941216130615
:1041C0001406050608950C94AB200E943B21D8F3F9
:1041D000E894E0E0BB279F57F0F02AED3FE049EC80
:1041E00006C0EE0FBB0F661F771F881F28F0B23A7C
:1041F00062077307840728F0B25A620B730B840BB3
:10420000E3959A9572F7803830F49A95BB0F661F44
:10421000771F881FD2F790480C94B922092E039477
:10422000000C11F4882352F0BB0F40F4BF2B11F4A3
:1042300060FF04C06F5F7F4F8F4F9F4F0895EF93D4
:10424000E0FF07C0A2EA2AED3FE049EC5FEB0E94E5
:10425000CB1E0E940E210F90039401FC9058E7E3BF
:10426000F1E00C94CC2257FD9058440F551F59F0A3
:104270005F3F71F04795880F97FB991F61F09F3F53
:1042800079F087950895121613061406551FF2CF7C
:104290004695F1DF08C0161617061806991FF1CFCC
:1042A00086957105610508940895E894BB276627F3
:1042B0007727CB0197F908950E94812008F48FEFAA
:1042C00008959B01AC0160E070E080E89FE30C94EE
:1042D0009C1F0E947C210C940E210E94D52038F056
:1042E0000E94DC2020F0952311F00C94A5200C9462
:1042F000AB2011240C9456210E94332170F3959F1A
:10430000C1F3950F50E0551F629FF001729FBB27CC
:10431000F00DB11D639FAA27F00DB11DAA1F649F68
:104320006627B00DA11D661F829F2227B00DA11D1B
:10433000621F739FB00DA11D621F839FA00D611DA1
:10434000221F749F3327A00D611D231F849F600DC2
:10435000211D822F762F6A2F11249F5750409AF0EB
:10436000F1F088234AF0EE0FFF1FBB1F661F771F77
:10437000881F91505040A9F79E3F510580F00C9442
:10438000A5200C9456215F3FE4F3983ED4F3869524
:1043900077956795B795F795E7959F5FC1F7FE2BE2
:1043A000880F911D9695879597F90895FA01EE0F5C
:1043B000FF1F309621053105A1F16115710561F4EA
:1043C0008038BFE39B0749F168949038810561F01C
:1043D0008038BFEF9B0741F099234AF5FF3FE10585
:1043E0003105210519F1E8940894E795D901AA232C
:1043F00029F4AB2FBE2FF85FD0F310C0FF5F70F42D
:10440000A695E0F7F73950F019F0FF3A38F49F77A6
:104410009F930DD00F9007FC9058089546F00C9490
:10442000AB2060E070E080E89FE308954FE79F775E
:104430005F934F933F932F930E9422232F913F919D
:104440004F915F910E9469210C9485229F930E9455
:10445000E5200F9007FCEE5F0C941F2119F416F471
:104460000C94AB200C94B7220E943B21B8F3992303
:10447000C9F3B6F39F57550B87FF0E94C52200244E
:10448000A0E640EA900180585695979528F4805C04
:10449000660F771F881F20F026173707480730F46C
:1044A000621B730B840B202931294A2BA695179484
:1044B0000794202531254A2758F7660F771F881F54
:1044C00020F026173707480730F4620B730B840B74
:1044D000200D311D411DA09581F7B901842F915800
:1044E000880F9695879508959B01AC010C946921DE
:1044F0000E948120880B990B089529F416F00C94E2
:10450000A5200C9455210C94AB200E943B21A8F3CC
:104510009638A0F707F80F92E8942BE33AEA48EBB5
:104520005FE70E947F210F920F920F924DB75EB707
:104530000F920E946A23E5E5F1E00E94AE204F91C0
:104540005F91EF91FF91E595EE1FFF1F49F0FE5738
:10455000E0684427EE0F441FFA95E1F74195550BAB
:104560000E94E4220F9007FE0C94612108959F3F62
:1045700031F0915020F4879577956795B795880F1E
:10458000911D9695879597F9089591505040660F23
:10459000771F881FD2F708959F938F937F936F9310
:1045A000FF93EF939B01AC010E946921EF91FF9172
:1045B0000E94AE202F913F914F915F910C94692101
:1045C0000C94A5200C94B7220E943B21D8F3992388
:1045D000C9F3940F511DA3F39150504094F059F03A
:1045E000882332F0660F771F881F91505040C1F723
:1045F0009E3F51052CF7880F911D9695879597F949
:1046000008955F3FACF0983E9CF0BB278695779568
:104610006795B79508F4B1609395C1F7BB0F58F74C
:1046200011F460FFE8CF6F5F7F4F8F4F9F4FE3CF55
:104630000C94562116F00C94B7220C94AB2068947D
:104640000C94A5200E943B21A8F39923C1F3AEF35B
:10465000DF93CF931F930F93FF92C92FDD278823FA
:104660002AF02197660F771F881FDAF720E030E0E5
:1046700040E85FEB9FE3883920F0803E38F02196D8
:104680008F770E94B41EEDE7F1E004C00E94B41ED3
:10469000EAEAF1E00E94AE208B01BE01EC01FB2EA4
:1046A0006F5771097595771F880B990B0E944620EB
:1046B00028E132E741E35FE30E947C21AF2D9801BE
:1046C000AE01FF900F911F91CF91DF910E94CB1E01
:1046D0000C940E21FA01DC01AA0FBB1F9B01AC0157
:1046E000BF5728F4222733274427507820C0B751DA
:1046F00090F4AB2F0024469537952795011CA39580
:10470000D2F3002071F0220F331F441FB395DAF368
:104710000ED00C94B31E61307105A0E88A07B9462B
:1047200030F49B01AC016627772788279078309674
:1047300021F02083318342835383089581E090E008
:10474000F8940C94FE23FB01DC018D9101908019FB
:104750000110D9F3990B0895FB01DC0101900D9232
:104760000020E1F70895FB01DC014150504048F082
:1047700001900D920020C9F701C01D924150504098
:10478000E0F708951F93FC0199278827BC01E8945E
:1047900011911032E9F3193010F01E30C8F31B32BA
:1047A00051F01D3249F4689406C00E94E923610F5C
:1047B000711D811D911D119110531A30B0F33EF4FB
:1047C00090958095709561957F4F8F4F9F4F1F916A
:1047D0000895592F482F372F262F660F771F881FD0
:1047E000991F660F771F881F991F620F731F841F01
:1047F000951F660F771F881F991F089511E0CDE25E
:10480000D1E004C0FE010E94771E2196CE32D1076E
:06481000C9F7F894FFCF88
:10481600720272021201ABEC1442EAD15F4200004E
:104826000000D703FB04D60300000000B1019A0B79
:104836007A0158016C01F80100000000A703770314
:104846006F035B034C034B03000000008C029A0BC2
:10485600E002F80273028B024C044C04F401666C0D
:1048660079313000426567696E6E696E67202E2E5B
:104876002E20000D0A0063706D203D2000202D20A3
:10488600007553762F68203D20006E616E00696EBC
:1048960066006F7666004750524D430047504747C3
:1048A6004100556E6B6E6F776E20636F6D6D616E36
:0848B600640072656D6F74006F
:107800000C94343C0C94513C0C94513C0C94513CE1
:107810000C94513C0C94513C0C94513C0C94513CB4
:107820000C94513C0C94513C0C94513C0C94513CA4
:107830000C94513C0C94513C0C94513C0C94513C94
:107840000C94513C0C94513C0C94513C0C94513C84
:107850000C94513C0C94513C0C94513C0C94513C74
:107860000C94513C0C94513C11241FBECFEFD8E036
:10787000DEBFCDBF11E0A0E0B1E0ECE9FFE702C060
:1078800005900D92A230B107D9F712E0A2E0B1E065
:1078900001C01D92AD30B107E1F70E942D3D0C945F
:1078A000CC3F0C94003C982F959595959595959582
:1078B000905D8F708A307CF0282F295A8091C0000B
:1078C00085FFFCCF9093C6008091C00085FFFCCF60
:1078D0002093C6000895282F205DF0CF982F809127
:1078E000C00085FFFCCF9093C6000895EF92FF92F1
:1078F0000F931F93EE24FF2487018091C00087FD22
:1079000017C00894E11CF11C011D111D81E4E8164B
:1079100082E4F8068FE0080780E0180770F3E09132
:107920000401F091050109958091C00087FFE9CF1E
:107930008091C6001F910F91FF90EF9008950E94D3
:10794000763C982F8091C00085FFFCCF9093C600B5
:1079500091362CF490330CF09053892F089597555D
:10796000892F08951F930E949F3C182F0E949F3CCF
:107970001295107F810F1F9108951F93182F882350
:1079800021F00E94763C1150E1F71F9108951F935A
:10799000182F0E94763C803249F0809103018F5F5E
:1079A000809303018530C1F01F9108958091C0003C
:1079B00085FFFCCF84E18093C6008091C00085FFE5
:1079C000FCCF1093C6008091C00085FFFCCF80E102
:1079D0008093C6001F910895E0910401F091050184
:1079E00009951F9108950E94763C803241F0809164
:1079F00003018F5F80930301853081F008958091AA
:107A0000C00085FFFCCF84E18093C6008091C00058
:107A100085FFFCCF80E18093C6000895E0910401CA
:107A2000F09105010995089540E951E08823A1F0FE
:107A30002D9A28EE33E0FA013197F1F721503040CA
:107A4000D1F72D9828EE33E0FA013197F1F7215064
:107A50003040D1F7815061F708953F924F925F9285
:107A60006F927F928F929F92AF92BF92CF92DF924E
:107A7000EF92FF920F931F93CF93DF93000080E16B
:107A80008093C4001092C50088E18093C10086E015
:107A90008093C2005098589A259A81E00E94143D24
:107AA00024E1F22E9EE1E92E85E9D82E0FE0C02ECA
:107AB00010E1B12EAA24A394B1E49B2EA6E58A2E50
:107AC000F2E57F2EE0E26E2E79E4572E63E5462E36
:107AD00050E5352E0E94763C8033B1F18133B9F107
:107AE000803409F46FC0813409F476C0823409F41B
:107AF00085C0853409F488C0803531F1823521F1A3
:107B0000813511F1853509F485C0863509F48DC0BC
:107B1000843609F496C0843709F403C1853709F423
:107B200072C1863709F466C0809103018F5F80932C
:107B30000301853079F6E0910401F0910501099582
:107B40000E94763C803351F60E94F33CC3CF0E94E2
:107B5000763C803249F78091C00085FFFCCFF092DF
:107B6000C6008091C00085FFFCCF9092C600809136
:107B7000C00085FFFCCF8092C6008091C00085FFC9
:107B8000FCCF7092C6008091C00085FFFCCF609250
:107B9000C6008091C00085FFFCCF5092C600809146
:107BA000C00085FFFCCF4092C6008091C00085FFD9
:107BB000FCCF3092C6008091C00085FFFCCFB09210
:107BC000C60088CF0E94763C863808F4BDCF0E945C
:107BD000763C0E94F33C7ECF0E94763C803809F4CC
:107BE0009CC0813809F40BC1823809F43CC1883942
:107BF00009F48FC080E00E94C73C6CCF84E10E94F2
:107C0000BD3C0E94F33C66CF85E00E94BD3C0E94D3
:107C1000F33C60CF0E94763C809306010E94763C44
:107C2000809307010E94F33C55CF0E94763C80333D
:107C300009F41DC183E00E94BD3C80E00E94C73C66
:107C400049CF0E94763C809309020E94763C809343
:107C5000080280910C028E7F80930C020E94763C79
:107C6000853409F415C18091080290910902892B8D
:107C700089F000E010E00E94763CF801E85FFE4FDA
:107C800080830F5F1F4F80910802909109020817AF
:107C9000190788F30E94763C803209F045CF809125
:107CA0000C0280FF01C16091060170910701660F0F
:107CB000771F7093070160930601A0910802B091AD
:107CC00009021097C9F0E8E0F1E09B01AD014E0F09
:107CD0005F1FF999FECF32BD21BD819180BDFA9A17
:107CE000F99A2F5F3F4FE417F50799F76A0F7B1F4B
:107CF00070930701609306018091C00085FFFCCF5F
:107D0000F092C6008091C00085FFFCCFB092C60003
:107D1000E1CE83E00E94C73CDDCE82E00E94C73CFA
:107D2000D9CE0E94763C809309020E94763C8093D3
:107D300008028091060190910701880F991F909386
:107D40000701809306010E94763C853409F4A6C0A1
:107D500080910C028E7F80930C020E94763C8032D0
:107D600009F0B8CE8091C00085FFFCCFF092C6002C
:107D7000609108027091090261157105B9F140E046
:107D800050E080910C02A82FA170B82FB27011C0E2
:107D9000BB2309F45CC0E0910601F0910701319624
:107DA000F0930701E09306014F5F5F4F46175707B7
:107DB000E8F4AA2369F3F999FECF209106013091E6
:107DC000070132BD21BDF89A90B58091C00085FFB2
:107DD000FCCF9093C6002F5F3F4F30930701209355
:107DE00006014F5F5F4F4617570718F38091C00099
:107DF00085FDE5CE8091C00085FFF8CFE0CE81E023
:107E00000E94C73C67CE0E94763C803209F08CCE3F
:107E10008091C00085FFFCCFF092C6008091C00029
:107E200085FFFCCFE092C6008091C00085FFFCCFAB
:107E3000D092C6008091C00085FFFCCFC092C600E2
:107E40008091C00085FFFCCFB092C60043CEE09188
:107E50000601F091070194918091C00085FFFCCF4D
:107E60009093C6009CCF80E10E94C73C33CE0E9415
:107E7000763C0E94763C182F0E94763C112309F430
:107E800083C0113009F484C08FE00E94C73C22CE29
:107E900080910C02816080930C02E5CE80910C02EF
:107EA000816080930C0259CF809107018823880F4D
:107EB000880B8A2180930B02809106019091070123
:107EC000880F991F90930701809306018091080203
:107ED00080FF09C080910802909109020196909359
:107EE000090280930802F894F999FECF1127E091D6
:107EF0000601F0910701C8E0D1E08091080290915D
:107F00000902103091F40091570001700130D9F34B
:107F100003E000935700E89500915700017001308D
:107F2000D9F301E100935700E89509901990009169
:107F3000570001700130D9F301E000935700E89534
:107F40001395103498F011270091570001700130FB
:107F5000D9F305E000935700E895009157000170B0
:107F60000130D9F301E100935700E895329602976A
:107F700009F0C7CF103011F00296E5CF112480919F
:107F8000C00085FFB9CEBCCE8EE10E94C73CA2CD19
:0C7F900085E90E94C73C9ECDF894FFCF0D
:027F9C00800063
:040000030000780081
:00000001FF