:100000000C9431010C94381C0C945F1C0C9413104C
:100010000C9413100C9413100C9459010C94590166
:100020000C9459010C94040F0C9459010C9459012F
:100030000C9459010C9459010C9459010C945901D8
:100040000C94861C0C9459010C94851F0C94B71FBA
:100050000C9459010C9459010C9459010C945901B8
:100060000C94D81A0C945901DB01E001F1010E0245
:1000700010021202160225023C0259025E026B02B5
:100080007802850294029902AC021503B102B5020E
:10009000B802C002C302E802ED02F202F702FC025B
:1000A000010306030B03100315031A031F032403A4
:1000B00029032E0333033803B817C517C917CF1701
:1000C000D517EA17F317FA17FF17051805180518BB
:1000D0000518051805180518051805180518051838
:1000E0000518051805180518051805180518051828
:1000F0000518051805180518B817BE17C517C9172C
:10010000CF17D517DB17DF17E417084AD73B3BCECD
:10011000016E84BCBFFDC12F3D6C74319ABD568306
:100120003DDA3D00C77F11BED9E4BB4C3E916BAABE
:10013000AABE000000803F05A84CCDB2D44EB9380D
:1001400036A9020C50B9918688083CA6AAAA2ABEF4
:10015000000000803F07634236B79BD8A71A396872
:100160005618AEBAAB558C1D3CB7CC5763BD6DED80
:10017000FD753EF6177231BF000000803F08000099
:1001800000BE922449123EABAAAA2ABECDCCCC4CCA
:100190003E00000080BEABAAAAAA3E00000000BF3D
:1001A000000000803F0000000000084178D3BB43FE
:1001B00087D1133D190E3CC3BD4282AD2B3E68EC86
:1001C0008276BED98FE1A93E4C80EFFFBE01C4FF0D
:1001D0007F3F0000000000005741524E494E473A11
:1001E000204E6F2047505320646174612E202043BD
:1001F0006865636B20776972696E672E0000000086
:1002000008000201000003040700000000000000D5
:10021000000102040810204080010204081020019F
:10022000020408102004040404040404040202026A
:10023000020202030303030303000000002300265D
:1002400000290000000000250028002B000000000D
:1002500000240027002A00002905C10EEE19E71F1F
:10026000110611241FBECFEFD8E0DEBFCDBF11E0D5
:10027000A0E0B1E0E6EFFFE402C005900D92AA3DD8
:10028000B107D9F725E0AAEDB1E001C01D92A6356E
:10029000B207E1F712E0C0E6D2E004C02297FE0107
:1002A0000E945927C835D107C9F70E942B200C940A
:1002B000EE270C9400006EBD00000DB407FEFDCFCC
:1002C0008EB5089508950E94A4118CB5837F8CBDCE
:1002D0008CB58C7F81608CBD8DB58E7F8DBD089572
:1002E00080E00E94261C8091900390919103A09140
:1002F0009203B09193030196A11DB11D80939003C9
:1003000090939103A0939203B093930382E00E9491
:10031000171E892BD9F342E050E060E771E080E0DE
:100320000C94061C8091650290916302981751F01D
:1003300080936302882311F060E001C061E083E0F4
:100340000E94E11D8091640290916202981751F021
:1003500080936202882311F060E001C061E086E0D2
:100360000C94E11D089510926C0210926D0210928F
:100370006E0210926F0210926B0210926A0286E96E
:1003800093E00E94390E811106C086E993E00E9435
:10039000CE0D81118EC1E0916A02F0916B0230970F
:1003A00009F481C13197E832F10508F06AC1EC5CCB
:1003B000FF4F0C94572780918203909183035CC177
:1003C00080918C0390918D03A0918E03B0918F0347
:1003D00080936C0290936D02A0936E02B0936F02B3
:1003E00056C120E030E44CE156E460918403709102
:1003F000850380918603909187030E94EF240E94D9
:10040000A82360936C0270936D0280936E029093A8
:100410006F02109283031092820339C185E103C0F9
:100420008EE001C084E10E94621D26C162E272E09A
:1004300086E292E00E946509809122029091230257
:10044000A0912402B0912502C3CF6EE172E086E252
:1004500092E00E941C0B60911E0270911F0280911D
:100460002002909121020E94D6232DEC3CE445E02D
:1004700053E40E943B2365C06AE172E086E292E0A9
:100480000E94AE0B60911A0270911B0280911C02B7
:1004900090911D0224E630E040E050E00E943827B1
:1004A00020936C0230936D0240936E0250936F0262
:1004B000EEC08091820290918302DEC020E034E29F
:1004C00044E759E46091AE027091AF028091B002AE
:1004D0009091B10226C020E034E244E759E46091F3
:1004E000AA027091AB028091AC029091AD0219C04A
:1004F00020E034E244E759E460910C0170910D0171
:1005000080910E0190910F010CC020E034E244E78D
:1005100059E4609108017091090180910A0190915C
:100520000B010E94EF240DC080917A0290917B0212
:10053000A3C06091A6027091A7028091A802909139
:10054000A9020E94A82360936C0270936D028093AD
:100550006E0290936F029BC08091860290918702F9
:100560008BC081E08093650206C0109265022BC0AB
:1005700081E08093640282E090E0A0E0B0E028CFC8
:100580001092640220C08091AE029091AF02A091BF
:10059000B002B091B10280930C0190930D01A09331
:1005A0000E01B0930F018091AA029091AB02A0912D
:1005B000AC02B091AD028093080190930901A09321
:1005C0000A01B0930B0181E090E0A0E0B0E000CF21
:1005D0008091A0029091A1024FC080919E029091C3
:1005E0009F024AC080919C0290919D0245C08091DB
:1005F0009A0290919B0240C080919802909199023A
:100600003BC0809196029091970236C080919402EF
:100610009091950231C080919202909193022CC0EA
:10062000809190029091910227C080918E029091CA
:100630008F0222C080918C0290918D021DC080910A
:100640008A0290918B0218C0809188029091890251
:1006500013C080918402909185020EC080917E0229
:1006600090917F0209C0809180029091810204C024
:1006700080917C0290917D02AA2797FDA095BA2FC8
:10068000A7CE6FE171E089EB94E00E94BA206FE29F
:1006900071E086E993E00E94FE0D6CE672E086E967
:1006A00093E00E94710E64E170E080E090E00C94B1
:1006B000FF1C6AE672E086E993E00E94550E6CE248
:1006C00071E080E090E00E94FF1C65CE0F931F93C5
:1006D0000E94D01C009188031091890320918A0305
:1006E00030918B03601B710B820B930B613177424E
:1006F0008105910508F46AC020919003309191031F
:100700004091920350919303A6E0B0E00E945D27D0
:1007100060938C0370938D0380938E0390938F036B
:100720000E94D62320EC39E045E05CE30E94EF24F0
:10073000609384037093850380938603909387036B
:100740000E94D01C609388037093890380938A036E
:1007500090938B0365E371E089EB94E00E949B200A
:1007600040918C0350918D0360918E0370918F03A3
:100770002AE030E089EB94E00E9425216CE371E0EF
:1007800089EB94E00E949B2060E471E089EB94E0A7
:100790000E949B20409184035091850360918603C1
:1007A0007091870324E030E089EB94E00E945A22A4
:1007B000109290031092910310929203109293035F
:1007C00081E090E090938303809382031F910F91C7
:1007D0000895CF92DF92EF92FF920F931F93CF93E2
:1007E000DF93EC010E94D01C2A853B852130310526
:1007F00071F50C851D852E853F856B017C01C01A26
:10080000D10AE20AF30A0A811B812C813D81C016BC
:10081000D106E206F30608F443C01B861A866C87ED
:100820007D878E879F8760E088810E94E11D80918F
:10083000940390919503019690939503809394036C
:10084000049774F1109295031092940329C0232BFE
:1008500039F50C851D852E853F856B017C01C01AFD
:10086000D10AE20AF30A0E811F8128853985C01654
:10087000D106E206F306A0F021E030E03B872A87AC
:100880006C877D878E879F8761E08881DF91CF911C
:100890001F910F91FF90EF90DF90CF900C94E11D8E
:1008A000DF91CF911F910F91FF90EF90DF90CF904C
:1008B00008958091700290917102A0917202B0919E
:1008C00073024091660250916702609168027091D4
:1008D0006902841B950BA60BB70B40910201509146
:1008E000030160E070E0481759076A077B0760F46E
:1008F0000E94D01C60936602709367028093680226
:10090000909369020C94B30108958091940390919F
:100910009503892B21F48AE092E00E94E9038091FB
:10092000940390919503019721F48AEE91E00E943F
:10093000E9038091940390919503029721F48AEF43
:1009400091E00E94E90380919403909195030397AD
:1009500021F48AED91E00C94E90308950F93CF936D
:10096000DF9326E040E855E260E070E089EB94E038
:100970000E94231F61E083E00E94A81D61E086E0E1
:100980000E94A81D61E08AE00E94A81D61E083E04A
:100990000E94E11D61E086E00E94E11D60E08AE0C6
:1009A0000E94E11DC0E1D1E060E088810E94A81DA5
:1009B00061E088810E94E11D40E855E260E070E05E
:1009C00086EB92E00E94161188E08093970389E0FD
:1009D0008093980388E191E090939D0380939C031A
:1009E00086E993E00E94330D69E471E086E993E0C3
:1009F0000E94E90D84E080939A0386E993E00E94C7
:100A0000A80E80EF93E00E94601968EE73E080E02A
:100A100090E00E94FF1C20910001309101014427C9
:100A200037FD4095542F01E063E086E292E00E949A
:100A3000DC0C6FE471E089EB94E00E94BA2042E0A4
:100A400050E060E771E080E0DF91CF910F910C946E
:100A5000061C8F929F92AF92BF92CF92DF92EF923D
:100A6000FF92CF93DF9385ED92E00E94DA1120E0B0
:100A700044E065E086EB92E00E94E61086E292E0B8
:100A80000E947D08C0901201D0901301EE24D7FC83
:100A9000E094FE2C8090160190901701AA2497FCF8
:100AA000A094BA2C80E190E090930B0280930A020C
:100AB00061E00E94A81D80920C0290920D02A0920B
:100AC0000E02B0920F02C0921002D0921102E09278
:100AD0001202F09213021092150210921402109258
:100AE0001602109217021092180210921902C0906A
:100AF0001201D0901301EE24D7FCE094FE2C8090DC
:100B0000140190901501AA2497FCA094BA2C81E1BD
:100B100090E09093FB018093FA0161E00E94A81D90
:100B20008092FC019092FD01A092FE01B092FF0123
:100B3000C0920002D0920102E0920202F0920302FF
:100B400010920502109204021092060210920702FF
:100B50001092080210920902C0901201D090130165
:100B6000EE24D7FCE094FE2CC5E1D0E0D093EB015D
:100B7000C093EA0161E085E10E94A81DC092EC01EA
:100B8000D092ED01E092EE01F092EF01C092F001FF
:100B9000D092F101E092F201F092F3011092F5018E
:100BA0001092F4011092F6011092F7011092F801E0
:100BB0001092F901C0901201D0901301EE24D7FCDD
:100BC000E094FE2CD093DB01C093DA0161E085E173
:100BD0000E94A81DC092DC01D092DD01E092DE01EE
:100BE000F092DF01C092E001D092E101E092E201D7
:100BF000F092E3011092E5011092E4011092E601F7
:100C00001092E7011092E8011092E901DF91CF9173
:100C1000FF90EF90DF90CF90BF90AF909F908F901C
:100C2000089586EB92E00C948D104F925F926F9234
:100C30007F92AF92BF92CF92DF92EF92FF920F938B
:100C40001F93CF93DF9300D000D0CDB7DEB7809154
:100C5000700290917102A0917202B0917302409162
:100C60007402509175026091760270917702841B34
:100C7000950BA60BB70B40910401509105016091B3
:100C800006017091070184179507A607B70708F4B6
:100C90000DC20E94D01C6093740270937502809301
:100CA00076029093770286EB92E00E94BC0F1816B2
:100CB000190654F486EB92E00E942E0F682F85ED02
:100CC00092E00E944118EFCF8091D6028823C9F0AC
:100CD00085ED92E00E942F156093AE027093AF02F3
:100CE0008093B0029093B10285ED92E00E945B1573
:100CF0006093AA027093AB028093AC029093AD0212
:100D0000D5C18091F802882329F11092F8028091D0
:100D1000F9029091FA029093A1028093A00287EFCA
:100D200092E00E94CF1590939F0280939E0287EFDE
:100D300092E00E94DF1590E090939D0280939C02C8
:100D400087EF92E00E94FE1590E090939B028093C3
:100D50009A02ACC180910603882331F110920603F8
:100D600080910703909108039093990280939802D1
:100D700085E093E00E940C1690E090939702809398
:100D8000960285E093E00E941A1690E090939502F7
:100D90008093940285E093E00E94301690E0909357
:100DA00093028093920282C180911403882309F4F4
:100DB0004DC0109214036091190370911A03809131
:100DC0001B0390911C0370939102609390020E9408
:100DD000D6236B017C012EEB3CE443E95FE30E94E8
:100DE000EF2420E030E048EC52E40E943B230E94D4
:100DF000A32370938F0260938E0221EA32EB43E0CB
:100E00005FE3C701B6010E94EF2420E030E048EC28
:100E100052E40E943B230E94A32370938D026093AF
:100E20008C0226E53EE04DEE5FE3C701B6010E946D
:100E3000EF2420E030E048EC52E40E943B230E9483
:100E4000A32370938B0260938A0230C180912203A6
:100E50008823E9F010922203609127037091280300
:100E60008091290390912A037093890260938802EC
:100E70000E94D62320E030E048EC52E40E943B235D
:100E80000E94A32370938702609386020FC1809112
:100E90003003882309F45BC010923003609135035E
:100EA00070913603809137039091380370938502D7
:100EB000609384020E94D6236B017C0120E030E025
:100EC00048EC52E40E943B230E94A32370938302C8
:100ED0006093820223E833EE42E25AE3C701B6018F
:100EE0000E94EF2420E030E048EC52E40E943B23D3
:100EF0000E94A32370938102609380022FE632E167
:100F000043E85AE3C701B6010E94EF2420E030E035
:100F100048EC52E40E943B230E94A32370937F027B
:100F200060937E0228E439EF41E550E4C701B60141
:100F30000E94EF2420E030E048EC52E40E943B2382
:100F40000E94A32370937D0260937C02AFC08091C6
:100F50003E03882359F010923E0380914303909101
:100F6000440390937B0280937A02A0C080914C034B
:100F7000882359F010924C038091510390915203B1
:100F8000909379028093780291C00E94D01CC09007
:100F9000B202D090B302E090B402F090B5026C19A6
:100FA0007D098E099F09693873418105910508F40F
:100FB0007DC08091D502882309F45CC0A09008010F
:100FC000B0900901C0900A01D0900B0140900C0133
:100FD00050900D0160900E0170900F0185ED92E030
:100FE0000E945B159B01AC0185ED92E029833A8359
:100FF0004B835C830E942F158301720129813A8102
:101000004B815C810E9461136093A6027093A702DA
:101010008093A8029093A902A0900801B0900901C2
:10102000C0900A01D0900B0140900C0150900D012E
:1010300060900E0170900F0185ED92E00E945B15AB
:101040009B01AC0185ED92E029833A834B835C835D
:101050000E942F158301720129813A814B815C81A5
:101060000E9448146093A2027093A3028093A4028A
:101070009093A5028091720390917303A0917403E1
:10108000B09175030A97A105B10530F468ED71E0E0
:1010900089EB94E00E94A8200E94D01C6093B202C9
:1010A0007093B3028093B4029093B5020F900F90A7
:1010B0000F900F90DF91CF911F910F91FF90EF90C4
:1010C000DF90CF90BF90AF907F906F905F904F90E8
:1010D00008950E94D01C60937002709371028093F7
:1010E0007202909373020E9466030E9415060E948A
:1010F00059040E9492010C948504FC0187E7868FB5
:1011000085E090E095A384A388E090E097A386A370
:101110008EE090E091A780A78AE190E093A782A754
:1011200014A615A616A617A610AA11AA12AA13AAE3
:10113000128E138E148E158E08951F93CF93DF9306
:101140001F92CDB7DEB7162FFC01668D80EF93E0BE
:1011500049830E946A19612F80EF93E00E94211950
:101160004981642F80EF93E00E94211980EF93E082
:101170000F90DF91CF911F910C94EB19CF92DF92DA
:10118000FF920F931F93CF93DF931F92CDB7DEB7DC
:101190006C01F62E8901FC01668D80EF93E0498396
:1011A0000E946A196F2D80EF93E00E94211980EF51
:1011B00093E00E94EB19F601668D80EF93E00E94A8
:1011C0006A194981F601668D80EF93E00E94E81963
:1011D000F12C80EF93E00E94C918892B59F0680127
:1011E000CF0CD11C80EF93E00E94D118F6018083D0
:1011F000F394EFCF80EF93E00F90DF91CF911F91A9
:101200000F91FF90DF90CF900C94EB19CF92DF926B
:10121000EF92FF92CF93DF93EC014EE264EF0E94D6
:101220009D0865E070E080E090E00E94FF1C9E0158
:10123000215E3F4F42E066EFCE010E94BE082F8D37
:10124000822F90E0A0E0B0E02227382F492F5A2FBC
:1012500088A1282B8C899D89281B390B41095109AC
:10126000AA89BB890E945D276B017C013FE0F59450
:10127000E794D794C7943A95D1F76C857D858827F4
:1012800077FD8095982F4BE0660F771F881F991F79
:101290004A95D1F72E853F85442737FD4095542F39
:1012A0002C0D3D1D4E1D5F1D0E9438272C0D3D1D30
:1012B0004E1D5F1D2E8B3F8B488F598FDF91CF9135
:1012C000FF90EF90DF90CF9008950F931F93CF93EF
:1012D000DF93EC018B010E9406098E899F89A88DFE
:1012E000B98D0896A11DB11D54E0B595A7959795A8
:1012F00087955A95D1F7F80180839183A283B383B0
:10130000DF91CF911F910F9108952F923F924F92AD
:101310005F926F927F928F929F92AF92BF92CF9285
:10132000DF92EF92FF920F931F93CF93DF93CDB78E
:10133000DEB72C970FB6F894DEBF0FBECDBF9C87EB
:101340008B878B010E940609AB85BC8592964C91D8
:1013500092974295440F440F407C4C5C64EFCD0162
:101360000E949D08AB85BC859296ED91FC91939768
:101370007296EE0FFF1FEA0FFB1F608171818827B5
:1013800077FD8095982F0E94FF1C2B853C85215E60
:101390003F4F43E066EF8B859C850E94BE08EB853E
:1013A000FC8502A0F3A1E02DFA87E987AB85BC8517
:1013B00056968D919D910D90BC91A02D805A9F4085
:1013C000A109B10989839A83AB83BC839C01AD01D8
:1013D000BC01CD010E94F2262B013C016CE075940A
:1013E0006794579447946A95D1F7EB85FC852080E4
:1013F0003180A481B5810E9468276B017C017DE06A
:10140000F594E794D794C7947A95D1F7A681B781DC
:10141000A30192010E946827BB2797FDB095AB2FCF
:10142000C80ED91EEA1EFB1EF2E0CF0ED11CE11C35
:10143000F11CF2E0F594E794D794C794FA95D1F7AC
:1014400020E8D20EE11CF11CEB85FC85A089B18956
:10145000A70196010E945D27DC01CB012FE0B69524
:10146000A795979587952A95D1F78D839E83AF830E
:10147000B887878DC0A0D12CE12CF12CFE2CED2C4F
:10148000DC2CCC24E82A81A1C82A88E090E0E985F8
:10149000FA858E1B9F0B04C0F594E794D794C794EC
:1014A0008A95D2F74101AA2497FCA094BA2C42E075
:1014B000880C991CAA1CBB1C4A95D1F7EB85FC85AE
:1014C000A085B185A30192010E9468272B013C01F0
:1014D0005BE075946794579447945A95D1F7A2812D
:1014E000B38129813A814B815C810E946827EBE0BE
:1014F0009595879577956795EA95D1F7460E571E8E
:10150000681E791E840C951CA61CB71C098404C097
:10151000880C991CAA1CBB1C0A94D2F7F2E08F0E0F
:10152000911CA11CB11CF2E0B594A79497948794E8
:10153000FA95D1F7C818D908EA08FB0860E573ECFA
:1015400080E090E0098404C095958795779567952C
:101550000A94D2F7A70196010E94F22697FD0DC0CA
:10156000660F771F881F991F2D813E814F815885F7
:101570000E94162749015A010CC02D813E814F81DE
:1015800058850E94162749015A01880C991CAA1CEB
:10159000BB1C9927B7FC9A958B2D7A2D692D9B0141
:1015A000AC010E94F2269B01AC01AEEDBBE00E94B3
:1015B0005D276C01FF24D7FCF094EF2CA3E4B3EE7D
:1015C000A50194010E946B27BB2797FDB095AB2F17
:1015D000C80ED91EEA1EFB1E2FECC20E2EE0D21E34
:1015E000E11CF11CA4E0F594E794D794C794AA9564
:1015F000D1F7C80CD91CEA1CFB1CD801CD92DD9296
:10160000ED92FC9213972C960FB6F894DEBF0FBEA6
:10161000CDBFDF91CF911F910F91FF90EF90DF90A1
:10162000CF90BF90AF909F908F907F906F905F9082
:101630004F903F902F900895AF92BF92CF92DF923C
:10164000EF92FF920F931F93CF93DF93CDB7DEB747
:1016500028970FB6F894DEBF0FBECDBF8C015B019B
:10166000BE016F5F7F4F0E948509F80160AD71ADCB
:1016700082AD93AD0E94D62320ED38E447E85AE4CA
:101680000E943B239B01AC0160E070E080E89FE397
:101690000E946D2226EF38E248EA50E40E9452256B
:1016A0009B01AC0169817A818B819C812D833E8372
:1016B0004F8358870E94D6232D813E814F815885C4
:1016C0000E943B236B017C01F80160A971A982A9EA
:1016D00093A90E94D6239B01AC01C701B6010E94C9
:1016E0006E220E94A323F50160837183828393831A
:1016F00028960FB6F894DEBF0FBECDBFDF91CF9115
:101700001F910F91FF90EF90DF90CF90BF90AF901F
:1017100008950F931F93CF93DF9300D000D0CDB7E0
:10172000DEB78C01FC0140AF51AF62AF73AFBE01B9
:101730006F5F7F4F0E941C0B49815A816B817C81B6
:10174000F80144AB55AB66AB77AB0F900F900F90A1
:101750000F90DF91CF911F910F910895AF92BF929B
:10176000CF92DF92EF92FF920F931F93CF93DF936D
:1017700000D000D0CDB7DEB78C015B01BE016F5F3A
:101780007F4F0E94850969817A818B819C810E94AB
:10179000D6236B017C01F80164A975A986A997A9D4
:1017A0000E94D6239B01AC01C701B6010E943B23D6
:1017B00021E03EED42E45EE30E9452259B01AC0134
:1017C00060E070E080E89FE30E946D2220ED38E445
:1017D00047E85AE40E94EF246B017C01F80164A5FC
:1017E00075A586A597A50E94D6239B01AC01C701CC
:1017F000B6010E946E220E94A323F50160837183CB
:10180000828393830F900F900F900F90DF91CF9171
:101810001F910F91FF90EF90DF90CF90BF90AF900E
:1018200008950F931F93CF93DF9300D000D0CDB7CF
:10183000DEB78C01FC0144AB55AB66AB77ABBE01A8
:101840006F5F7F4F0E94AE0B49815A816B817C8113
:10185000F80140AF51AF62AF73AF0F900F900F9090
:101860000F90DF91CF911F910F9108950F931F93C8
:10187000CF93DF93EC018C01015E1F4F980142E092
:101880006AEA0E94BE088F8D90E0982F882728A1D1
:10189000822B99838883980142E06CEACE010E94F2
:1018A000BE088F8D90E0982F882728A1822B9B83DC
:1018B0008A83980142E06EEACE010E94BE088F8DB5
:1018C00090E0982F882728A1822B9D838C839801F4
:1018D00042E060EBCE010E94BE088F8D90E0982F11
:1018E000882728A1822B998B888B980142E062EB94
:1018F000CE010E94BE088F8D90E0982F882728A1E6
:10190000822B9B8B8A8B980142E064EBCE010E9474
:10191000BE088F8D90E0982F882728A1822B9D8B61
:101920008C8B980142E066EBCE010E94BE088F8D41
:1019300090E0982F882728A1822B9F838E8398017F
:1019400042E068EBCE010E94BE088F8D90E0982F98
:10195000882728A1822B99878887980142E06AEB23
:10196000CE010E94BE088F8D90E0982F882728A175
:10197000822B9B878A87980142E06CEBCE010E9404
:10198000BE088F8D90E0982F882728A1822B9D87F5
:101990008C87980142E06EEBCE010E94BE088F8DCD
:1019A00090E0982F882728A1822B9F878E87DF9130
:1019B000CF911F910F910895EF92FF920F931F9374
:1019C000CF93DF9300D000D0CDB7DEB77C01162FC8
:1019D000BA01A90149835A836B837C830E94360C28
:1019E000C7010E940609812F90E0F70193A382A30B
:1019F00049815A816B817C81C701002361F00F907E
:101A00000F900F900F90DF91CF911F910F91FF904A
:101A1000EF900C94890B0F900F900F900F90DF9127
:101A2000CF911F910F91FF90EF900C94110CFC013E
:101A300088E0818397E0928391E0938390E194839F
:101A4000178216828583089561E0FC0181810C94E0
:101A5000E11D60E0FC0181810C94E11D61E0FC016D
:101A600082810C94E11DCF93DF93EC0161E08981C9
:101A70000E94A81D61E08A810E94A81DCE010E94DB
:101A8000290DCE010E942E0D8E819F81DC01ED91EA
:101A9000FC910280F381E02DDF91CF91099460E009
:101AA000FC0182810C94E11D8F929F92BF92CF9294
:101AB000DF92EF92FF920F931F93CF93DF931F92CA
:101AC000CDB7DEB77C016A01122F69830E944F0DEA
:101AD000D70116968D919C911797DC01ED91FC91A1
:101AE0000190F081E02D69810995C114D10479F448
:101AF000C7010F90DF91CF911F910F91FF90EF9051
:101B0000DF90CF90BF909F908F900C942E0DBC2CA7
:101B10004601882D8B19801758F7F7018681978128
:101B2000DC01ED91FC910190F081E02DD4016C91EC
:101B30000995112311F0F4018083FFEF8F1A9F0A9A
:101B4000E8CF0F936F71022F21E00E94540D0F9187
:101B50000895CF93DF931F92CDB7DEB721E0AE019A
:101B60004F5F5F4F67E10E94A10D898181700F90E7
:101B7000DF91CF910895CF93DF931F92CDB7DEB75A
:101B80002FEF298321E0AE014F5F5F4F67E00E9496
:101B9000A10D89810F90DF91CF910895CF93DF93AD
:101BA000EC010E94BB0D86FD06C0CE010E94A90D6E
:101BB00091E0982701C091E0892FDF91CF9108959E
:101BC0000F936F716062022F20E00E94540D0F91FD
:101BD00008950F931F93CF93DF93EC018B010E9425
:101BE000290D25E0A8016BE0CE010E94E00DCE0199
:101BF000DF91CF911F910F910C94240D0F931F93A0
:101C0000CF93DF93EC018B0125E0AB016AE00E94EA
:101C1000E00D25E0A80160E1CE01DF91CF911F9199
:101C20000F910C94E00DCF93DF931F92CDB7DEB7E9
:101C3000498321E0AE014F5F5F4F0E94E00D0F909E
:101C4000DF91CF910895CF93DF93EC0118820E942A
:101C5000290D4D81436060E0CE010E94130E40E7E4
:101C600067E0CE010E94130ECE01DF91CF910C945C
:101C7000240DCF93DF93EC018881882341F0CE01BE
:101C80000E94BB0D807329F0CE010E94230E80E0DC
:101C900001C081E0DF91CF91089521E0FC01208314
:101CA0004581426060E00C94130E0F93CF93DF9355
:101CB000EC01AB010C8121E061E60E94540D40E48F
:101CC00067E0CE01DF91CF910F910C94130E0F932B
:101CD00000E020E040E050E061EE0E94540D0F91E2
:101CE0000895EF92FF920F93CF93DF93EC017B0166
:101CF0000E94BB0D8881882331F0CE010E94BB0D6C
:101D00008073C1F31882CE010E94290DCE010E947A
:101D10004D0ECE010E94670E0C8120E0A70160EA03
:101D2000CE010E94540DCE010E94240DCE01DF9100
:101D3000CF910F91FF90EF900C94290D0F9300E03D
:101D400020E040E050E062EE0E94540D0F910895B3
:101D5000CF93DF93EC014B8165E00E94130E4C8121
:101D600061E1CE010E94130E4C8162E1CE010E941E
:101D7000130ECE010E94230ECE01DF91CF910C9461
:101D80009E0E86E993E00C94170D8091A10390912B
:101D9000A203A091A303B091A4030196A11DB11DBC
:101DA0008093A1039093A203A093A303B093A403F1
:101DB0004091A1035091A2036091A3037091A403E9
:101DC0008091A7039091A803A091A903B091AA03C1
:101DD000481759076A077B07B0F08091A00381116B
:101DE00012C081E08093A0031092A1031092A2037D
:101DF0001092A3031092A403E091A503F091A6030F
:101E000009951092A00308951F920F920FB60F929A
:101E100011242F933F934F935F936F937F938F93EF
:101E20009F93AF93BF93EF93FF9380919E03909105
:101E30009F038093B2000E94C50EFF91EF91BF9166
:101E4000AF919F918F917F916F915F914F913F9152
:101E50002F910F900FBE0F901F9018952091ED03BA
:101E60003091EE0328173907B9F49091AB038091B4
:101E7000AC03981789F0E091AB03F0E0E355FC4F19
:101E800080812091AB0330E02F5F3F4F2F733327CA
:101E90002093AB0390E008958FEF9FEF08951F9379
:101EA000CF93DF93DC015C968D919C915D970097B9
:101EB00049F481E090E013969C938E93129780E012
:101EC00090E03BC05196ED91FC91529750962C9129
:101ED0005097322F30951FB75E964C915E9741FB1D
:101EE000772770F941FD6095F8944081772311F0D0
:101EF000422B01C043234083EC012197F1F748E0D6
:101F0000508160FF02C0522B01C053235083EC016B
:101F10002197F1F76695415099F78081772311F069
:101F2000832301C0822B80831FBF5C968D919C917F
:101F30005D970197F1F781E090E0DF91CF911F91DC
:101F4000089508952091ED033091EE032817390785
:101F500081F49091AB038091AC03981751F0E0911C
:101F6000AB03F0E0E355FC4F8081992787FD909506
:101F700008958FEF9FEF08952091ED033091EE03C8
:101F80002817390771F48091AC032091AB0390E0DE
:101F9000805C9F4F821B910960E470E00E940227E1
:101FA000089580E090E00895E091ED03F091EE0354
:101FB000E817F90769F4A389B4899C91858980950C
:101FC00089238C931092EE031092ED0381E0089523
:101FD00080E00895CF93DF93EC018A8D9B8D892B50
:101FE000F1F08091ED039091EE038C179D07B9F00D
:101FF000009711F00E94D40F8E8D8E7F8E8F1092DD
:10200000AC031092AB03D093EE03C093ED03EB89C6
:10201000FC8980819D89892B808381E001C080E0DB
:10202000DF91CF9108951F920F920FB60F92112456
:102030002F933F934F935F936F937F938F939F93D0
:10204000AF93BF93EF93FF93E091ED03F091EE0315
:10205000309709F451C0868DA685B785958581FF97
:1020600004C08C91892329F447C08C91892309F0FD
:1020700043C0A389B4899C918589809589238C93D9
:10208000868997890197F1F7208D318DA685B785CF
:10209000758558E040E0C9010197F1F7842F90E081
:1020A00095958795482F6C91672309F040685150AA
:1020B00091F7868D81FD40958091AC0390E001966B
:1020C0008F7399272091AB03281749F0A091AC0397
:1020D000B0E0A355BC4F4C938093AC0303C0868DF6
:1020E0008160868F828D938D0197F1F7A389B489E2
:1020F0008C919589892B8C93FF91EF91BF91AF9132
:102100009F918F917F916F915F914F913F912F910F
:102110000F900FBE0F901F9018952CE631E0FC0138
:10212000318320830C94D40F1F93CF93DF93EC0162
:10213000162F6E8D6695617081E06827812F0E9451
:10214000E11D61E0812F0E94A81D812F90E0FC011C
:10215000EF5EFD4FE491E88BFC01EB5DFD4FE491F8
:10216000F0E0EE0FFF1FED5BFD4F859194919A8B90
:10217000898BDF91CF911F9108951F93CF93DF93A8
:10218000EC01162F60E0812F0E94A81D8E8D81FD2D
:1021900004C061E0812F0E94E11D1C87812F90E027
:1021A000FC01EF5EFD4FE491ED87FC01EB5DFD4F1F
:1021B000E491F0E0EE0FFF1FE75CFD4F85919491F5
:1021C0009F878E87DF91CF911F910895FF920F9384
:1021D0001F93CF93DF93EC01F62E522F1B821A82AE
:1021E00008EE13E020E030E00C831D832E833F8354
:1021F0008CE691E0998388831F8A1E8A198E188E37
:102200001B8E1A8E1D8E1C8E8E8D8E7F50FB81F93B
:102210008E8F642FCE010E9494106F2DCE01DF911E
:10222000CF911F910F91FF900C94BD10CF93DF932E
:10223000EC019A01AB011B8E1A8E198E188E1F8A23
:102240001E8A60E079E08DE390E00E943827C901A2
:102250002430310520F0B9016350710902C061E0FA
:1022600070E07D8F6C8FEC85E63108F068C0B901B5
:10227000769567956431710518F06351710902C054
:1022800061E070E07F8B6E8B069718F0C9010597AF
:1022900002C081E090E0998F888FC901880F991F53
:1022A000820F931F96958795969587958D3091050A
:1022B00010F00C9702C081E090E09B8F8A8F2091F4
:1022C0006800E83050F091E0EE3008F490E081E0F2
:1022D00001C0880F9A95EAF701C084E0822B8093B1
:1022E00068002C85283038F02E3040F0263148F434
:1022F0008CE690E008C08DE690E005C08BE690E0AB
:1023000002C080E090E09C8B8B8B283030F481E021
:1023100001C0880F2A95EAF70DC0822F90E02E3079
:1023200010F4089701C00E9791E001C0990F8A95AB
:10233000EAF7892F8D8B8C8D9D8D0197F1F7CE015A
:10234000DF91CF910C94EA0FCF93CFB7F89480919F
:10235000EF03811127C0EFE2F2E08491EBE1F2E0BC
:102360009491E82FF0E0EE0FFF1FE35BFD4FA59186
:10237000B4918C91892321F461E08AE00E94E11DEF
:1023800061E08AE00E94A81D8CB580618CBD8CB58F
:1023900080648CBD61E08DE00E94A81D61E08BE04F
:1023A0000E94A81D8091EF038F5F8093EF03CFBF42
:1023B000CF910895FC01108211821382128214823F
:1023C000158216821782108612861186138614864D
:1023D000158616861786118A108A128A138A148A1D
:1023E000158A168A108E178A118E128E138E148EED
:1023F000158E12A213A214A215A216A217A210AA39
:1024000011AA12AA13AA14AA15AA16AE17AEDC01B5
:10241000AC5BBF4F1D921D921D921C921397189694
:102420001C9211961C92119716961D921D921D9248
:102430001C9219971E961C9211961C921197169633
:102440001D921D921D921C9219971E961C92119618
:102450001C92119716961D921D921D921C9219970F
:102460001E961C9211961C92119716961D921D9203
:102470001D921C9219971E961C9211961C925096B2
:1024800082E08C9311961C9211961C9211961C92CC
:10249000119611961C921E92129611961C921E92E3
:1024A00012961D921D921D921C92139714961D92C6
:1024B0001D921D921C92139714961D921D921D92AF
:1024C0001C92139714961D921D921D921C921397A5
:1024D000EA57FF4F108208952FEB260F862F99277A
:1024E00087FD9095263010F4C797089561566630A1
:1024F00018F4875591090895C0970895FF920F9396
:102500001F93CF93DF93EC01FF24F39488818D32E6
:1025100011F0F12C01C02196CE010E9493279B015E
:10252000AC01A4E6B0E00E945D27FE014991242F92
:10253000332727FD3095205331092A303105A8F380
:102540004E3241F52181332727FD30952053310943
:102550002A303105F8F44AE0429F8001439F100D74
:102560001124222717FD2095322F600F711F821F23
:10257000931F0281112707FD1095005311090A309E
:10258000110540F4222717FD2095322F600F711F8F
:10259000821F931FFF2039F090958095709561956B
:1025A0007F4F8F4F9F4FDF91CF911F910F91FF90E2
:1025B00008952F923F924F925F926F927F928F92E7
:1025C0009F92AF92BF92CF92DF92EF92FF920F93C2
:1025D0001F93CF93DF93D82FC92F8B010E9493278E
:1025E00024E630E040E050E00E94162749015A01FD
:1025F0009B01AC0160E876E988E990E00E94F22650
:102600006B017C01F80191828082ED2FFC2F2191DA
:10261000822F992787FD9095C0970A97C0F32E3295
:1026200039F51F0180E8882E86E9982E88E9A82EC2
:10263000B12C9AE0492E512C612C712CF101C191E1
:102640001F01DD27C7FDD095E097CA30D10580F482
:10265000C501B401A30192010E94162749015A0144
:10266000DE010E946827C60ED71EE81EF91EE6CFBF
:10267000A5E0B0E0A70196010E945D276F5F7F4F44
:102680008F4F9F4F23E030E040E050E00E9416273C
:10269000F80122833383448355831682DF91CF91DF
:1026A0001F910F91FF90EF90DF90CF90BF90AF9070
:1026B0009F908F907F906F905F904F903F902F9062
:1026C00008954F925F926F927F928F929F92AF92F6
:1026D000BF92CF92DF92EF92FF920F931F93CF930F
:1026E000DF93CDB7DEB760970FB6F894DEBF0FBEAD
:1026F000CDBF69837A838B839C83CA01B90127018B
:102700003801A60195010E946D2225E33AEF4EE8BB
:102710005CE30E94EF246B017C010E949E256D8783
:102720007E878F87988BC701B6010E9438236D83FF
:102730007E838F83988725E33AEF4EE85CE36981D7
:102740007A818B819C810E94EF246B017C0125E3BF
:102750003AEF4EE85CE3C301B2010E94EF242B0183
:102760003C01C701B6010E949E254B015C01C701D7
:10277000B6010E94382369837A838B839C83C301CB
:10278000B2010E949E2569877A878B879C87C30147
:10279000B2010E9438236B017C0129853A854B8563
:1027A0005C8569817A818B819C810E94EF242B0159
:1027B0003C01A7019601C501B4010E94EF242D81BF
:1027C0003E814F8158850E94EF249B01AC01C301DB
:1027D000B2010E946D229B01AC010E94EF242B01EB
:1027E0003C012D853E854F855889C701B6010E9461
:1027F000EF249B01AC010E94EF249B01AC01C301BB
:10280000B2010E946E220E94A8252B013C0129855D
:102810003A854B855C85C501B4010E94EF244B01CC
:102820005C01A701960169817A818B819C810E945C
:10283000EF242D813E814F8158850E94EF249B011A
:10284000AC01C501B4010E946E229B01AC01C30121
:10285000B2010E94E12226E73BE742EC5AE40E94E3
:10286000EF2460960FB6F894DEBF0FBECDBFDF91A8
:10287000CF911F910F91FF90EF90DF90CF90BF907D
:10288000AF909F908F907F906F905F904F90089542
:102890004F925F926F927F928F929F92AF92BF9270
:1028A000CF92DF92EF92FF920F931F93CF93DF931C
:1028B000CDB7DEB72C970FB6F894DEBF0FBECDBFF5
:1028C00069837A838B839C83ED82FE820F831887D2
:1028D000C601B5010E946D2225E33AEF4EE85CE3A4
:1028E0000E94EF242B013C0125E33AEF4EE85CE324
:1028F00069817A818B819C810E94EF244B015C016C
:1029000025E33AEF4EE85CE3C801B7010E94EF24EB
:102910006B017C01C301B2010E949E256D837E8301
:102920008F839887C701B6010E94382369837A8311
:102930008B839C83C501B4010E949E2569877A8799
:102940008B879C87C301B2010E9438232B013C0175
:1029500029813A814B815C8169857A858B859C854B
:102960000E94EF24A30192010E94EF242B013C015D
:10297000C501B4010E9438234B015C01C701B601B7
:102980000E949E259B01AC01C501B4010E94EF2469
:10299000A30192010E946D226B017C0129813A8181
:1029A0004B815C816D817E818F8198850E94EF24AF
:1029B000A70196010E94E1226B017C0120E030E03A
:1029C000A9010E94342387FF0AC02BED3FE049ECA8
:1029D00050E4C701B6010E946E226B017C0121EE1A
:1029E0003EE245E652E4C701B6010E94EF242C9670
:1029F0000FB6F894DEBF0FBECDBFDF91CF911F9110
:102A00000F91FF90EF90DF90CF90BF90AF909F908D
:102A10008F907F906F905F904F900895CF93DF934A
:102A2000EC0187E0FE017096DE01129601900D9296
:102A30008A95E1F787E0FE017796DE01199601900D
:102A40000D928A95E1F70E94D01C6E8F7F8F88A32C
:102A500099A381E089838883DF91CF910895CF92F4
:102A6000DF92EF92FF92CF93DF93EC0119826A819C
:102A70007B8180E090E00E94D4236B017C016C811B
:102A80007D818E819F810E94D42328E23BE64EE621
:102A90005EE40E943B239B01AC01C701B6010E948A
:102AA0006E22288521119058DF91CF91FF90EF90F1
:102AB000DF90CF900895CF92DF92EF92FF92CF9365
:102AC000DF93EC01198269857A8580E090E00E94AD
:102AD000D4236B017C016B857C858D859E850E944E
:102AE000D42328E23BE64EE65EE40E943B239B01B2
:102AF000AC01C701B6010E946E222F8521119058AA
:102B0000DF91CF91FF90EF90DF90CF900895CF931A
:102B1000DF93EC014E815F81688579854A835B8311
:102B20006C837D830E94D01C6A877B878C879D87FE
:102B300081E089838883DF91CF910895CF93DF93DC
:102B4000EC014E815F81688579854A835B836C8364
:102B50007D830E94D01C6A877B878C879D8781E05C
:102B600089838883DF91CF910895CF93DF93EC0120
:102B7000CB010E947E126E837F8388879987DF91C5
:102B8000CF910895CF93DF93EC01CB010E9493275F
:102B90006E837F8388879987DF91CF910895FC01A9
:102BA0001182628173818481958124E630E040E066
:102BB00050E00E941627CB018053984F0895CF9282
:102BC000DF92EF92FF92FC01118262817381848116
:102BD000958134E6C32ED12CE12CF12CA70196016E
:102BE0000E941627CA01B901A70196010E94162763
:102BF000862FFF90EF90DF90CF900895FC01118217
:102C0000628173818481958120E137E240E050E068
:102C10000E941627822F0895FC0111826281738120
:102C20008481958120E432E44FE050E00E94162731
:102C3000822F0895FC0111826281738184819581C4
:102C400020E137E240E050E00E941627CA01B901B6
:102C500024E630E040E050E00E941627862F0895D9
:102C6000CF92DF92EF92FF92FC0111826281738119
:102C70008481958144E6C42ED12CE12CF12CA7014E
:102C800096010E941627CA01B901A70196010E9468
:102C90001627862FFF90EF90DF90CF900895CF9367
:102CA000DF93EC014A855B856C857D854E835F8370
:102CB000688779870E94D01C6A837B838C839D837D
:102CC00081E089838883DF91CF910895CF93DF934B
:102CD000EC01CB010E947E126A877B878C879D87DF
:102CE000DF91CF910895CF93DF93EC014A855B8507
:102CF0006C857D854E835F83688779870E94D01CB1
:102D00006A837B838C839D8381E089838883DF91C1
:102D1000CF910895CF93DF93EC01CB010E949327CD
:102D20006A877B878C879D87DF91CF910895CF93AA
:102D3000DF93EC01BC0140960E94C3270E94D01C87
:102D400068A379A38AA39BA381E08DA38CA3DF91C1
:102D5000CF91089540E150E00C94CA27AF92BF9202
:102D6000CF92DF92FF920F931F93CF93DF93EC01EB
:102D7000FC01EB57FF4FF080FF2009F49CC0319617
:102D800060810E946C12182FFE01E957FF4F60818D
:102D9000CE010E946C1240E1149F800D1124FE01AF
:102DA000EC57FF4F9081891376C0B59640815181D1
:102DB000628173814F5F5F4F6F4F7F4F40835183BD
:102DC000628373838E0108561F4FD8018C9188232C
:102DD00069F0389740815181628173814F5F5F4F05
:102DE0006F4F7F4F4083518362837383FE01EB56A5
:102DF000FF4F80818823C9F0813089F5CE0182960A
:102E00000E948715CE01C0960E949E15F801808110
:102E1000882329F1CE010E940E15CE01CE960E9484
:102E20004F16CE01845B9F4F18C0CE01C0960E9402
:102E30009E15D8018C91882341F0CE010E940E1579
:102E4000CE01865A9F4F0E944F16CE0188599F4F40
:102E50000E947316CE018A589F4F0E944F168E0112
:102E600005561F4FF801C081D181209709F4FEC09B
:102E7000D801ED91FC9166A177A18EA19FA10E943E
:102E8000BA27892B09F0F2C0CE010E9497160AA436
:102E9000DBA5C02DEACFCB55DF4F488159816A8130
:102EA0007B814F5F5F4F6F4F7F4F488359836A83AA
:102EB0007B83F12CDBC06C01B6E9CB0ED11CF60193
:102EC00030818B569F4F5C018E0105561F4F31118B
:102ED00034C06E0196E8C90ED11C68E771E0C601E6
:102EE0000E94BA27892B11F481E00BC06EE771E0D4
:102EF000C6010E94BA27892B19F4F501108203C07C
:102F000082E0D5018C93C756DF4F88819981F80103
:102F100091838083F801C081D181209709F4A6C0F4
:102F2000B6018EA19FA10E94BA2797FF9AC08AA5D9
:102F30009BA5D8018D939C93EDCFDC01EC91E23001
:102F400009F463C0CE018A579F4FDC012C912223E4
:102F500009F45BC0B0E2EB9FF0011124E32B319741
:102F6000E932F10508F051C0E45AFF4F0C9457279D
:102F7000BC01CE01C0960E94B51547C0FE01E856BF
:102F8000FF4F81E0213461F52CC0BE01605F7F4FAF
:102F900009C081E0233509F080E08E8B36C0BE0188
:102FA000695E7F4F0E94D91230C081E0273509F059
:102FB00080E08D8F2AC0BC01CE01CE9624C0BC011A
:102FC000CE01845B9F4F1FC0BC01CE0182960E9440
:102FD000C2151BC0FE01E856FF4F81E021330CF4FF
:102FE00080E0808312C0BC01CE0188599F4F0E94AF
:102FF0008A160BC0BC01CE018A589F4F04C0BC0189
:10300000CE01865A9F4F0E946616F801A080B180BB
:10301000CA57DF4FA114B10449F1D801ED91FC91D9
:1030200066A177A1F50186A197A10E94BA27892BF5
:10303000E9F4D50198962D913C919997F6018081FC
:1030400090E08217930794F02817390721F4BE0106
:10305000C5010E94AA16D5019A96AD90BC909B9787
:10306000D9CF892B19F0D8011D921C928F2DDF9199
:10307000CF911F910F91FF90DF90CF90BF90AF90B5
:103080000895CF92DF92EF92FF920F931F93CF9309
:10309000DF931F92CDB7DEB76C01262FFC01E356FC
:1030A000FF4F40815181628173814F5F5F4F6F4F4E
:1030B0007F4F40835183628373838C0109561F4F76
:1030C0008B579F4F7C01243279F12CF42A3069F020
:1030D0002D30E1F50AC02A3241F02C32B9F5F60163
:1030E000EC57FF4F808182278083F80180818F30E9
:1030F00060F4F601E80FF11DEA57FF4F1082C60198
:1031000029830E94AE16298101C080E0F601EA56AB
:10311000FF4F90819F5F9083F801108291E02A32E7
:1031200009F090E0F70128C0F8011082F601EA5694
:10313000FF4F108272971082719682E08083F701B0
:103140001082F601E856FF4F108218C0F801808106
:103150008E3048F491E0980F9083F601E80FF11D4E
:10316000EA57FF4F2083F7018081811107C0F601E4
:10317000EC57FF4F90819227908301C080E00F9021
:10318000DF91CF911F910F91FF90EF90DF90CF9043
:1031900008958091200490E020912104821B9109E0
:1031A00008952091210480912004281750F4E22FE3
:1031B000F0E0EE5DFB4F808190E02F5F20932104D3
:1031C00008958FEF9FEF0895E091210480912004EE
:1031D000E81730F4F0E0EE5DFB4F808190E0089559
:1031E0008FEF9FEF08950895CF92DF92EF92FF92B5
:1031F0000F931F93CF93DF937C01CB018A01209122
:10320000FC03222389F0EB016B01C40ED51ECC1503
:10321000DD0569F06991D701ED91FC910190F08194
:10322000E02DC7010995F3CF642F0E94AF1AC801A2
:10323000DF91CF911F910F91FF90EF90DF90CF9092
:103240000895CF93DF931F92CDB7DEB769832091A6
:10325000FC032223D1F02091FD03203240F021E035
:1032600030E0FC013383228380E090E015C0809140
:10327000FE03E82FF0E0E150FC4F998190838F5FCF
:103280008093FE038093FD0305C061E0CE010196AB
:103290000E94AF1A81E090E00F90DF91CF910895E6
:1032A000FC011382128248EE53E060E070E0448338
:1032B0005583668377838CEA91E0918380830895B8
:1032C00010922104109220041092FE031092FD032C
:1032D0000C94F21981E08093FC0360931F04109218
:1032E000FE031092FD0308950F93062F21E04091F5
:1032F000FD036FEF73E080911F040E94581A109233
:10330000FE031092FD031092FC030F9108958F921B
:103310009F92AF92BF92CF92DF92EF92FF920F9364
:103320001F93CF93DF93EC01F62ED42E4801590161
:10333000EE2019F10E946A191E2D143008F013E0D6
:103340001150B8F0E881F98128E0129FB0011124F2
:10335000A501940104C056954795379527956A9520
:10336000D2F7CA01B9010190F081E02DCE01099593
:10337000E7CF60E0CE010E9474194D2D413208F074
:1033800040E22C2D62E274E08F2D0E94101A109200
:10339000210480932004DF91CF911F910F91FF9022
:1033A000EF90DF90CF90BF90AF909F908F90089557
:1033B000CF92EF920F931F93C22EE12C00E010E00A
:1033C00098010E9487191F910F91EF90CF90089557
:1033D00021E00C94D81961E00C94741980EF93E00B
:1033E0000C9450191092AF0481E08093AD041092B8
:1033F000AC0461E082E10E94E11D61E083E10E9492
:10340000E11DE9EBF0E080818E7F808380818D7FFC
:10341000808388E48093B80085E48093BC0008959D
:10342000413208F043C09091AF049111FCCF91E07C
:103430009093AF042093AD042FEF20934204109299
:103440008704240F209386049093AE049091AE04D9
:10345000880F892B8093AE048091AC04813061F495
:103460001092AC048091AE048093BB008091BC00AC
:1034700083FDF8CF85EC01C085EE8093BC00809180
:10348000AF048130E1F380918704841710F44091F8
:10349000870428E834E0FB01D9018A2F821B8417B6
:1034A00018F48D918193F9CF842F089580E00895C9
:1034B0000F93413208F04AC09091AF049111FCCFB4
:1034C00092E09093AF040093AD049FEF9093420479
:1034D0001092870440938604FB0168E874E0DB01E6
:1034E0009A2F961B941718F491919D93F9CF1092EF
:1034F000AE049091AE04880F892B8093AE04809126
:10350000AC04813061F41092AC048091AE048093DD
:10351000BB008091BC0083FDF8CF85EC01C085EE37
:103520008093BC00222321F08091AF048230E1F32C
:10353000809142048F3F61F080914204803251F0CB
:1035400080914204803341F483E007C081E005C0EC
:1035500080E003C082E001C084E00F9108956132F1
:1035600098F42091AF04243089F460936404FC0142
:1035700086E694E0DC012A2F281B261718F42191F7
:103580002D93F9CF80E0089581E0089582E00895B9
:1035900085ED8093BC008091BC0084FDFCCF10922F
:1035A000AF04089585EC8093BC001092AF04089599
:1035B0001F920F920FB60F9211242F933F934F93A8
:1035C0005F936F937F938F939F93AF93BF93EF938B
:1035D000FF938091B900887F803609F49EC078F50A
:1035E000883209F45DC090F4803109F456C038F493
:1035F000882309F4F5C0883009F44FC0F5C088313C
:1036000009F44EC0803209F45FC0EEC0803409F482
:103610006AC058F4803309F457C0883309F0E4C015
:10362000809342040E94D21ADFC0803509F44FC053
:10363000883509F45DC0883409F0D6C0D3C0883914
:1036400009F4C4C0A8F4883709F467C038F4883690
:1036500009F463C0803709F460C0C6C0883809F433
:10366000B5C0803909F45FC0803809F0BDC05BC0C7
:10367000803B09F483C038F4803A09F466C0883A84
:1036800009F47CC0B1C0803C09F4A4C0883C09F4B2
:10369000A1C0883B09F487C0A7C08091AE0410C0C8
:1036A0009091870480918604981770F5E0918704C3
:1036B00081E08E0F80938704F0E0E857FB4F808114
:1036C0008093BB0085EC83C0809342048BC0E09163
:1036D000870481E08E0F809387048091BB00F0E027
:1036E000E857FB4F808390918704809186046BC0DC
:1036F000E091870481E08E0F809387048091BB0066
:10370000F0E0E857FB4F80838091AD0481116AC0DF
:1037100081E08093AC0484EA5EC083E08093AF04D0
:1037200010924304CFCF80914304803208F04EC002
:10373000E091430481E08E0F809343048091BB00AD
:10374000F0E0EC5BFB4F8083BDCF0E94D21A8091EA
:103750004304803230F4E0914304F0E0EC5BFB4F33
:1037600010826091430470E0E091A804F091A904F4
:1037700084E494E009951092430436C084E0809379
:10378000AF041092650410926404E091AA04F091D1
:10379000AB04099580916404811105C081E0809398
:1037A000640410926604E091650481E08E0F8093BA
:1037B0006504F0E0EA59FB4F80818093BB00909153
:1037C000650480916404981708F47CCF85E88093A1
:1037D000BC000AC085EC8093BC001092AF0404C00A
:1037E000109242040E94C81AFF91EF91BF91AF91CD
:1037F0009F918F917F916F915F914F913F912F9109
:103800000F900FBE0F901F90189508958230E8F426
:10381000E82FF0E0EE0FFF1FE65EFE4F718360833E
:10382000813041F0809169008C7F842B8093690006
:10383000E89A089580916900440F551F440F551F61
:10384000837F842B80936900E99A0895823078F40D
:10385000813011F0E89801C0E998E82FF0E0EE0F10
:10386000FF1FE65EFE4F85E09CE191838083089513
:103870001F920F920FB60F9211242F933F934F93E5
:103880005F936F937F938F939F93AF93BF93EF93C8
:10389000FF93E0911A01F0911B010995FF91EF91BF
:1038A000BF91AF919F918F917F916F915F914F9158
:1038B0003F912F910F900FBE0F901F9018951F9260
:1038C0000F920FB60F9211242F933F934F935F9354
:1038D0006F937F938F939F93AF93BF93EF93FF93D8
:1038E000E0911C01F0911D010995FF91EF91BF91AD
:1038F000AF919F918F917F916F915F914F913F9188
:103900002F910F900FBE0F901F9018951F920F923E
:103910000FB60F9211242F933F938F939F93AF93E2
:10392000BF938091B1049091B204A091B304B0917F
:10393000B4043091B00423E0230F2D3720F4019616
:10394000A11DB11D05C026E8230F0296A11DB11DC2
:103950002093B0048093B1049093B204A093B30475
:10396000B093B4048091B5049091B604A091B704CB
:10397000B091B8040196A11DB11D8093B504909338
:10398000B604A093B704B093B804BF91AF919F91D0
:103990008F913F912F910F900FBE0F901F90189510
:1039A0002FB7F8946091B1047091B2048091B30480
:1039B0009091B4042FBF08953FB7F8948091B50457
:1039C0009091B604A091B704B091B80426B5A89B15
:1039D00005C02F3F19F00196A11DB11D3FBF6627FD
:1039E000782F892F9A2F620F711D811D911D42E042
:1039F000660F771F881F991F4A95D1F70895CF92B8
:103A0000DF92EF92FF92CF93DF936B017C010E94D4
:103A1000DC1CEB01C114D104E104F10489F00E9423
:103A20006C220E94DC1C6C1B7D0B683E734090F383
:103A300081E0C81AD108E108F108C851DC4FEACF8B
:103A4000DF91CF91FF90EF90DF90CF900895789421
:103A500084B5826084BD84B5816084BD85B5826093
:103A600085BD85B5816085BDEEE6F0E08081816031
:103A70008083E1E8F0E01082808182608083808131
:103A800081608083E0E8F0E0808181608083E1EB09
:103A9000F0E0808184608083E0EBF0E080818160F1
:103AA0008083EAE7F0E080818460808380818260A7
:103AB0008083808181608083808180688083109290
:103AC000C10008958E3008F08E50877020911E013D
:103AD00090E4299F90011124822B80937C00809197
:103AE0007A00806480937A0080917A0086FDFCCF12
:103AF000809178002091790090E0922B0895833096
:103B000081F028F4813099F08230A1F00895873057
:103B1000A9F08830B9F08430D1F4809180008F7D95
:103B200003C0809180008F7780938000089584B5D2
:103B30008F7702C084B58F7D84BD08958091B000D9
:103B40008F7703C08091B0008F7D8093B00008957F
:103B5000CF93DF9390E0FC01EF5EFD4F2491FC01D9
:103B6000EB5DFD4F8491882349F190E0880F991F08
:103B7000FC01E35BFD4FA591B4918D5B9D4FFC0172
:103B8000C591D4919FB7611108C0F8948C9120958C
:103B900082238C93888182230AC0623051F4F89486
:103BA0008C91322F309583238C938881822B88834C
:103BB00004C0F8948C91822B8C939FBFDF91CF919E
:103BC00008950F931F93CF93DF931F92CDB7DEB766
:103BD000282F30E0F901E350FE4F8491F901EF5EA8
:103BE000FD4F1491F901EB5DFD4F04910023C9F0E5
:103BF000882321F069830E947F1D6981E02FF0E016
:103C0000EE0FFF1FED5BFD4FA591B4919FB7F894A8
:103C10008C91611103C01095812301C0812B8C937D
:103C20009FBF0F90DF91CF911F910F910895CF9378
:103C3000DF93282F30E0F901E350FE4F8491F90122
:103C4000EF5EFD4FD491F901EB5DFD4FC491CC23A4
:103C500091F081110E947F1DEC2FF0E0EE0FFF1F0D
:103C6000E75CFD4FA591B4912C912D2381E090E06C
:103C700021F480E002C080E090E0DF91CF910895D0
:103C8000FC01818D228D90E0805C9F4F821B910909
:103C90008F7399270895FC01918D828D981731F0CB
:103CA000828DE80FF11D858D90E008958FEF9FEFD5
:103CB0000895FC01918D828D981761F0828DDF014E
:103CC000A80FB11D5D968C91928D9F5F9F73928F0F
:103CD00090E008958FEF9FEF08958DED9FE1892B80
:103CE00049F080E090E0892B29F00E94DD1F8111CE
:103CF0000C9400000895FC01848DDF01A80FB11D14
:103D0000A35ABF4F2C91848D90E001968F73992711
:103D1000848FA689B7892C93A089B1898C918064FE
:103D20008C93938D848D981306C00288F389E02DBF
:103D300080818F7D80830895CF93DF93EC01888D00
:103D40008823C9F0EA89FB89808185FD05C0A8899F
:103D5000B9898C9186FD0FC00FB607FCF5CF808125
:103D600085FFF2CFA889B9898C9185FFEDCFCE016F
:103D70000E947B1EE7CFDF91CF910895CF92DF9213
:103D8000FF920F931F93CF93DF931F92CDB7DEB7B0
:103D90006C0181E0D60158968C9358975B969C9164
:103DA0005B975C968C915C97981307C05096ED9149
:103DB000FC915197808185FD2EC0F601038D10E0A6
:103DC0000F5F1F4F0F731127F02EF601848DF8122D
:103DD00011C00FB607FCF9CFD6015096ED91FC91BA
:103DE0005197808185FFF1CFC60169830E947B1EB8
:103DF0006981EBCF838DE80FF11DE35AFF4F60839C
:103E0000D6015B960C935B975296ED91FC9153977C
:103E1000808180620CC0D6015696ED91FC91579737
:103E200060835096ED91FC915197808180648083EE
:103E300081E090E00F90DF91CF911F910F91FF9063
:103E4000DF90CF900895BF92CF92DF92EF92FF92D2
:103E5000CF93DF93EC016A017B01B22EE889F989E7
:103E600082E08083411581EE580761057105A1F05C
:103E700060E079E08DE390E0A70196010E941627AB
:103E80002150310941095109569547953795279594
:103E9000211580E1380798F0E889F989108260E8F7
:103EA00074E88EE190E0A70196010E941627215048
:103EB0003109410951095695479537952795EC8564
:103EC000FD853083EE85FF852083188EEC89FD8982
:103ED000B082EA89FB89808180618083EA89FB89DD
:103EE000808188608083EA89FB8980818068808303
:103EF000EA89FB8980818F7D8083DF91CF91FF905C
:103F0000EF90DF90CF90BF9008951F920F920FB661
:103F10000F9211242F938F939F93EF93FF93E09130
:103F2000C904F091CA048081E091CF04F091D004DB
:103F300082FD12C090818091D2048F5F8F73209197
:103F4000D304821751F0E091D204F0E0E754FB4F24
:103F5000958F8093D20401C08081FF91EF919F9152
:103F60008F912F910F900FBE0F901F9018951F9259
:103F70000F920FB60F9211242F933F934F935F939D
:103F80006F937F938F939F93AF93BF93EF93FF9321
:103F900089EB94E00E947B1EFF91EF91BF91AF915E
:103FA0009F918F917F916F915F914F913F912F9151
:103FB0000F900FBE0F901F90189589EB94E00E9410
:103FC000401E21E0892B09F420E0822F08951092F1
:103FD000BC041092BB0488EE93E0A0E0B0E08093B4
:103FE000BD049093BE04A093BF04B093C0048CEBB7
:103FF00091E09093BA048093B90485EC90E090939B
:10400000C6048093C50484EC90E09093C804809328
:10401000C70480EC90E09093CA048093C90481ECBB
:1040200090E09093CC048093CB0482EC90E090934A
:10403000CE048093CD0486EC90E09093D0048093DE
:10404000CF041092D2041092D3041092D404109290
:10405000D504089508950E94271D0E942A200E94D9
:10406000AE04CDE6DEE10E9469082097E1F30E94EC
:104070006D1EF9CFCF92DF92EF92FF920F931F93B5
:10408000CF93DF937C016A01EB0100E010E00C1597
:104090001D0571F06991D701ED91FC910190F081BE
:1040A000E02DC7010995892B19F00F5F1F4FEFCF46
:1040B000C801DF91CF911F910F91FF90EF90DF909A
:1040C000CF9008956115710581F0DB010D900020FE
:1040D000E9F7AD0141505109461B570BDC01ED9149
:1040E000FC910280F381E02D099480E090E0089536
:1040F000EF92FF920F931F93CF93DF938C017B017D
:10410000C0E0D0E0F701EC0FFD1F6491662359F089
:10411000F801A081B181ED91FC91C8010995892B2D
:1041200011F02196EFCFCE01DF91CF911F910F912A
:10413000FF90EF9008950C946220DC01ED91FC91CA
:104140000190F081E02D099468EC71E00C946220FC
:104150000F931F93CF93DF93EC010E9478208C0183
:10416000CE010E94A420800F911FDF91CF911F915B
:104170000F9108950F931F93CF93DF93EC010E944B
:1041800062208C01CE010E94A420800F911FDF913C
:10419000CF911F910F9108958F929F92AF92BF92EE
:1041A000CF92DF92EF92FF920F931F93CF93DF9303
:1041B000CDB7DEB7A1970FB6F894DEBF0FBECDBF67
:1041C0007C01C42EE52FCB01D22E19A221E02D15A2
:1041D00010F02AE0D22E8E010F5D1F4F8D2C912CF6
:1041E000A12CB12C6C2D7E2FA50194010E941627C5
:1041F0008C2DD29E80191124015011098A3014F49B
:10420000805D01C0895CF80180832115310541057D
:10421000510521F0C22EE32FCA01E4CFB801C70136
:104220000E946220A1960FB6F894DEBF0FBECDBFEC
:10423000DF91CF911F910F91FF90EF90DF90CF9082
:10424000BF90AF909F908F900895CF92DF92EF92A2
:10425000FF920F931F93CF93DF93EC016A017B01D1
:104260002115310579F4E881F9810190F081E02D83
:10427000642FDF91CF911F910F91FF90EF90DF900E
:10428000CF9009942A303105E9F477FF1AC06DE226
:104290000E949D208C0144275527BA014C195D09C5
:1042A0006E097F092AE0CE010E94CC20800F911F69
:1042B000DF91CF911F910F91FF90EF90DF90CF9002
:1042C00008952AE0B701A601CE01DF91CF911F9199
:1042D0000F91FF90EF90DF90CF900C94CC204F92F5
:1042E0005F926F927F928F929F92AF92BF92CF9286
:1042F000DF92EF92FF920F931F93CF93DF93EC0126
:104300006A017B01B22E9A01AB01C701B6010E947E
:10431000E925882319F06BEC71E027C026013701ED
:10432000E89477F82FEF3FEF4FE75FE7C301B20163
:104330000E94E92581110DC02FEF3FEF4FE75FE7A6
:10434000C301B2010E94342318161CF46FEC71E013
:104350000CC02FEF3FEF4FE75FE4C701B6010E94AB
:10436000E4241816ACF463ED71E0CE01DF91CF9137
:104370001F910F91FF90EF90DF90CF90BF90AF9083
:104380009F908F907F906F905F904F900C946220E1
:104390002FEF3FEF4FE75FECC701B6010E943423D8
:1043A00087FDE1CF20E030E0A901C701B6010E94FE
:1043B000342387FF0AC06DE2CE010E949D208C014C
:1043C000F7FAF094F7F8F09402C000E010E0A12CA6
:1043D00060E070E080E09FE3AB1441F020E030E06B
:1043E00040E251E40E943B23A394F6CF9B01AC0131
:1043F000C701B6010E946E226B017C010E94A823B6
:104400002B013C010E94D4239B01AC01C701B601E2
:104410000E946D226B017C012AE0B301A201CE0152
:104420000E94CC20080F191FBB2039F067ED71E006
:10443000CE010E946220080F191F7B2C772041F1CA
:1044400020E030E040E251E4C701B6010E94EF24D1
:104450006B017C010E94A3234B01AA2497FCA0942A
:10446000BA2C2AE030E0B501A401CE010E9425213A
:10447000080F191FC501B4010E94D6239B01AC018E
:10448000C701B6010E946D226B017C017A94D6CFE0
:10449000C801DF91CF911F910F91FF90EF90DF90B6
:1044A000CF90BF90AF909F908F907F906F905F90D4
:1044B0004F9008950F931F93CF93DF93EC010E94C9
:1044C0006F218C01CE010E94A420800F911FDF91EB
:1044D000CF911F910F91089508955058BB27AA2797
:1044E0000ED027C2F0D130F0F5D120F031F49F3F4B
:1044F00011F41EF4C0C10EF4E095E7FBB6C1E92F3C
:104500003AD280F3BA17620773078407950718F049
:1045100071F49EF552C20EF4E0950B2EBA2FA02D29
:104520000B01B90190010C01CA01A0011124FF2760
:10453000591B99F0593F50F4503E68F11A16F0405B
:10454000A22F232F342F4427585FF3CF469537955A
:104550002795A795F0405395C9F77EF41F16BA0B1F
:10456000620B730B840BBAF09150A1F0FF0FBB1FCD
:10457000661F771F881FC2F70EC0BA0F621F731F16
:10458000841F48F4879577956795B795F7959E3F73
:1045900008F0B3CF9395880F08F09927EE0F979501
:1045A0008795089590D158F080E891E009F49EEF46
:1045B00091D128F040E851E059F45EEF09C05BC1A9
:1045C000FCC1E92FE078D7D168F3092E052AC1F3A1
:1045D000261737074807590738F00E2E07F8E02549
:1045E00069F0E025E0640AC0EF6307F8009407FA79
:1045F000DB01B9019D01DC01CA01AD01EF934AD095
:1046000098D10AD05F91552331F02BED3FE049E47A
:1046100050FD49EC63CF0895DF93DD27B92FBF77B5
:1046200040E85FE31616170648075B0710F4D92F1A
:10463000CFD19F938F937F936F93C8D2EAE0F1E03D
:104640001DD177D12F913F914F915F91D4D1DD232F
:1046500049F09058A2EA2AED3FE049EC5FE3D078B8
:104660005D274DDFDF9165C1DCD008F481E008955E
:1046700039D1E3956FC10CD05CC12CD140F023D16E
:1046800030F021F45F3F19F0F0C0511197C1F3C031
:1046900072D198F39923C9F35523B1F3951B550BA8
:1046A000BB27AA2762177307840738F09F5F5F4F05
:1046B000220F331F441FAA1FA9F333D00E2E3AF046
:1046C000E0E830D091505040E695001CCAF729D060
:1046D000FE2F27D0660F771F881FBB1F26173707AF
:1046E0004807AB07B0E809F0BB0B802DBF01FF27DF
:1046F00093585F4F2AF09E3F510568F0B6C05EC1E7
:104700005F3FECF3983EDCF3869577956795B79518
:10471000F7959F5FC9F7880F911D9695879597F933
:104720000895E1E0660F771F881FBB1F62177307AC
:104730008407BA0720F0621B730B840BBA0BEE1FC1
:1047400088F7E095089504D06894B11137C10895B1
:104750001AD188F09F5790F0B92F9927B751A0F040
:10476000D1F0660F771F881F991F1AF0BA95C9F705
:1047700012C0B13081F021D1B1E008951EC1672F80
:10478000782F8827B85F39F0B93FCCF386957795B5
:104790006795B395D9F73EF490958095709561959E
:1047A0007F4F8F4F9F4F0895E89409C097FB3EF4C9
:1047B00090958095709561957F4F8F4F9F4F99236E
:1047C000A9F0F92F96E9BB279395F69587957795EC
:1047D0006795B795F111F8CFFAF4BB0F11F460FFAC
:1047E0001BC06F5F7F4F8F4F9F4F16C0882311F004
:1047F00096E911C0772321F09EE8872F762F05C018
:10480000662371F096E8862F70E060E02AF09A95B2
:10481000660F771F881FDAF7880F9695879597F9A7
:104820000895990F0008550FAA0BE0E8FEEF161641
:104830001706E807F907C0F012161306E407F50794
:1048400098F0621B730B840B950B39F40A2661F008
:10485000232B242B252B21F408950A2609F4A140AB
:10486000A6958FEF811D811D089597F99F6780E8B8
:1048700070E060E008959FEF80EC0895DF93CF93A0
:104880001F930F93FF92EF92DF927B018C0168944C
:1048900005C0DA2EEF01AFD0FE01E894A591259175
:1048A000359145915591AEF3EF0129DEFE01970157
:1048B000A801DA9479F7DF90EF90FF900F911F91A4
:1048C000CF91DF91089500240A9416161706180652
:1048D0000906089500240A94121613061406050604
:1048E0000895C9CF50D0E8F3E894E0E0BB279F5784
:1048F000F0F02AED3FE049EC06C0EE0FBB0F661F5B
:10490000771F881F28F0B23A62077307840728F0E0
:10491000B25A620B730B840BE3959A9572F7803849
:1049200030F49A95BB0F661F771F881FD2F7904807
:1049300087C1092E0394000C11F4882352F0BB0F99
:1049400040F4BF2B11F460FF04C06F5F7F4F8F4FA7
:104950009F4F0895EF93E0FF06C0A2EA2AED3FE0E3
:1049600049EC5FEBCCDDE5DF0F90039401FC905840
:10497000E7E3F1E078C157FD9058440F551F59F017
:104980005F3F71F04795880F97FB991F61F09F3F3C
:1049900079F087950895121613061406551FF2CF65
:1049A0004695F1DF08C0161617061806991FF1CFB5
:1049B00086957105610508940895E894BB276627DC
:1049C0007727CB0197F908952CDF08F48FEF08952E
:1049D0009B01AC0160E070E080E89FE34CCE0BD01F
:1049E000A8CF71DF28F076DF18F0952309F03DCFCE
:1049F00042CF1124E3CFBFDFA0F3959FD1F3950FF2
:104A000050E0551F629FF001729FBB27F00DB11D52
:104A1000639FAA27F00DB11DAA1F649F6627B00DE2
:104A2000A11D661F829F2227B00DA11D621F739FCB
:104A3000B00DA11D621F839FA00D611D221F749FD9
:104A40003327A00D611D231F849F600D211D822F20
:104A5000762F6A2F11249F5750408AF0E1F0882367
:104A60004AF0EE0FFF1FBB1F661F771F881F915074
:104A70005040A9F79E3F510570F0F7CE9FCF5F3FA2
:104A8000ECF3983EDCF3869577956795B795F795A7
:104A9000E7959F5FC1F7FE2B880F911D969587952F
:104AA00097F90895FA01EE0FFF1F309621053105A1
:104AB00099F16115710561F48038BFE39B0749F1F5
:104AC00068949038810561F08038BFEF9B0741F012
:104AD000992342F5FF3FE1053105210511F1E894E5
:104AE0000894E795D901AA2329F4AB2FBE2FF85FCC
:104AF000D0F310C0FF5F70F4A695E0F7F73950F0DF
:104B000019F0FF3A38F49F779F930CD00F9007FC71
:104B1000905808953EF0AFCE60E070E080E89FE3EB
:104B200008954FE79F775F934F933F932F93E7D07D
:104B30002F913F914F915F9152DF54C09F93D2DEEE
:104B40000F9007FCEE5F06CF11F40EF494CE76C002
:104B50001ADFD0F39923D9F3CEF39F57550B87FF74
:104B60007BD00024A0E640EA9001805856959795A6
:104B700028F4805C660F771F881F20F02617370700
:104B8000480730F4621B730B840B202931294A2B10
:104B9000A69517940794202531254A2758F7660FC4
:104BA000771F881F20F026173707480730F4620B5D
:104BB000730B840B200D311D411DA09581F7B901A8
:104BC000842F9158880F9695879508959B01AC0185
:104BD00006CF27DE880B990B089519F40EF045CE09
:104BE000ECCE49CED0DEC8F39638C0F707F80F9266
:104BF000E8942BE33AEA48EB5FE7FFDE0F920F926F
:104C00000F924DB75EB70F92BAD0E5E5F1E036DE10
:104C10004F915F91EF91FF91E595EE1FFF1F49F0D6
:104C2000FE57E0684427EE0F441FFA95E1F74195DF
:104C3000550B2CD00F9007FECBCE08959F3F31F03F
:104C4000915020F4879577956795B795880F911DBA
:104C50009695879597F9089591505040660F771F64
:104C6000881FD2F708959F938F937F936F93FF933D
:104C7000EF939B01AC01B3DEEF91FF91FFDD2F912C
:104C80003F914F915F91ABCEF0CDD8CF7CDEE8F372
:104C90009923D9F3940F511DBBF39150504094F0D8
:104CA00059F0882332F0660F771F881F91505040CB
:104CB000C1F79E3F510544F7880F911D9695879542
:104CC00097F908955F3FACF0983E9CF0BB2786951E
:104CD00077956795B79508F4B1609395C1F7BB0FC9
:104CE00058F711F460FFE8CF6F5F7F4F8F4F9F4FF2
:104CF000E3CF64CE0EF0A2CFBECD6894B6CD43DE36
:104D0000C8F39923D1F3C6F3DF93CF931F930F9387
:104D1000FF92C92FDD2788232AF02197660F771F7E
:104D2000881FDAF720E030E040E85FEB9FE3883946
:104D300020F0803E30F021968F77D0DBEDE7F1E078
:104D400003C0CCDBEAEAF1E099DD8B01BE01EC01A6
:104D5000FB2E6F5771097595771F880B990B26DD10
:104D600028E132E741E35FE346DEAF2D9801AE0173
:104D7000FF900F911F91CF91DF91C1DBDACDFA0146
:104D8000DC01AA0FBB1F9B01AC01BF5728F42227EF
:104D90003327442750781FC0B75188F4AB2F002425
:104DA000469537952795011CA395D2F3002069F00D
:104DB000220F331F441FB395DAF30DD08ECB613031
:104DC0007105A0E88A07B94630F49B01AC0166275B
:104DD000772788279078309621F02083318342838B
:104DE00053830895DB018F939F930E945D27BF91AA
:104DF000AF91A29F800D911DA39F900DB29F900D2A
:104E00001124089597FB072E16F4009407D077FD20
:104E100009D00E94702707FC05D03EF4909581953B
:104E20009F4F0895709561957F4F0895A1E21A2EC6
:104E3000AA1BBB1BFD010DC0AA1FBB1FEE1FFF1F3E
:104E4000A217B307E407F50720F0A21BB30BE40B8E
:104E5000F50B661F771F881F991F1A9469F76095D5
:104E60007095809590959B01AC01BD01CF0108958F
:104E7000052E97FB1EF400940E944F2757FD07D084
:104E80000E94162707FC03D04EF40C944F27509530
:104E90004095309521953F4F4F4F5F4F0895909526
:104EA0008095709561957F4F8F4F9F4F0895EE0FBE
:104EB000FF1F0590F491E02D09940E948427A59F7F
:104EC000900DB49F900DA49F800D911D1124089505
:104ED000B7FF0C945D270E945D27821B930B0895FA
:104EE000AA1BBB1B51E107C0AA1FBB1FA617B70710
:104EF00010F0A61BB70B881F991F5A95A9F780952C
:104F00009095BC01CD010895A29FB001B39FC0014F
:104F1000A39F700D811D1124911DB29F700D811DE5
:104F20001124911D08951F93FC0199278827BC0126
:104F3000E89411911032E9F3193010F01E30C8F3E3
:104F40001B3251F01D3249F4689406C00E94D927E3
:104F5000610F711D811D911D119110531A30B0F315
:104F60003EF490958095709561957F4F8F4F9F4F40
:104F70001F910895FB01DC018D91019080190110B2
:104F8000D9F3990B0895FB01DC0101900D920020EB
:104F9000E1F70895FB01DC014150504048F00190D9
:104FA0000D920020C9F701C01D9241505040E0F71A
:104FB0000895592F482F372F262F660F771F881FE8
:104FC000991F660F771F881F991F620F731F841F19
:104FD000951F660F771F881F991F089512E0C0E67E
:104FE000D2E004C0FE010E9459272296C236D107A2
:064FF000C9F7F894FFCFA1
:104FF600DB00640098080000ABEC1442EAD15F4283
:105006000200F4014C044C046201051C051C015508
:105016006E6B6E6F776E20636F6D6D616E6400727E
:10502600656D6F740063706D203D2000202D20009B
:105036007553762F68203D2000666C79313000422A
:105046006567696E6E696E67202E2E2E2000000041
:1050560000005B0163016201000000004F0F3A206F
:10506600BC0F2E0FA20FA10F4750524D43004750C1
:10507600474741004E004E4E4500454E45004553BC
:105086004500535345005300535357005753570099
:10509600574E57004E4E5700000000002119F418D5
:1050A600C918D118E418F31800000000BE1E3A20F3
:1050B600401E591E4B1E9C1E0D0A006E616E006935
:0A50C6006E66006F7666002E000093
:107800000C94343C0C94513C0C94513C0C94513CE1
:107810000C94513C0C94513C0C94513C0C94513CB4
:107820000C94513C0C94513C0C94513C0C94513CA4
:107830000C94513C0C94513C0C94513C0C94513C94
:107840000C94513C0C94513C0C94513C0C94513C84
:107850000C94513C0C94513C0C94513C0C94513C74
:107860000C94513C0C94513C11241FBECFEFD8E036
:10787000DEBFCDBF11E0A0E0B1E0ECE9FFE702C060
:1078800005900D92A230B107D9F712E0A2E0B1E065
:1078900001C01D92AD30B107E1F70E942D3D0C945F
:1078A000CC3F0C94003C982F959595959595959582
:1078B000905D8F708A307CF0282F295A8091C0000B
:1078C00085FFFCCF9093C6008091C00085FFFCCF60
:1078D0002093C6000895282F205DF0CF982F809127
:1078E000C00085FFFCCF9093C6000895EF92FF92F1
:1078F0000F931F93EE24FF2487018091C00087FD22
:1079000017C00894E11CF11C011D111D81E4E8164B
:1079100082E4F8068FE0080780E0180770F3E09132
:107920000401F091050109958091C00087FFE9CF1E
:107930008091C6001F910F91FF90EF9008950E94D3
:10794000763C982F8091C00085FFFCCF9093C600B5
:1079500091362CF490330CF09053892F089597555D
:10796000892F08951F930E949F3C182F0E949F3CCF
:107970001295107F810F1F9108951F93182F882350
:1079800021F00E94763C1150E1F71F9108951F935A
:10799000182F0E94763C803249F0809103018F5F5E
:1079A000809303018530C1F01F9108958091C0003C
:1079B00085FFFCCF84E18093C6008091C00085FFE5
:1079C000FCCF1093C6008091C00085FFFCCF80E102
:1079D0008093C6001F910895E0910401F091050184
:1079E00009951F9108950E94763C803241F0809164
:1079F00003018F5F80930301853081F008958091AA
:107A0000C00085FFFCCF84E18093C6008091C00058
:107A100085FFFCCF80E18093C6000895E0910401CA
:107A2000F09105010995089540E951E08823A1F0FE
:107A30002D9A28EE33E0FA013197F1F721503040CA
:107A4000D1F72D9828EE33E0FA013197F1F7215064
:107A50003040D1F7815061F708953F924F925F9285
:107A60006F927F928F929F92AF92BF92CF92DF924E
:107A7000EF92FF920F931F93CF93DF93000080E16B
:107A80008093C4001092C50088E18093C10086E015
:107A90008093C2005098589A259A81E00E94143D24
:107AA00024E1F22E9EE1E92E85E9D82E0FE0C02ECA
:107AB00010E1B12EAA24A394B1E49B2EA6E58A2E50
:107AC000F2E57F2EE0E26E2E79E4572E63E5462E36
:107AD00050E5352E0E94763C8033B1F18133B9F107
:107AE000803409F46FC0813409F476C0823409F41B
:107AF00085C0853409F488C0803531F1823521F1A3
:107B0000813511F1853509F485C0863509F48DC0BC
:107B1000843609F496C0843709F403C1853709F423
:107B200072C1863709F466C0809103018F5F80932C
:107B30000301853079F6E0910401F0910501099582
:107B40000E94763C803351F60E94F33CC3CF0E94E2
:107B5000763C803249F78091C00085FFFCCFF092DF
:107B6000C6008091C00085FFFCCF9092C600809136
:107B7000C00085FFFCCF8092C6008091C00085FFC9
:107B8000FCCF7092C6008091C00085FFFCCF609250
:107B9000C6008091C00085FFFCCF5092C600809146
:107BA000C00085FFFCCF4092C6008091C00085FFD9
:107BB000FCCF3092C6008091C00085FFFCCFB09210
:107BC000C60088CF0E94763C863808F4BDCF0E945C
:107BD000763C0E94F33C7ECF0E94763C803809F4CC
:107BE0009CC0813809F40BC1823809F43CC1883942
:107BF00009F48FC080E00E94C73C6CCF84E10E94F2
:107C0000BD3C0E94F33C66CF85E00E94BD3C0E94D3
:107C1000F33C60CF0E94763C809306010E94763C44
:107C2000809307010E94F33C55CF0E94763C80333D
:107C300009F41DC183E00E94BD3C80E00E94C73C66
:107C400049CF0E94763C809309020E94763C809343
:107C5000080280910C028E7F80930C020E94763C79
:107C6000853409F415C18091080290910902892B8D
:107C700089F000E010E00E94763CF801E85FFE4FDA
:107C800080830F5F1F4F80910802909109020817AF
:107C9000190788F30E94763C803209F045CF809125
:107CA0000C0280FF01C16091060170910701660F0F
:107CB000771F7093070160930601A0910802B091AD
:107CC00009021097C9F0E8E0F1E09B01AD014E0F09
:107CD0005F1FF999FECF32BD21BD819180BDFA9A17
:107CE000F99A2F5F3F4FE417F50799F76A0F7B1F4B
:107CF00070930701609306018091C00085FFFCCF5F
:107D0000F092C6008091C00085FFFCCFB092C60003
:107D1000E1CE83E00E94C73CDDCE82E00E94C73CFA
:107D2000D9CE0E94763C809309020E94763C8093D3
:107D300008028091060190910701880F991F909386
:107D40000701809306010E94763C853409F4A6C0A1
:107D500080910C028E7F80930C020E94763C8032D0
:107D600009F0B8CE8091C00085FFFCCFF092C6002C
:107D7000609108027091090261157105B9F140E046
:107D800050E080910C02A82FA170B82FB27011C0E2
:107D9000BB2309F45CC0E0910601F0910701319624
:107DA000F0930701E09306014F5F5F4F46175707B7
:107DB000E8F4AA2369F3F999FECF209106013091E6
:107DC000070132BD21BDF89A90B58091C00085FFB2
:107DD000FCCF9093C6002F5F3F4F30930701209355
:107DE00006014F5F5F4F4617570718F38091C00099
:107DF00085FDE5CE8091C00085FFF8CFE0CE81E023
:107E00000E94C73C67CE0E94763C803209F08CCE3F
:107E10008091C00085FFFCCFF092C6008091C00029
:107E200085FFFCCFE092C6008091C00085FFFCCFAB
:107E3000D092C6008091C00085FFFCCFC092C600E2
:107E40008091C00085FFFCCFB092C60043CEE09188
:107E50000601F091070194918091C00085FFFCCF4D
:107E60009093C6009CCF80E10E94C73C33CE0E9415
:107E7000763C0E94763C182F0E94763C112309F430
:107E800083C0113009F484C08FE00E94C73C22CE29
:107E900080910C02816080930C02E5CE80910C02EF
:107EA000816080930C0259CF809107018823880F4D
:107EB000880B8A2180930B02809106019091070123
:107EC000880F991F90930701809306018091080203
:107ED00080FF09C080910802909109020196909359
:107EE000090280930802F894F999FECF1127E091D6
:107EF0000601F0910701C8E0D1E08091080290915D
:107F00000902103091F40091570001700130D9F34B
:107F100003E000935700E89500915700017001308D
:107F2000D9F301E100935700E89509901990009169
:107F3000570001700130D9F301E000935700E89534
:107F40001395103498F011270091570001700130FB
:107F5000D9F305E000935700E895009157000170B0
:107F60000130D9F301E100935700E895329602976A
:107F700009F0C7CF103011F00296E5CF112480919F
:107F8000C00085FFB9CEBCCE8EE10E94C73CA2CD19
:0C7F900085E90E94C73C9ECDF894FFCF0D
:027F9C00800063
:040000030000780081
:00000001FF